:020000040800F2
:1000000070070020E55300084D0400084F04000865
:1000100053040008570400085B04000800000000B7
:100020000000000000000000000000005F04000865
:100030006104000800000000630400086504000873
:10004000FF530008FF530008FF530008FF53000848
:10005000FF530008FF530008FF530008FF53000838
:10006000FF530008FF530008FF530008FF53000828
:10007000FF530008FF530008FF530008FF53000818
:10008000FF530008FF530008FF530008FF53000808
:10009000FF530008FF530008FF530008FF530008F8
:1000A000FF530008FF530008FF530008FF530008E8
:1000B000FF530008FF530008FF530008FF530008D8
:1000C000FF530008FF530008FF530008FF530008C8
:1000D000FF5300085B530008FF530008FF5300085C
:1000E000FF530008FF530008FF530008FF530008A8
:1000F000FF530008FF530008FF530008FF53000898
:10010000FF530008FF530008FF530008FF53000887
:10011000FF530008FF530008FF530008FF53000877
:10012000FF530008FF530008FF530008FF53000867
:1001300000F002F800F03FF80AA090E8000C8244BA
:100140008344AAF10107DA4501D100F034F8AFF297
:10015000090EBAE80F0013F0010F18BFFB1A43F0A5
:1001600001031847388A0000588A0000103A24BF5B
:1001700078C878C1FAD8520724BF30C830C144BF0C
:1001800004680C607047000000230024002500264E
:10019000103A28BF78C1FBD8520728BF30C148BFEA
:1001A0000B607047782906F09F84002070471FB5C8
:1001B0001FBD10B510BD06F04FFD1146FFF7F7FF4C
:1001C00000F008F806F06DFD03B4FFF7F2FF03BC82
:1001D00005F068F81CB504F0FBFF4FF4A06005F0D3
:1001E00021F94FF4E13005F06CF800F02DFA01F040
:1001F000F0F804F079FF4FF478407949088079A04D
:1002000010210B46C822CDE9001032213C2004F019
:100210002CFF78A010210B46C822CDE90010462102
:100220003C2004F022FF76A010210B46C822CDE925
:1002300000105A213C2004F018FF75A010210B4635
:10024000C822CDE900106E213C2004F00EFF1F20D3
:100250006349088071A010210B46C822CDE9001027
:1002600082213C2004F001FF70A010210B46C8221F
:10027000CDE9001096213C2004F0F7FE67A0102184
:100280000B46C822CDE90010BE213C2004F0EDFE53
:1002900066A010210B46C822CDE90010D2213C20D7
:1002A00004F0E3FE9BE00A21084604F076FF0446D2
:1002B0000020102104232246CDE9001082219C2039
:1002C00004F074FE204606F015FF834606F064FE37
:1002D00007464FF066325A4B06F060FD054606F0C1
:1002E000EBFC8246504606F0E5FE84B20020102169
:1002F00001232246CDE9001096219C2004F056FEF1
:10030000204606F0F7FE0546514606F0D3FF82462A
:100310004C49504606F002FF8246504606F0CAFE9F
:1003200005468020102103232A46CDE9001096219E
:10033000AC2004F03BFE0A210B2004F02EFF814686
:100340000020102104234A46CDE90010BE219C2044
:1003500004F02CFE484606F0CDFE834606F01CFE57
:1003600005464FF06632364B06F018FD074606F09C
:10037000A3FC8246504606F09DFE1FFA80F900203D
:10038000102101234A46CDE90010D2219C2004F01F
:100390000DFE484606F0AEFE0546514606F08AFFC1
:1003A00082462849504606F0B9FE8246504606F07D
:1003B00081FE05468020102103232A46CDE9001046
:1003C000D221AC2004F0F2FD1F48006808B90120DA
:1003D00000E000201C490860FA2004F036FF62E7C4
:1003E00014000020576172536869702053544D33D4
:1003F00032000000414443205445535400000000A3
:1004000041544F4D40414C49454E54454B0000002E
:10041000323031352F312F31340000004144435FF9
:100420004348305F56414C3A000000004144435F6E
:100430004348305F564F4C3A302E30303056000033
:1004400066664A3F00007A4498812342704700BFA5
:10045000FEE700BFFEE700BFFEE700BFFEE7704714
:1004600070477047704700000CB500200190009065
:100470006C48006840F480306A49086000BF6948F1
:10048000006800F4003000900198401C0190009832
:1004900018B90198B0F5A06FF1D16248006800F476
:1004A000003010B10120009001E000200090009881
:1004B000012843D15C48006840F010005A490860A8
:1004C0000846006820F0030008600846006840F015
:1004D0000200086053484068524948600846406836
:1004E00048600846406840F48060486008464068BC
:1004F00020F47C1048600846406840F4E8104860EA
:100500000846006840F08070086000BF45480068F9
:1005100000F000700028F9D04248406820F0030045
:10052000404948600846406840F00200486000BF0B
:100530003C48406800F00C000828F9D10CBD10B50B
:10054000FFF792FF10BD10B53648006840F001007B
:1005500034490860084640683449084031494860D9
:1005600008460068324908402E490860084600687D
:1005700020F4802008600846406820F4FE004860AF
:100580004FF41F008860FFF7DAFF4FF00060294941
:10059000086010BD10B5002100200022214B5B68CF
:1005A00003F00C0121B1042906D0082928D107E065
:1005B000214B224C236027E01F4B204C236023E07B
:1005C000184B5B6803F47010164B5B6803F48032C1
:1005D000022303EB904022B9194B4343174C23608D
:1005E0000DE0104B5B6803F4003323B1144B43431D
:1005F000124C236003E0104B4343104C236003E094
:100600000D4B0E4C236000BF00BF064B5B68C3F36D
:1006100003130C4CE15C094B1B68CB40074C236077
:1006200010BD000000100240002002400000FFF852
:10063000FFFFF6FE08ED00E000127A000000002047
:1006400000093D000400002008B50121802005F0CC
:10065000A1FF4FF47070ADF8000010208DF803007A
:1006600003208DF802006946044805F0D7FC4FF4DA
:100670007071024805F07FFD08BD0000001C0140BC
:100680004FF0D841088070474FF0D84148807047FC
:1006900008B54FF0D84040880090BDF8000008BD74
:1006A0004FF0D84210805180704710B50446204664
:1006B000FFF7E6FF052004F0A4FDFFF7E9FF10BDFA
:1006C000FC4800894FF0D841088070474FF0D8416E
:1006D0004880704730B5014601F01F04C1F345134F
:1006E000CA0AE50205EB43151544A8B230BD00BFA8
:1006F0000100A0F10102D0B2FAD1704710B5034653
:100700000C46EC48808849F24131884205D0E948DE
:10071000808845F21031884214D1E6494889FFF7B4
:10072000AFFF1812FFF7B0FFD8B2FFF7ADFFE149F6
:100730008889FFF7A5FF2012FFF7A6FFE0B2FFF7B9
:10074000A3FFABE0DB48808846F6040188421DD158
:10075000D8488079012804D1D6480088401EC01AA4
:1007600083B2D4494889FFF78BFF1812FFF78CFF3B
:10077000D8B2FFF789FFCF498889FFF781FF2012A0
:10078000FFF782FFE0B2FFF77FFF87E0C94880886C
:1007900041F66311884247D1C6488079A8B9C54857
:1007A0000088401EC01A83B2C2494889FFF768FF1B
:1007B0000020FFF769FF0020FFF766FF1812FFF720
:1007C00063FFD8B2FFF760FF16E0BA494889FFF728
:1007D00057FF1812FFF758FFD8B2FFF755FFB5497A
:1007E0000988491EC1F30F20FFF74EFFB149097870
:1007F000491EC8B2FFF748FFAE498889FFF740FF9E
:100800002012FFF741FFE0B2FFF73EFFA9494988F8
:10081000491EC1F30F20FFF737FFA6498978491E0B
:10082000C8B2FFF731FF39E0A248808845F2105185
:10083000884220D19F494889FFF722FF1812FFF70D
:1008400023FF9C494989491C88B2FFF719FFD8B298
:10085000FFF71AFF97498889FFF712FF2012FFF769
:1008600013FF94498989491C88B2FFF709FFE0B258
:10087000FFF70AFF12E08F488079012804D18D48E4
:100880000088401EC01A83B28A4948891946FFF77A
:1008900007FF884988892146FFF702FF10BD2DE92F
:1008A000F04105460E4600240027A04681480088F6
:1008B000A84203DD7F484088B04202DC0020BDE84A
:1008C000F08131462846FFF719FF7A48808849F2BF
:1008D0004131884211D07748808846F60401884229
:1008E0000BD07448808845F21031884205D0714899
:1008F000808841F66311884203D12E20FFF7C0FEA5
:100900000DE06C48808845F21051884204D14FF4C4
:100910003850FFF7B5FE02E02220FFF7B1FE654830
:10092000808849F22031884202D10220FFF7DFFEA1
:10093000FFF7AEFE04465F48808841F663118842A7
:1009400001D12046BBE70220FFF7D1FEFFF7A0FE52
:1009500004465848808849F2413188420BD05548B6
:10096000808845F21031884205D05248808845F28F
:10097000105188420AD10220FFF7B9FEFFF788FE26
:100980008046E7B24FF6FF7000EA072749488088A3
:1009900049F22531884216D04648808844F23551C4
:1009A000884210D043488088091F88420BD04148B4
:1009B00080884BF20551884205D03E4880884CF231
:1009C0000551884201D1204679E73A48808849F2AA
:1009D000413188420BD03748808845F21031884237
:1009E00005D03448808845F21051884207D1E01282
:1009F000C002B91240EA411040EAE8205FE7204611
:100A0000FFF768FE5BE700B52A48808849F241316C
:100A1000884211D02748808846F6040188420BD0CE
:100A20002448808845F21031884205D021488088CA
:100A300041F66311884203D12920FFF721FE0FE020
:100A40001C48808845F21051884204D14FF424504C
:100A5000FFF716FE04E040F273110720FFF720FEB7
:100A600000BD00B51348808849F24131884211D059
:100A70001048808846F6040188420BD00D488088D3
:100A800045F21031884205D00A48808841F663114A
:100A9000884203D12820FFF7F3FD11E00548808844
:100AA00045F21051884207D14FF42050FFF7E8FD7E
:100AB00006E000003800002000210720FFF7F0FDCD
:100AC00000BD70B5044600230026FD48807901284A
:100AD0000BD1FB48808846F60401884205D0F848CF
:100AE000808841F66311884208D1F5488079F0B9D1
:100AF000F348808841F66311884218D1082C15D23A
:100B0000DFE804F00406080A0C0E101206240DE0BB
:100B100007240BE0042409E0052407E0012405E094
:100B2000002403E0032401E0022400BF00BFE448E6
:100B3000808849F24131884217D0E148808846F6E2
:100B40000401884211D0DE48808845F21031884285
:100B50000BD0DB48808845F21051884205D0D84838
:100B6000808841F6631188427ED1082C1CD2DFE8D0
:100B700004F00406090C0F12151800BF14E043F02E
:100B8000800311E043F040030EE043F0C0030BE0AC
:100B900043F0200308E043F0600305E043F0A003C6
:100BA00002E043F0E00300BF00BFC548808845F283
:100BB0001051884202D14FF4585600E03626C04802
:100BC000808845F2103188420DD0BD48808845F2BA
:100BD0001051884207D0BA48808841F66311884294
:100BE00001D043F00803B648808846F604018842E5
:100BF00001D143F0020319463046FFF751FDB048DA
:100C0000808841F6631188421DD003F0200068B14E
:100C1000AB480088AA494988884214DAA848058860
:100C20004088A7490880084645800CE0A448008811
:100C3000A3494988884206DDA14805884088A04923
:100C40000880084645809E48808845F210518842B9
:100C500054D19B494889FFF713FD0020FFF714FD8D
:100C600097494989491C00E077E088B2FFF708FD01
:100C70000020FFF709FD92494989891C88B2FFF7D6
:100C8000FFFC8F490988491EC1F30F20FFF7FCFCC8
:100C90008B494989C91C88B2FFF7F2FC8849097859
:100CA000491EC8B2FFF7F0FC85498889FFF7E8FCC8
:100CB0000020FFF7E9FC82498989491C88B2FFF7C7
:100CC000DFFC0020FFF7E0FC7D498989891C88B2A0
:100CD000FFF7D6FC7A494988491EC1F30F20FFF778
:100CE000D3FC77498989C91C88B2FFF7C9FC7449CC
:100CF0008978491EC8B2FFF7C7FC55E0704948899A
:100D0000FFF7BEFC0020FFF7BFFC0020FFF7BCFC94
:100D10006B490988491EC1F30F20FFF7B5FC6849EC
:100D20000978491EC8B2FFF7AFFC65498889FFF70B
:100D3000A7FC0020FFF7A8FC0020FFF7A5FC6049F6
:100D40004988491EC1F30F20FFF79EFC5C49897852
:100D5000491EC8B2FFF798FC26E0082C1CD2DFE839
:100D600004F004070A0D0F12151843F0300313E0C6
:100D700043F0100310E043F020030DE000BF0BE050
:100D800043F0380308E043F0280305E043F018037C
:100D900002E043F0080300BF00BF032643F4805382
:100DA00019463046FFF77CFC70BD30B504460D4651
:100DB00029462046FFF7A2FCFFF782FC4148008845
:100DC0004FF0D841488030BD30B503460C4615463B
:100DD0003B48808849F24131884205D038488088B4
:100DE00045F21031884214D135494889FFF748FC53
:100DF0001812FFF749FCD8B2FFF746FC3049888942
:100E0000FFF73EFC2012FFF73FFCE0B2FFF73CFC8F
:100E100091E02B48808845F21051884220D1284922
:100E20004889FFF72DFC1812FFF72EFC2449498949
:100E3000491C88B2FFF724FCD8B2FFF725FC2049F3
:100E40008889FFF71DFC2012FFF71EFC1C498989C9
:100E5000491C88B2FFF714FCE0B2FFF715FC6AE00A
:100E60001748808841F6631188422DD11448807953
:100E700020B913480088401EC01A83B2104948891F
:100E8000FFF7FEFB1812FFF7FFFBD8B2FFF7FCFBE2
:100E90001812FFF7F9FBD8B2FFF7F6FB084988896B
:100EA000FFF7EEFB2012FFF7EFFBE0B2FFF7ECFBE2
:100EB0002012FFF7E9FBE0B2FFF7E6FB3BE00000A2
:100EC0003800002014000020FE48808846F6040107
:100ED00088421DD1FB488079012804D1F948008857
:100EE000401EC01A83B2F7494889FFF7C9FB1812A0
:100EF000FFF7CAFBD8B2FFF7C7FBF2498889FFF7B3
:100F0000BFFB2012FFF7C0FBE0B2FFF7BDFB12E012
:100F1000EC488079012804D1EA480088401EC01AB4
:100F200083B2E84948891946FFF7BAFBE549888941
:100F30002146FFF7B5FBE34800894FF0D841088010
:100F40000846458030BD2DE9F0470446BE20FFF736
:100F500097FB0520FFF798FB204605F00CFF07469E
:100F60004FF06632D84B05F019FF054605F0D6FE66
:100F70001FFA80F94846FFF787FB0120FFF784FB43
:100F8000FF20FFF781FB0020FFF77EFB0020FFF72B
:100F90007BFBBDE8F08710B50446002C66D1C9493B
:100FA0008871F02008804FF4A0704880084680883F
:100FB00049F2413188420BD0C248808846F604018C
:100FC000884205D0BF48808845F2103188421AD146
:100FD0002C20BC4908812A2048812B208881084682
:100FE000808846F60401884205D0B648808845F2DC
:100FF0001031884206D14FF4A070B24908804FF4F6
:10100000F0704880A1E0AF48808845F210518842D6
:1010100010D14FF43050AB4908814FF4285048812B
:101020004FF42C5088814FF4F07008804FF44870D2
:1010300048808AE0A348808841F6631188420DD138
:101040002C20A04908812B2048812A2088814FF438
:10105000F07008804FF44870488076E0222099496B
:10106000088120204881212088816EE00120954957
:1010700088714FF4A0700880F0204880084680886E
:1010800049F24131884205D08E48808845F21031BE
:10109000884207D12C208B4908812A2048812B20A7
:1010A00088813FE08748808846F60401884207D15E
:1010B0002C20844908812B2048812A20888131E016
:1010C0008048808845F21051884210D14FF430504A
:1010D0007C4908814FF4285048814FF42C50888176
:1010E0004FF4487008804FF4F07048801AE075485B
:1010F000808841F6631188420DD12C207149088106
:101100002A2048812B2088814FF4487008804FF4B2
:10111000F070488006E022206A4908812120488139
:10112000202088816748808846F60401884205D0DF
:101130006448808845F21031884206D14FF4F0703F
:10114000604908804FF4A07048800020FFF7B9FC88
:1011500010BD2DE9F04F86B004460D4690469946E5
:1011600004EB0800401E86B205EB0900401E87B262
:101170005448808849F24131884215D051488088CE
:1011800045F2103188420FD04E48808846F604015F
:10119000884209D04B488079012826D14948808867
:1011A00041F66311884220D146494889FFF768FA21
:1011B0002012FFF769FAE0B2FFF766FA3012FFF784
:1011C00063FAF0B2FFF760FA3E498889FFF758FAF0
:1011D0002812FFF759FAE8B2FFF756FA3812FFF76C
:1011E00053FAF8B2FFF750FABDE03648808841F66E
:1011F0006311884234D133480088A0EB0800001BFB
:1012000084B205EB0900401E1FFA80F92D49488978
:10121000FFF736FA2012FFF737FAE0B2FFF734FA99
:1012200004EB0801491EC1F30F20FFF72DFA04EB70
:101230000801491EC8B2FFF727FA22498889FFF73B
:101240001FFA2812FFF720FAE8B2FFF71DFA4FEA5B
:101250002920FFF719FA09F0FF00FFF715FA82E0DD
:101260001848808845F21051884249D1154948896B
:10127000FFF706FA2012FFF707FA12494989491CBD
:1012800088B2FFF7FDF9E0B2FFF7FEF90D49498991
:10129000891C88B2FFF7F4F93012FFF7F5F9094914
:1012A0004989C91C88B2FFF7EBF9F0B2FFF7ECF9F6
:1012B00004498889FFF7E4F92812FFF7E5F90149A5
:1012C000898903E03800002066660440491C88B222
:1012D000FFF7D6F9E8B2FFF7D7F9FE498989891CEB
:1012E00088B2FFF7CDF93812FFF7CEF9F9498989AD
:1012F000C91C88B2FFF7C4F9F8B2FFF7C5F932E0AC
:10130000F448807901280ED1AA46BB46F1480088EE
:10131000801B401E80B20190EE480088001B401EDA
:1013200080B2009003E0A246B3460195009750209A
:101330000590512004905220039053200290514672
:101340000598FFF7ADF959460498FFF7A9F90199F7
:101350000398FFF7A5F900990298FFF7A1F929462C
:101360002046FFF7CBF906B0BDE8F08F70B5044614
:101370000026D848058840884543D648808846F6E8
:101380000401884216D1D3488079012812D1002067
:10139000D04988712A2048812B2088810021084665
:1013A000FFF7ACF90120CB4988712B2048812A2016
:1013B000888103E000210846FFF7A0F9FFF780F9D4
:1013C000002603E04FF0D8404480761CAE42F9D3AB
:1013D00070BD00B59FB00121080205F0CEF80121D3
:1013E0004FF4FC7005F0D6F803208DF87A00182031
:1013F0008DF87B004CF20370ADF878001EA9B6485A
:1014000004F00CFE4FF68070ADF878001EA9B348CA
:1014100004F004FE1020ADF878001EA9AE4804F0D8
:10142000FDFD2020ADF878001EA9AB4804F0F6FDC4
:101430004FF48050ADF878001EA9A94804F0EEFDE5
:101440000120ADF878001EA9A64804F0E7FD0220AF
:10145000ADF8780010208DF87B0003208DF87A001D
:101460001EA9A14804F0DAFD01200890002009908F
:101470000F200A9000200B900C900D900E90019080
:10148000029003200390002004900590069007909E
:1014900006200F9000201090119010201290002034
:1014A000139015901490169017904FF48050189048
:1014B000002019904FF480401A9000201B9008A83B
:1014C0001C9001A81D900FA804F08EFA012106209F
:1014D00004F0F2FB322003F0B8FE0020FFF7E5F83D
:1014E0007C49888008468088FF280ADB0846808877
:1014F0004FF6FF71884204D076488088B0F5134FCC
:101500007ED1D320FFF7BCF8FFF7C2F8714988807D
:10151000FFF7BEF86F498880FFF7BAF86D498880F9
:10152000084680884FF6FF7101EA002069498880EB
:10153000FFF7AEF8674989880843664988800846FE
:10154000808849F2413188425AD0BF20FFF798F88D
:10155000FFF79EF85F498880FFF79AF85D49888019
:10156000FFF796F85B498880FFF792F85949888021
:10157000084680884FF6FF7101EA002055498880AF
:10158000FFF786F8534989880843524988800846FE
:10159000808846F6040188427AD0D420FFF770F89C
:1015A000FFF776F84B498880FFF772F84949888041
:1015B000FFF76EF847498880084680884FF6FF712C
:1015C00001EA002043498880FFF762F84149898891
:1015D0000843404988800846808845F21031884297
:1015E00056D04FF45A40FFF74BF8FFF751F83949FE
:1015F00088804FF45B40FFF743F8FFF749F800E0BD
:1016000046E034498880084680884FF6FF7101EA39
:101610000020304988804FF45C40FFF731F8FFF735
:1016200037F82C49898808432A49888008468088E9
:10163000B0F5004F02D145F21050888025488088CF
:1016400045F21051884223D0A120FFF719F8FFF787
:101650001FF820498880FFF71BF81E49888008463C
:1016600080884FF6FF7101EA00201A498880FFF751
:101670000FF81849898808431649888008468088E9
:1016800045F26171884203D141F6631011498880A7
:101690001048818815A005F0E7F90E48808849F2C6
:1016A000413188427ED1CF20FEF7EAFF0020FEF7CD
:1016B000EBFFC120FEF7E8FF3020FEF7E5FFED204D
:1016C000FEF7DEFF6420FEF7DFFF0320FEF7DCFFFE
:1016D000122013E0380000200014014000180140DF
:1016E00000200140001C014000080140204C434400
:1016F0002049443A25780D0A00000000FEF7C4FF97
:101700008120FEF7C1FFE820FEF7BAFF8520FEF733
:10171000BBFF1020FEF7B8FF7A20FEF7B5FFCB2005
:10172000FEF7AEFF3920FEF7AFFF2C20FEF7ACFF2F
:101730000020FEF7A9FF3420FEF7A6FF0220FEF7E7
:10174000A3FFF720FEF79CFF2020FEF79DFFEA2075
:10175000FEF796FF0020FEF797FF0020FEF794FFAC
:10176000C020FEF78DFF1B20FEF78EFFC120FEF785
:1017700087FF0120FEF788FFC520FEF781FF30209C
:10178000FEF782FF3020FEF77FFFC720FEF778FFCD
:10179000B720FEF779FF3620FEF772FF4820FEF7EC
:1017A00073FF00E0ACE03A20FEF76AFF5520FEF739
:1017B0006BFFB120FEF764FF0020FEF765FF1A20E3
:1017C000FEF762FFB620FEF75BFF0A20FEF75CFF24
:1017D000A220FEF759FFF220FEF752FF0020FEF78D
:1017E00053FF2620FEF74CFF0120FEF74DFFE020BF
:1017F000FEF746FF0F20FEF747FF2A20FEF744FFC3
:101800002820FEF741FF0820FEF73EFF0E20FEF7DE
:101810003BFF0820FEF738FF5420FEF735FFA920D4
:10182000FEF732FF4320FEF72FFF0A20FEF72CFFC2
:101830000F20FEF729FF0020FEF726FF0020FEF70D
:1018400023FF0020FEF720FF0020FEF71DFFE12010
:10185000FEF716FF0020FEF717FF1520FEF714FF16
:101860001720FEF711FF0720FEF70EFF1120FEF7ED
:101870000BFF0620FEF708FF2B20FEF705FF562082
:10188000FEF702FF3C20FEF7FFFE0520FEF7FCFE00
:101890001020FEF7F9FE0F20FEF7F6FE3F20FEF7C0
:1018A000F3FE3F20FEF7F0FE0F20FEF7EDFE2B20AB
:1018B000FEF7E6FE0020FEF7E7FE0020FEF7E4FE5E
:1018C0000120FEF7E1FE3F20FEF7DEFE2A20FEF7B4
:1018D000D7FE0020FEF7D8FE0020FEF7D5FE002040
:1018E000FEF7D2FEEF20FEF7CFFE1120FEF7C8FE76
:1018F000782003F0AAFC2920FEF7C2FE03F01DB9F0
:10190000FE48808846F6040188427CD11120FEF70B
:10191000B7FE142003F099FCD020FEF7B1FE07209B
:10192000FEF7B2FE4220FEF7AFFE1D20FEF7ACFE32
:10193000D120FEF7A5FE0020FEF7A6FE1A20FEF736
:10194000A3FE0920FEF7A0FED220FEF799FE01209B
:10195000FEF79AFE2220FEF797FEC020FEF790FECB
:101960001020FEF791FE3B20FEF78EFE0020FEF7D2
:101970008BFE0220FEF788FE1120FEF785FEC520B3
:10198000FEF77EFE0320FEF77FFEC820FEF778FEFE
:101990000020FEF779FE2520FEF776FE2120FEF7D7
:1019A00073FE0520FEF770FE0020FEF76DFE0A2094
:1019B000FEF76AFE6520FEF767FE2520FEF764FE4F
:1019C0007720FEF761FE5020FEF75EFE0F20FEF747
:1019D0005BFE0020FEF758FEF820FEF751FE0120C6
:1019E000FEF752FEFE20FEF74BFE0020FEF74CFEF7
:1019F0000220FEF749FE2020FEF742FE3620FEF7C9
:101A00003FFE082000E02CE0FEF73EFE3A20FEF705
:101A100037FE5520FEF738FE2B20FEF731FE002062
:101A2000FEF732FE0020FEF72FFE0120FEF72CFE0F
:101A30003F20FEF729FE2A20FEF722FE0020FEF7B7
:101A400023FE0020FEF720FE0120FEF71DFEDF2012
:101A5000FEF71AFE782003F0F8FB2920FEF710FEAF
:101A60004CE7A648808845F21031884240F07C87D8
:101A7000ED20FEF705FE0120FEF706FEFE20FEF734
:101A800003FEEE20FEF7FCFDDE20FEF7FDFD21202B
:101A9000FEF7FAFDF120FEF7F3FD0120FEF7F4FD5D
:101AA000DF20FEF7EDFD1020FEF7EEFDC420FEF76F
:101AB000E7FD8F20FEF7E8FDC620FEF7E1FD0020E0
:101AC000FEF7E2FDE220FEF7DFFDE220FEF7DCFD9F
:101AD000E220FEF7D9FDBF20FEF7D2FDAA20FEF7D7
:101AE000D3FDB020FEF7CCFD0D20FEF7CDFD00208C
:101AF000FEF7CAFD0D20FEF7C7FD0020FEF7C4FD6E
:101B00001120FEF7C1FD0020FEF7BEFD1920FEF7F3
:101B1000BBFD0020FEF7B8FD2120FEF7B5FD00203B
:101B2000FEF7B2FD2D20FEF7AFFD0020FEF7ACFD65
:101B30003D20FEF7A9FD0020FEF7A6FD5D20FEF783
:101B4000A3FD0020FEF7A0FD5D20FEF79DFD002017
:101B5000FEF79AFDB120FEF793FD8020FEF794FD7D
:101B60000020FEF791FD8B20FEF78EFD0020FEF792
:101B70008BFD9620FEF788FD0020FEF785FDB22044
:101B8000FEF77EFD0020FEF77FFD0020FEF77CFDC6
:101B90000220FEF779FD0020FEF776FD0320FEF718
:101BA00073FD0020FEF770FDB320FEF769FD0020F5
:101BB000FEF76AFD0020FEF767FD0020FEF764FDDA
:101BC0000020FEF761FD0020FEF75EFD0020FEF71D
:101BD0005BFD0020FEF758FD0020FEF755FD0020BC
:101BE000FEF752FD0020FEF74FFD0020FEF74CFDF2
:101BF0000020FEF749FD0020FEF746FD0020FEF71D
:101C000043FD0020FEF740FD0020FEF73DFD0020D3
:101C1000FEF73AFD0020FEF737FD0020FEF734FD09
:101C20000020FEF731FD0020FEF72EFD0020FEF71C
:101C30002BFD0020FEF728FD0020FEF725FDB42037
:101C4000FEF71EFD8B20FEF71FFD0020FEF71CFD9A
:101C50009620FEF719FD0020FEF716FDA120FEF7E5
:101C600013FD0020FEF710FDB520FEF709FD022050
:101C7000FEF70AFD0020FEF707FD0320FEF704FD36
:101C80000020FEF701FD0420FEF7FEFC0020FEF719
:101C9000FBFCB620FEF7F4FC0020FEF7F5FC00206C
:101CA000FEF7F2FCB720FEF7EBFC0020FEF7ECFCA1
:101CB0000020FEF7E9FC3F20FEF7E6FC0020FEF7DF
:101CC000E3FC5E20FEF7E0FC0020FEF7DDFC642074
:101CD000FEF7DAFC0020FEF7D7FC8C20FEF7D4FCE0
:101CE0000020FEF7D1FCAC20FEF7CEFC0020FEF772
:101CF000CBFCDC20FEF7C8FC002001E0380000200F
:101D0000FEF7C2FC7020FEF7BFFC0020FEF7BCFC13
:101D10009020FEF7B9FC0020FEF7B6FCEB20FEF7A2
:101D2000B3FC0020FEF7B0FCDC20FEF7ADFC002089
:101D3000FEF7AAFCB820FEF7A3FC0020FEF7A4FCE7
:101D40000020FEF7A1FC0020FEF79EFC0020FEF71D
:101D50009BFC0020FEF798FC0020FEF795FC00207D
:101D6000FEF792FC0020FEF78FFCBA20FEF788FCFD
:101D70002420FEF789FC0020FEF786FC0020FEF7F9
:101D800083FC0020FEF780FCC120FEF779FC2020B8
:101D9000FEF77AFC0020FEF777FC5420FEF774FC77
:101DA0000020FEF771FCFF20FEF76EFC0020FEF71E
:101DB0006BFCC220FEF764FC0A20FEF765FC0020E5
:101DC000FEF762FC0420FEF75FFC0020FEF75CFCDF
:101DD000C320FEF755FC3C20FEF756FC0020FEF722
:101DE00053FC3A20FEF750FC0020FEF74DFC392052
:101DF000FEF74AFC0020FEF747FC3720FEF744FCC4
:101E00000020FEF741FC3C20FEF73EFC0020FEF7E0
:101E10003BFC3620FEF738FC0020FEF735FC322074
:101E2000FEF732FC0020FEF72FFC2F20FEF72CFCE3
:101E30000020FEF729FC2C20FEF726FC0020FEF7F0
:101E400023FC2920FEF720FC0020FEF71DFC2620A5
:101E5000FEF71AFC0020FEF717FC2420FEF714FC06
:101E60000020FEF711FC2420FEF70EFC0020FEF7F8
:101E70000BFC2320FEF708FC0020FEF705FC3C20AD
:101E8000FEF702FC0020FEF7FFFB3620FEF7FCFB0E
:101E90000020FEF7F9FB3220FEF7F6FB0020FEF7EC
:101EA000F3FB2F20FEF7F0FB0020FEF7EDFB2C20CC
:101EB000FEF7EAFB0020FEF7E7FB2920FEF7E4FB34
:101EC0000020FEF7E1FB2620FEF7DEFB0020FEF7F8
:101ED000DBFB2420FEF7D8FB0020FEF7D5FB2420F7
:101EE000FEF7D2FB0020FEF7CFFB2320FEF7CCFB52
:101EF0000020FEF7C9FBC420FEF7C2FB6220FEF7FC
:101F0000C3FB0020FEF7C0FB0520FEF7BDFB002051
:101F1000FEF7BAFB8420FEF7B7FB0020FEF7B4FB08
:101F2000F020FEF7B1FB0020FEF7AEFB1820FEF715
:101F3000ABFB0020FEF7A8FBA420FEF7A5FB0020CA
:101F4000FEF7A2FB1820FEF79FFB0020FEF79CFB8C
:101F50005020FEF799FB0020FEF796FB0C20FEF7C1
:101F600093FB0020FEF790FB1720FEF78DFB00206F
:101F7000FEF78AFB9520FEF787FB0020FEF784FB27
:101F8000F320FEF781FB0020FEF77EFBE620FEF744
:101F90007BFB0020FEF778FBC520FEF771FB3220AB
:101FA000FEF772FB0020FEF76FFB4420FEF76CFB90
:101FB0000020FEF769FB6520FEF766FB0020FEF7B8
:101FC00063FB7620FEF760FB0020FEF75DFB8820B8
:101FD000FEF75AFB0020FEF757FBC620FEF750FB2A
:101FE0002020FEF751FB0020FEF74EFB1720FEF7E6
:101FF0004BFB0020FEF748FB0120FEF745FB0020CD
:10200000FEF742FBC720FEF73BFB0020FEF73CFB40
:102010000020FEF739FB0020FEF736FB0020FEF71C
:1020200033FBC820FEF72CFB0020FEF72DFB002021
:10203000FEF72AFB0020FEF727FB0020FEF724FB1B
:10204000C920FEF71DFB0020FEF71EFB0020FEF757
:102050001BFB0020FEF718FB0020FEF715FB0020FD
:10206000FEF712FB0020FEF70FFB0020FEF70CFB33
:102070000020FEF709FB0020FEF706FB0020FEF71C
:1020800003FB0020FEF700FB0020FEF7FDFA002016
:10209000FEF7FAFA0020FEF7F7FA0020FEF7F4FA4E
:1020A0000020FEF7F1FAE020FEF7EAFA1620FEF72C
:1020B000EBFA0020FEF7E8FA1C20FEF7E5FA002014
:1020C000FEF7E2FA2120FEF7DFFA0020FEF7DCFA45
:1020D0003620FEF7D9FA0020FEF7D6FA4620FEF7A2
:1020E000D3FA0020FEF7D0FA5220FEF7CDFA0020F6
:1020F000FEF7CAFA6420FEF7C7FA0020FEF7C4FA1A
:102100007A20FEF7C1FA0020FEF7BEFA8B20FEF718
:10211000BBFA0020FEF7B8FA9920FEF7B5FA0020C6
:10212000FEF7B2FAA820FEF7AFFA0020FEF7ACFAED
:10213000B920FEF7A9FA0020FEF7A6FAC420FEF7A0
:10214000A3FA0020FEF7A0FACA20FEF79DFA0020AD
:10215000FEF79AFAD220FEF797FA0020FEF794FADB
:10216000D920FEF791FA0020FEF78EFAE020FEF764
:102170008BFA0020FEF788FAF320FEF785FA00209C
:10218000FEF782FAE120FEF77BFA1620FEF77CFAD2
:102190000020FEF779FA1C20FEF776FA0020FEF701
:1021A00073FA2220FEF770FA0020FEF76DFA36204F
:1021B000FEF76AFA0020FEF767FA4520FEF764FA98
:1021C0000020FEF761FA5220FEF75EFA0020FEF7CB
:1021D0005BFA6420FEF758FA0020FEF755FA7A20E1
:1021E000FEF752FA0020FEF74FFA8B20FEF74CFA6A
:1021F0000020FEF749FA9920FEF746FA0020FEF784
:1022000043FAA820FEF740FA0020FEF73DFAB92075
:10221000FEF73AFA0020FEF737FAC420FEF734FA48
:102220000020FEF731FACA20FEF72EFA0020FEF752
:102230002BFAD220FEF728FA0020FEF725FAD82044
:10224000FEF722FA0020FEF71FFAE020FEF71CFA44
:102250000020FEF719FAF320FEF716FA0020FEF729
:1022600013FAE220FEF70CFA0520FEF70DFA002023
:10227000FEF70AFA0B20FEF707FA0020FEF704FA31
:102280001B20FEF701FA0020FEF7FEF93420FEF7CE
:10229000FBF90020FEF7F8F94420FEF7F5F90020DD
:1022A000FEF7F2F94F20FEF7EFF90020FEF7ECF908
:1022B0006120FEF7E9F90020FEF7E6F97920FEF744
:1022C000E3F90020FEF7E0F98820FEF7DDF90020B1
:1022D000FEF7DAF99720FEF7D7F90020FEF7D4F9D8
:1022E000A620FEF7D1F90020FEF7CEF9B720FEF7C1
:1022F000CBF90020FEF7C8F9C220FEF7C5F900208F
:10230000FEF7C2F9C720FEF7BFF90020FEF7BCF9BF
:10231000D120FEF7B9F90020FEF7B6F9D620FEF776
:10232000B3F90020FEF7B0F9DD20FEF7ADF900208B
:10233000FEF7AAF9F320FEF7A7F90020FEF7A4F9AB
:10234000E320FEF79DF90520FEF79EF90020FEF739
:102350009BF90A20FEF798F90020FEF795F91C205A
:10236000FEF792F90020FEF78FF93320FEF78CF983
:102370000020FEF789F94420FEF786F90020FEF7D9
:1023800083F95020FEF780F90020FEF77DF96220E6
:10239000FEF77AF90020FEF777F97820FEF774F956
:1023A0000020FEF771F98820FEF76EF90020FEF795
:1023B0006BF99720FEF768F90020FEF765F9A62073
:1023C000FEF762F90020FEF75FF9B720FEF75CF92F
:1023D0000020FEF759F9C220FEF756F90020FEF75B
:1023E00053F9C720FEF750F90020FEF74DF9D12030
:1023F000FEF74AF90020FEF747F9D520FEF744F929
:102400000020FEF741F9DD20FEF73EF90020FEF73F
:102410003BF9F320FEF738F90020FEF735F9E42008
:10242000FEF72EF90120FEF72FF90020FEF72CF918
:102430000120FEF729F90020FEF726F90220FEF719
:1024400023F90020FEF720F92A20FEF71DF90020CD
:10245000FEF71AF93C20FEF717F90020FEF714F9F1
:102460004B20FEF711F90020FEF70EF95D20FEF774
:102470000BF90020FEF708F97420FEF705F900209B
:10248000FEF702F98420FEF7FFF80020FEF7FCF8C3
:102490009320FEF7F9F80020FEF7F6F8A220FEF7E9
:1024A000F3F80020FEF7F0F8B320FEF7EDF8002077
:1024B000FEF7EAF8BE20FEF7E7F80020FEF7E4F8A2
:1024C000C420FEF7E1F80020FEF7DEF8CD20FEF78D
:1024D000DBF80020FEF7D8F8D320FEF7D5F800206F
:1024E000FEF7D2F8DD20FEF7CFF80020FEF7CCF89B
:1024F000F320FEF7C9F80020FEF7C6F8E520FEF746
:10250000BFF80020FEF7C0F80020FEF7BDF800205D
:10251000FEF7BAF80020FEF7B7F80220FEF7B4F88D
:102520000020FEF7B1F82920FEF7AEF80020FEF7F4
:10253000ABF83C20FEF7A8F80020FEF7A5F84B20EA
:10254000FEF7A2F80020FEF79FF85D20FEF79CF84A
:102550000020FEF799F87420FEF796F80020FEF7A9
:1025600093F88420FEF790F80020FEF78DF8932072
:10257000FEF78AF80020FEF787F8A220FEF784F81D
:102580000020FEF781F8B320FEF77EF80020FEF76A
:102590007BF8BE20FEF778F80020FEF775F8C4201F
:1025A000FEF772F80020FEF76FF8CD20FEF76CF80A
:1025B0000020FEF769F8D320FEF766F80020FEF74A
:1025C00063F8DC20FEF760F80020FEF75DF8F320EA
:1025D000FEF75AF80020FEF757F8E620FEF750F80D
:1025E0001120FEF751F80020FEF74EF83420FEF7D8
:1025F0004BF80020FEF748F85620FEF745F800207B
:10260000FEF742F87620FEF73FF80020FEF73CF890
:102610007720FEF739F80020FEF736F86620FEF73F
:1026200033F80020FEF730F88820FEF72DF8002060
:10263000FEF72AF89920FEF727F80020FEF724F885
:10264000BB20FEF721F80020FEF71EF89920FEF7C8
:102650001BF80020FEF718F86620FEF715F800209A
:10266000FEF712F85520FEF70FF80020FEF70CF8E1
:102670005520FEF709F80020FEF706F84520FEF782
:1026800003F80020FEF700F84320FDF7FDFF0020CF
:10269000FDF7FAFF4420FDF7F7FF0020FDF7F4FFF8
:1026A000E720FDF7EDFF3220FDF7EEFF0020FDF7FC
:1026B000EBFF5520FDF7E8FF0020FDF7E5FF762052
:1026C000FDF7E2FF0020FDF7DFFF6620FDF7DCFFEE
:1026D0000020FDF7D9FF6720FDF7D6FF0020FDF7AA
:1026E000D3FF6720FDF7D0FF0020FDF7CDFF872047
:1026F000FDF7CAFF0020FDF7C7FF9920FDF7C4FFD3
:102700000020FDF7C1FFBB20FDF7BEFF0020FDF755
:10271000BBFF9920FDF7B8FF0020FDF7B5FF77203C
:10272000FDF7B2FF0020FDF7AFFF4420FDF7ACFF3F
:102730000020FDF7A9FF5620FDF7A6FF0020FDF7BA
:10274000A3FF2320FDF7A0FF0020FDF79DFF33200E
:10275000FDF79AFF0020FDF797FF4520FDF794FF56
:102760000020FDF791FFE820FDF78AFF0020FDF72C
:102770008BFF0020FDF788FF9920FDF785FF0020E3
:10278000FDF782FF8720FDF77FFF0020FDF77CFF2C
:102790008820FDF779FF0020FDF776FF7720FDF711
:1027A00073FF0020FDF770FF6620FDF76DFF00202E
:1027B000FDF76AFF8820FDF767FF0020FDF764FF43
:1027C000AA20FDF761FF0020FDF75EFFBB20FDF7AB
:1027D0005BFF0020FDF758FF9920FDF755FF002013
:1027E000FDF752FF6620FDF74FFF0020FDF74CFF7D
:1027F0005520FDF749FF0020FDF746FF5520FDF766
:1028000043FF0020FDF740FF4420FDF73DFF00207F
:10281000FDF73AFF4420FDF737FF0020FDF734FFB6
:102820005520FDF731FF0020FDF72EFFE920FDF7D1
:1028300027FFAA20FDF728FF0020FDF725FF002035
:10284000FDF722FF0020FDF71FFF0020FDF718FF16
:10285000AA20FDF719FFCF20FDF712FF0020FDF79A
:1028600013FF0020FDF710FF0020FDF70DFF0020F3
:10287000FDF70AFF0020FDF707FF0020FDF704FF2A
:102880000020FDF701FF0020FDF7FEFE0020FDF710
:10289000FBFE0020FDF7F8FE0020FDF7F5FE00200E
:1028A000FDF7F2FE0020FDF7EFFE0020FDF7ECFE45
:1028B0000020FDF7E9FE0020FDF7E6FE0020FDF711
:1028C000E3FEF020FDF7DCFE0020FDF7DDFE5020EA
:1028D000FDF7DAFE0020FDF7D7FE0020FDF7D4FE5D
:1028E0000020FDF7D1FEF320FDF7CAFE0020FDF722
:1028F000CBFEF920FDF7C4FE0620FDF7C5FE102033
:10290000FDF7C2FE2920FDF7BFFE0020FDF7BCFE4B
:102910003A20FDF7B5FE5520FDF7B6FE1120FDF774
:10292000AFFE642002F091FC2920FDF7A9FE3520BE
:10293000FDF7A6FE0020FDF7A7FE5120FDF7A0FE43
:10294000FF20FDF7A1FE5320FDF79AFE2C20FDF796
:102950009BFE5520FDF794FE8220FDF795FE2C206E
:10296000FDF78EFE02F0E9B8FE48808845F210516E
:1029700088427DD155214FF47040FDF791FEAA2188
:102980004FF20100FDF78CFE52214FF20200FDF7DD
:1029900087FE08214FF20300FDF782FE01214FF26E
:1029A0000400FDF77DFE0D214FF43040FDF778FE69
:1029B0000D214BF20100FDF773FE0D214BF20200D9
:1029C000FDF76EFE34214FF43640FDF769FE3421E9
:1029D0004BF20160FDF764FE34214BF20260FDF71B
:1029E0005FFE0D214FF43140FDF75AFE0D214BF2F1
:1029F0000110FDF755FE0D214BF20210FDF750FEC0
:102A000034214FF43740FDF74BFE34214BF2017077
:102A1000FDF746FE34214BF20270FDF741FE002126
:102A20004FF43240FDF73CFE00214BF20120FDF750
:102A300037FE00214BF20220FDF732FE24214FF435
:102A40003840FDF72DFE24214BF60100FDF728FE4E
:102A500024214BF60200FDF723FE01214FF43F40F5
:102A6000FDF71EFE0F214FF43340FDF719FE00E085
:102A7000FDE30F214BF20130FDF712FE0F214BF267
:102A80000230FDF70DFE34214FF43940FDF708FE0A
:102A900034214BF60110FDF703FE34214BF60210F2
:102AA000FDF7FEFD08214FF43540FDF7F9FD082143
:102AB0004BF20150FDF7F4FD08214BF20250FDF7F7
:102AC000EFFD03214FF44240FDF7EAFD24214FF4CE
:102AD0003A40FDF7E5FD24214BF60120FDF7E0FD2E
:102AE00024214BF60220FDF7DBFD00214FF43C4092
:102AF000FDF7D6FD78214BF60140FDF7D1FD002111
:102B00004BF60240FDF7CCFD00214FF43D40FDF7B0
:102B1000C7FD78214BF60150FDF7C2FD00214BF6B1
:102B20000250FDF7BDFD00214FF43E40FDF7B8FD1A
:102B300064214BF60160FDF7B3FD00214FF45140D5
:102B4000FDF7AEFD33214DF20110FDF7A9FD002187
:102B50004DF20210FDF7A4FD34214DF20310FDF7F4
:102B60009FFD00214DF20410FDF79AFD3A214DF230
:102B70000510FDF795FD00214DF20610FDF790FDC3
:102B80004A214DF20710FDF78BFD00214DF2081090
:102B9000FDF786FD5C214DF20910FDF781FD002156
:102BA0004DF20A10FDF77CFD81214DF20B10FDF76F
:102BB00077FD00214DF20C10FDF772FDA6214DF2BC
:102BC0000D10FDF76DFD00214DF20E10FDF768FDB3
:102BD000E5214DF20F10FDF763FD01214DF21010BC
:102BE000FDF75EFD13214DF21110FDF759FD012196
:102BF0004DF21210FDF754FD54214DF21310FDF764
:102C00004FFD01214DF21410FDF74AFD82214DF2D6
:102C10001510FDF745FD01214DF21610FDF740FDA1
:102C2000CA214DF21710FDF73BFD02214DF218109D
:102C3000FDF736FD00214DF21910FDF731FD02219F
:102C40004DF21A10FDF72CFD01214DF21B10FDF77E
:102C500027FD02214DF21C10FDF722FD34214DF21B
:102C60001D10FDF71DFD02214DF21E10FDF718FD90
:102C700067214DF21F10FDF713FD02214DF22010C8
:102C8000FDF70EFD84214DF22110FDF709FD022113
:102C90004DF22210FDF704FDA4214DF22310FDF7A3
:102CA000FFFC02214DF22410FDF7FAFCB7214DF292
:102CB0002510FDF7F5FC02214DF22610FDF7F0FC82
:102CC000CF214DF22710FDF7EBFC02214DF2281029
:102CD000FDF7E6FCDE214DF22910FDF7E1FC0221B3
:102CE0004DF22A10FDF7DCFCF2214DF22B10FDF71E
:102CF000D7FC02214DF22C10FDF7D2FCFE214DF243
:102D00002D10FDF7CDFC03214DF22E10FDF7C8FC70
:102D100010214DF22F10FDF7C3FC03214DF23010AE
:102D2000FDF7BEFC33214DF23110FDF7B9FC032154
:102D30004DF23210FDF7B4FC6D214DF23310FDF76A
:102D4000AFFC00214FF45240FDF7AAFC33214DF2B5
:102D50000120FDF7A5FC00214DF20220FDF7A0FCAB
:102D6000342101E0380000204DF20320FDF798FCEB
:102D700000214DF20420FDF793FC3A214DF205208D
:102D8000FDF78EFC00214DF20620FDF789FC4A215B
:102D90004DF20720FDF784FC00214DF20820FDF7DD
:102DA0007FFC5C214DF20920FDF77AFC00214DF2F9
:102DB0000A20FDF775FC81214DF20B20FDF770FC18
:102DC00000214DF20C20FDF76BFCA6214DF20D20E9
:102DD000FDF766FC00214DF20E20FDF761FCE521B8
:102DE0004DF20F20FDF75CFC01214DF21020FDF7A4
:102DF00057FC13214DF21120FDF752FC01214DF239
:102E00001220FDF74DFC54214DF21320FDF748FC34
:102E100001214DF21420FDF743FC82214DF21520D3
:102E2000FDF73EFC01214DF21620FDF739FCCA21C9
:102E30004DF21720FDF734FC02214DF21820FDF76A
:102E40002FFC00214DF21920FDF72AFC02214DF242
:102E50001A20FDF725FC01214DF21B20FDF720FC77
:102E600002214DF21C20FDF71BFC34214DF21D20E8
:102E7000FDF716FC02214DF21E20FDF711FC672123
:102E80004DF21F20FDF70CFC02214DF22020FDF732
:102E900007FC84214DF22120FDF702FC02214DF2B6
:102EA0002220FDF7FDFBA4214DF22320FDF7F8FBC6
:102EB00002214DF22420FDF7F3FBB7214DF225202E
:102EC000FDF7EEFB02214DF22620FDF7E9FBCF21B5
:102ED0004DF22720FDF7E4FB02214DF22820FDF7FB
:102EE000DFFBDE214DF22920FDF7DAFB02214DF256
:102EF0002A20FDF7D5FBF2214DF22B20FDF7D0FB68
:102F000002214DF22C20FDF7CBFBFE214DF22D20AE
:102F1000FDF7C6FB03214DF22E20FDF7C1FB10216A
:102F20004DF22F20FDF7BCFB03214DF23020FDF7C1
:102F3000B7FB33214DF23120FDF7B2FB03214DF2F7
:102F40003220FDF7ADFB6D214DF23320FDF7A8FBDC
:102F500000214FF45340FDF7A3FB33214DF2013024
:102F6000FDF79EFB00214DF20230FDF799FB342165
:102F70004DF20330FDF794FB00214DF20430FDF7D4
:102F80008FFB3A214DF20530FDF78AFB00214DF20F
:102F90000630FDF785FB4A214DF20730FDF780FB37
:102FA00000214DF20830FDF77BFB5C214DF209302A
:102FB000FDF776FB00214DF20A30FDF771FB812110
:102FC0004DF20B30FDF76CFB00214DF20C30FDF79C
:102FD00067FBA6214DF20D30FDF762FB00214DF29B
:102FE0000E30FDF75DFBE5214DF20F30FDF758FB8C
:102FF00001214DF21030FDF753FB13214DF211303A
:10300000FDF74EFB01214DF21230FDF749FB542133
:103010004DF21330FDF744FB01214DF21430FDF762
:103020003FFB82214DF21530FDF73AFB01214DF2B5
:103030001630FDF735FBCA214DF21730FDF730FB96
:1030400002214DF21830FDF72BFB00214DF2193013
:10305000FDF726FB02214DF21A30FDF721FB01217D
:103060004DF21B30FDF71CFB02214DF21C30FDF729
:1030700017FB34214DF21D30FDF712FB02214DF2FA
:103080001E30FDF70DFB67214DF21F30FDF708FBE9
:1030900002214DF22030FDF703FB84214DF2213057
:1030A000FDF7FEFA02214DF22230FDF7F9FAA421D4
:1030B0004DF22330FDF7F4FA02214DF22430FDF7F2
:1030C000EFFAB7214DF22530FDF7EAFA02214DF271
:1030D0002630FDF7E5FACF214DF22730FDF7E0FA73
:1030E00002214DF22830FDF7DBFADE214DF22930C6
:1030F000FDF7D6FA02214DF22A30FDF7D1FAF2217E
:103100004DF22B30FDF7CCFA02214DF22C30FDF7B9
:10311000C7FAFE214DF22D30FDF7C2FA03214DF220
:103120002E30FDF7BDFA10214DF22F30FDF7B8FA21
:1031300003214DF23030FDF7B3FA33214DF2313037
:10314000FDF7AEFA03214DF23230FDF7A9FA6D21F9
:103150004DF23330FDF7A4FA00214FF45440FDF74F
:103160009FFA33214DF20140FDF79AFA00214DF20A
:103170000240FDF795FA34214DF20340FDF790FA35
:1031800000214DF20440FDF78BFA3A214DF2054043
:10319000FDF786FA00214DF20640FDF781FA4A213B
:1031A0004DF20740FDF77CFA00214DF20840FDF793
:1031B00077FA5C214DF20940FDF772FA00214DF2D9
:1031C0000A40FDF76DFA81214DF20B40FDF768FAD8
:1031D00000214DF20C40FDF763FAA6214DF20D409F
:1031E000FDF75EFA00214DF20E40FDF759FAE52198
:1031F0004DF20F40FDF754FA01214DF21040FDF75A
:103200004FFA13214DF21140FDF74AFA01214DF218
:103210001240FDF745FA54214DF21340FDF740FAF4
:1032200001214DF21440FDF73BFA82214DF2154089
:10323000FDF736FA01214DF21640FDF731FACA21A9
:103240004DF21740FDF72CFA02214DF21840FDF720
:1032500027FA00214DF21940FDF722FA02214DF222
:103260001A40FDF71DFA01214DF21B4000E006E374
:10327000FDF716FA02214DF21C40FDF711FA342138
:103280004DF21D40FDF70CFA02214DF21E40FDF7F4
:1032900007FA67214DF21F40FDF702FA02214DF2B5
:1032A0002040FDF7FDF984214DF22140FDF7F8F9AA
:1032B00002214DF22240FDF7F3F9A4214DF2234003
:1032C000FDF7EEF902214DF22440FDF7E9F9B721AF
:1032D0004DF22540FDF7E4F902214DF22640FDF7BD
:1032E000DFF9CF214DF22740FDF7DAF902214DF247
:1032F0002840FDF7D5F9DE214DF22940FDF7D0F940
:1033000002214DF22A40FDF7CBF9F2214DF22B407C
:10331000FDF7C6F902214DF22C40FDF7C1F9FE215F
:103320004DF22D40FDF7BCF903214DF22E40FDF783
:10333000B7F910214DF22F40FDF7B2F903214DF2FC
:103340003040FDF7ADF933214DF23140FDF7A8F9DA
:1033500003214DF23240FDF7A3F96D214DF23340C8
:10336000FDF79EF900214FF45540FDF799F93321FF
:103370004DF20150FDF794F900214DF20250FDF796
:103380008FF934214DF20350FDF78AF900214DF2F7
:103390000450FDF785F93A214DF20550FDF780F90B
:1033A00000214DF20650FDF77BF94A214DF20750FE
:1033B000FDF776F900214DF20850FDF771F95C2117
:1033C0004DF20950FDF76CF900214DF20A50FDF75E
:1033D00067F981214DF20B50FDF762F900214DF2A2
:1033E0000C50FDF75DF9A6214DF20D50FDF758F98F
:1033F00000214DF20E50FDF753F9E5214DF20F502B
:10340000FDF74EF901214DF21050FDF749F9132156
:103410004DF21150FDF744F901214DF21250FDF724
:103420003FF954214DF21350FDF73AF901214DF2C5
:103430001450FDF735F982214DF21550FDF730F9A2
:1034400001214DF21650FDF72BF9CA214DF217500C
:10345000FDF726F902214DF21850FDF721F9002160
:103460004DF21950FDF71CF902214DF21A50FDF7EB
:1034700017F901214DF21B50FDF712F902214DF20F
:103480001C50FDF70DF934214DF21D50FDF708F9E0
:1034900002214DF21E50FDF703F967214DF21F5036
:1034A000FDF7FEF802214DF22050FDF7F9F88421D6
:1034B0004DF22150FDF7F4F802214DF22250FDF7B4
:1034C000EFF8A4214DF22350FDF7EAF802214DF266
:1034D0002450FDF7E5F8B7214DF22550FDF7E0F84F
:1034E00002214DF22650FDF7DBF8CF214DF2275097
:1034F000FDF7D6F802214DF22850FDF7D1F8DE2174
:103500004DF22950FDF7CCF802214DF22A50FDF77B
:10351000C7F8F2214DF22B50FDF7C2F802214DF20F
:103520002C50FDF7BDF8FE214DF22D50FDF7B8F8F7
:1035300003214DF22E50FDF7B3F810214DF22F501C
:10354000FDF7AEF803214DF23050FDF7A9F8332115
:103550004DF23150FDF7A4F803214DF23250FDF742
:103560009FF86D214DF23350FDF79AF800214FF48A
:103570005640FDF795F833214DF20160FDF790F8C4
:1035800000214DF20260FDF78BF834214DF203600B
:10359000FDF786F800214DF20460FDF781F83A212D
:1035A0004DF20560FDF77CF800214DF20660FDF755
:1035B00077F84A214DF20760FDF772F800214DF2CD
:1035C0000860FDF76DF85C214DF20960FDF768F8C1
:1035D00000214DF20A60FDF763F881214DF20B6086
:1035E000FDF75EF800214DF20C60FDF759F8A621B9
:1035F0004DF20D60FDF754F800214DF20E60FDF71D
:103600004FF8E5214DF20F60FDF74AF801214DF228
:103610001060FDF745F813214DF21160FDF740F8F9
:1036200001214DF21260FDF73BF854214DF2136079
:10363000FDF736F801214DF21460FDF731F88221D3
:103640004DF21560FDF72CF801214DF21660FDF7E3
:1036500027F8CA214DF21760FDF722F802214DF23A
:103660001860FDF71DF800214DF21960FDF718F8FC
:1036700002214DF21A60FDF713F801214DF21B6093
:10368000FDF70EF802214DF21C60FDF709F8342118
:103690004DF21D60FDF704F802214DF21E60FCF7AB
:1036A000FFFF67214DF21F60FCF7FAFF02214DF288
:1036B0002060FCF7F5FF84214DF22160FCF7F0FF5C
:1036C00002214DF22260FCF7EBFFA4214DF22360B2
:1036D000FCF7E6FF02214DF22460FCF7E1FFB72181
:1036E0004DF22560FCF7DCFF02214DF22660FCF76D
:1036F000D7FFCF214DF22760FCF7D2FF02214DF218
:103700002860FCF7CDFFDE214DF22960FCF7C8FFF1
:1037100002214DF22A60FCF7C3FFF2214DF22B602B
:10372000FCF7BEFF02214DF22C60FCF7B9FFFE2131
:103730004DF22D60FCF7B4FF03214DF22E60FCF733
:10374000AFFF10214DF22F60FCF7AAFF03214DF2CD
:103750003060FCF7A5FF33214DF23160FCF7A0FF8C
:1037600003214DF23260FCF79BFF6D214DF2336077
:10377000FCF796FF55214FF47040FCF791FFAA210A
:103780004FF20100FCF78CFF52214FF20200FCF7D0
:1037900087FF08214FF20300FCF782FF00214FF260
:1037A0000400FCF77DFFCC214FF43140FCF778FF9B
:1037B00000214BF20110FCF773FF05214FF4364056
:1037C000FCF76EFF70214FF43740FCF769FF702162
:1037D0004BF20170FCF764FF01214FF43840FCF715
:1037E0005FFF03214BF60100FCF75AFF03214BF664
:1037F0000200FCF755FF03214BF60300FCF750FFD6
:1038000002214FF43C40FCF74BFF00214BF60140F6
:10381000FCF746FF00214BF60240FCF741FFD021A8
:103820004FF44940FCF73CFF02214CF60110FCF735
:1038300037FF50214CF60210FCF732FF50214CF6B6
:103840000310FCF72DFF50214CF60410FCF728FF65
:1038500000214FF45450FCF723FF55214FF46850DA
:10386000FCF71EFF4FF48850FCF70AFF782001F0A8
:10387000C8FC4FF42450FCF703FF01F05EB9FE488A
:10388000808849F2253188427ED147F6F001E52053
:10389000FCF706FF4FF480710120FCF701FF4FF4A5
:1038A000E0610220FCF7FCFE41F230010320FCF74E
:1038B000F7FE00210420FCF7F3FE40F2022108206D
:1038C000FCF7EEFE00210920FCF7EAFE00210A20A9
:1038D000FCF7E6FE00210C20FCF7E2FE00210D20A3
:1038E000FCF7DEFE00210F20FCF7DAFE002110209D
:1038F000FCF7D6FE07211120FCF7D2FE0021122092
:10390000FCF7CEFE00211320FCF7CAFE00210720A1
:10391000FCF7C6FE41F290611020FCF7C1FE40F2B8
:1039200027211120FCF7BCFE9D211220FCF7B8FED8
:103930004FF4C8511320FCF7B3FE25212920FCF7D2
:10394000AFFE0D212B20FCF7ABFE07213020FCF74A
:10395000A7FE40F203313120FCF7A2FE0321322002
:10396000FCF79EFE40F206213520FCF799FE082167
:103970003620FCF795FE40F206413720FCF790FE1A
:103980004FF44171382000E057E0FCF789FE072131
:103990003920FCF785FE40F202613C20FCF780FEF6
:1039A00008213D20FCF77CFE00215020FCF778FE2A
:1039B000EF215120FCF774FE00215220FCF770FE2D
:1039C00040F23F115320FCF76BFE4FF4274160207B
:1039D000FCF766FE01216120FCF762FE00216A20EF
:1039E000FCF75EFE00218020FCF75AFE00218120BA
:1039F000FCF756FE00218220FCF752FE00218320B6
:103A0000FCF74EFE00218420FCF74AFE00218520B1
:103A1000FCF746FE10219020FCF742FE4FF4C061F7
:103A20009220FCF73DFE40F233110720FCF738FEF0
:103A300022210020FCF734FE1FE78F48808849F2DE
:103A4000283188427ED141F28F01EC20FCF728FE1C
:103A500041F23421EF20FCF723FE4FF48071012066
:103A6000FCF71EFE4FF4E0610220FCF719FE41F264
:103A700030010320FCF714FE00210420FCF710FEA7
:103A800040F202210820FCF70BFE00210920FCF780
:103A900007FE00210A20FCF703FE01210C20FCF7A1
:103AA000FFFD00210D20FCF7FBFD00210F20FCF79E
:103AB000F7FD00211020FCF7F3FD07211120FCF792
:103AC000EFFD00211220FCF7EBFD00211320FCF795
:103AD000E7FD01210720FCF7E3FD322001F0B5FBF3
:103AE00041F290411020FCF7DBFD40F2272111202C
:103AF000FCF7D6FD322001F0A8FB8A211220FCF74A
:103B0000CFFD322001F0A1FB4FF4D0511320FCF780
:103B1000C7FD06212920FCF7C3FD0D212B20FCF752
:103B2000BFFD322001F091FB00212020FCF7B8FD01
:103B300000212120FCF7B4FD322001F086FB00219A
:103B4000302000E074E0FCF7ABFD40F2046131206E
:103B5000FCF7A6FD40F205313220FCF7A1FD002163
:103B60003520FCF79DFD40F609413620FCF798FD15
:103B70004FF401713720FCF793FD40F201313820FA
:103B8000FCF78EFD40F207713920FCF789FD00211A
:103B90003C20FCF785FD40F60A213D20FCF780FD26
:103BA000322001F052FB00215020FCF779FDEF217B
:103BB0005120FCF775FD00215220FCF771FD40F209
:103BC0003F115320FCF76CFD4FF427416020FCF7B8
:103BD00067FD01216120FCF763FD00216A20FCF7ED
:103BE0005FFD00218020FCF75BFD00218120FCF7B8
:103BF00057FD00218220FCF753FD00218320FCF7B4
:103C00004FFD00218420FCF74BFD00218520FCF7AF
:103C100047FD10219020FCF743FD4FF4C061922036
:103C2000FCF73EFD40F233110720FCF739FD24E696
:103C30001148808849F2203188427DD10021084610
:103C4000FCF72EFD4FF480710120FCF729FD4FF4A5
:103C5000E0610220FCF724FD41F230010320FCF773
:103C60001FFD00210420FCF71BFD40F2022108206B
:103C7000FCF716FD002101E0380000200920FCF7C8
:103C80000FFD00210A20FCF70BFD01210C20FCF7A1
:103C900007FD00210D20FCF703FD00210F20FCF79C
:103CA000FFFC322001F0D1FA40F201110720FCF7AD
:103CB000F7FC322001F0C9FA4FF486511020FCF7CE
:103CC000EFFC07211120FCF7EBFC4FF48871122068
:103CD000FCF7E6FC4FF430611320FCF7E1FC002117
:103CE0002920FCF7DDFC44F210012B20FCF7D8FC66
:103CF00000215020FCF7D4FCEF215120FCF7D0FC30
:103D000000215220FCF7CCFC40F23F115320FCF77D
:103D1000C7FC4FF41C516020FCF7C2FC012161205C
:103D2000FCF7BEFC00216A20FCF7BAFC00218020D1
:103D3000FCF7B6FC002100E031E08120FCF7B0FC8C
:103D400000218220FCF7ACFC00218320FCF7A8FCBA
:103D500000218420FCF7A4FC00218520FCF7A0FCB6
:103D600010219020FCF79CFC00219220FCF798FC8D
:103D700001219320FCF794FC4FF488719520FCF707
:103D80008FFC00219720FCF78BFC00219820FCF78A
:103D900087FC40F273110720FCF782FC6DE5FE48BA
:103DA000808849F2313188427DD141F21401E72007
:103DB000FCF776FC4FF480710120FCF771FC4FF4A6
:103DC00000710220FCF76CFC41F238010320FCF783
:103DD00067FC40F202210820FCF762FC0021092068
:103DE000FCF75EFC00210A20FCF75AFC00210C20A5
:103DF000FCF756FC00210D20FCF752FC00210F209F
:103E0000FCF74EFC00211020FCF74AFC0721112092
:103E1000FCF746FC00211220FCF742FC0021132095
:103E2000FCF73EFCC82001F010FA41F2906110202E
:103E3000FCF736FC40F227211120FCF731FC322040
:103E400001F003FA0C211220FCF72AFC322001F0C9
:103E5000FCF94FF400611320FCF722FC112129200A
:103E6000FCF71EFC0B212B20FCF71AFC322001F082
:103E7000ECF900212020FCF713FC40F23F11212037
:103E8000FCF70EFC00213020FCF70AFC4FF4837194
:103E90003120FCF705FC00213220FCF701FC4FF437
:103EA0000171352000E064E0FCF7FAFB41F20A61A1
:103EB0003620FCF7F5FB40F207713720FCF7F0FBEA
:103EC0004FF483713820FCF7EBFB40F20771392087
:103ED000FCF7E6FB40F202413C20FCF7E1FB40F638
:103EE0000F413D20FCF7DCFB00215020FCF7D8FB04
:103EF000EF215120FCF7D4FB00215220FCF7D0FB2E
:103F000040F23F115320FCF7CBFB4FF41C516020D3
:103F1000FCF7C6FB01216120FCF7C2FB00216A20EF
:103F2000FCF7BEFB00218020FCF7BAFB00218120BA
:103F3000FCF7B6FB00218220FCF7B2FB00218320B6
:103F4000FCF7AEFB00218420FCF7AAFB00218520B2
:103F5000FCF7A6FB10219020FCF7A2FB4FF4C061F8
:103F60009220FCF79DFB40F233110720FCF798FBF1
:103F700083E48948808845F2084188427ED14FF425
:103F800080710120FCF78CFB4FF4E0610220FCF70C
:103F900087FB41F230010320FCF782FB0021042063
:103FA000FCF77EFB40F207210820FCF779FB00219B
:103FB0000920FCF775FB00210A20FCF771FB0021AA
:103FC0000C20FCF76DFB00210D20FCF769FB0021A4
:103FD0000F20FCF765FB142001F037F941F2B061C6
:103FE0001020FCF75DFB01211120FCF759FB01219A
:103FF0001720FCF755FB4FF49C711220FCF750FB87
:104000004FF400611320FCF74BFB09212920FCF73A
:1040100047FB09212A20FCF743FB0021A420FCF7E1
:104020003FFB00215020FCF73BFBEF215120FCF728
:1040300037FB00215220FCF733FB40F23F115320A5
:10404000FCF72EFB4FF41C516020FCF729FB0121EB
:104050006120FCF725FB00216A20FCF721FB0021F1
:104060008020FCF71DFB00218120FCF719FB0021BB
:104070008220FCF715FB0021832000E023E0FCF701
:104080000FFB00218420FCF70BFB00218520FCF7AF
:1040900007FB13219020FCF703FB00219220FCF783
:1040A000FFFA03219320FCF7FBFA4FF48871952067
:1040B000FCF7F6FA40F273110720FCF7F1FA322010
:1040C00001F0C3F8B8E43448808841F205518842D1
:1040D0007ED100210720FCF7E3FA322001F0B5F889
:1040E0004FF48E711220FCF7DBFA0121A420FCF7BB
:1040F000D7FA0F210820FCF7D3FA08210A20FCF791
:10410000CFFA08210D20FCF7CBFA40F207713020DE
:10411000FCF7C6FA07213120FCF7C2FA40F203612E
:104120003220FCF7BDFA4FF4E0613320FCF7B8FA17
:1041300040F202213420FCF7B3FA02213520FCF7CB
:10414000AFFA41F60F713620FCF7AAFA40F2077178
:104150003720FCF7A5FA00213820FCF7A1FA00214E
:104160003920FCF79DFA40F207713A20FCF798FAE3
:1041700000213B20FCF794FA07213C20FCF790FA41
:1041800000213D20FCF78CFA322001F05EF801217D
:104190000720FCF785FA01E03800002001211720F4
:1041A000FCF77EFA322001F050F84FF4BD51102098
:1041B000FCF776FA40F217211120FCF771FA4FF460
:1041C0008F711220FCF76CFA4FF47061132000E03D
:1041D00097E0FCF765FA00212A20FCF761FA0A2132
:1041E0002920FCF75DFA4FF49F711220FCF758FA72
:1041F00000215020FCF754FAEF215120FCF750FA2F
:1042000000215220FCF74CFA40F23F115320FCF7FA
:1042100047FA4FF41C516020FCF742FA012161205B
:10422000FCF73EFA00216A20FCF73AFA00218020D0
:10423000FCF736FA00218120FCF732FA00218220B7
:10424000FCF72EFA00218320FCF72AFA00218420B3
:10425000FCF726FA00218520FCF722FA1321902092
:10426000FCF71EFA4FF440719220FCF719FA052171
:104270009320FCF715FA00219520FCF711FA002194
:104280009720FCF70DFA00219820FCF709FA4FF46B
:1042900080710120FCF704FA4FF4E0610220FCF782
:1042A000FFF941F238010320FCF7FAF9002104205C
:1042B000FCF7F6F900210C20FCF7F2F900210F20A1
:1042C000FCF7EEF900212020FCF7EAF9002121207B
:1042D000FCF7E6F921210720FCF7E2F9142000F0B1
:1042E000B4FF61210720FCF7DBF9142000F0ADFFDB
:1042F00040F273110720FCF7D3F9142000F0A5FF5A
:1043000095E4FE4880884BF2055188427ED1002119
:104310000846FCF7C5F900210846FCF7C1F9002161
:104320000846FCF7BDF900210846FCF7B9F9012160
:10433000A420FCF7B5F9142000F087FF4FF41C51BE
:104340006020FCF7ADF940F202210820FCF7A8F943
:104350004FF405713020FCF7A3F943F215713120B9
:10436000FCF79EF940F204613220FCF799F940F61F
:1043700016613320FCF794F942F211213420FCF746
:104380008FF94FF4A8513520FCF78AF948F207510C
:104390003620FCF785F941F207413720FCF780F918
:1043A00041F203413820FCF77BF920213920FCF74A
:1043B00077F91A219020FCF773F900211020FCF7FF
:1043C0006FF907211120FCF76BF900211220FCF78F
:1043D00067F900211320FCF763F9142000F035FF82
:1043E0004FF4E6611020FCF75BF940F23711112021
:1043F000FCF756F9142000F028FF4FF4DC7112206E
:10440000FCF74EF9142000F020FF00E083E04FF4A9
:1044100070611320FCF744F980212A20FCF740F951
:1044200048212920FCF73CF9142000F00EFF4FF43E
:1044300080710120FCF734F94FF4E0610220FCF7B1
:104440002FF941F238010320FCF72AF940F202214A
:104450000820FCF725F900210A20FCF721F90021AA
:104460000C20FCF71DF900210D20FCF719F9302173
:104470000E20FCF715F900215020FCF711F9EF216F
:104480005120FCF70DF900215220FCF709F940F208
:104490003F115320FCF704F94FF41C516020FCF746
:1044A000FFF801216120FCF7FBF800216A20FCF7EE
:1044B000F7F811219020FCF7F3F84FF4C061922037
:1044C000FCF7EEF840F202419320FCF7E9F80221F4
:1044D0009420FCF7E5F8142000F0B7FE0121072036
:1044E000FCF7DEF8142000F0B0FE61210720FCF795
:1044F000D7F840F273110720FCF7D2F800212020F2
:10450000FCF7CEF800212120FCF7CAF82221002078
:10451000FCF7C6F811E3794880884CF205518842CF
:104520007ED100210846FCF7BBF800210846FCF7C5
:10453000B7F8142000F089FE00210846FCF7B0F817
:1045400000210846FCF7ACF800210846FCF7A8F863
:1045500000210846FCF7A4F80121A420FCF7A0F8EC
:10456000142000F072FE4FF41C516020FCF798F804
:1045700040F606010820FCF793F840F20371302062
:10458000FCF78EF801213120FCF78AF80421322053
:10459000FCF786F84FF481713320FCF781F84FF473
:1045A00040713420FCF77CF840F203113520FCF711
:1045B00077F81F213620FCF773F840F2037137209B
:1045C000FCF76EF801213820FCF76AF80421392045
:1045D000FCF766F815219020FCF762F84FF4826131
:1045E0001020FCF75DF840F247211120FCF758F845
:1045F0004FF4DE711220FCF753F84FF46061132082
:10460000FCF74EF8782000F020FE4FF48071012076
:10461000FCF746F84FF400710220FCF741F800E087
:1046200050E041F230010320FCF73AF808210A205B
:10463000FCF736F800210C20FCF732F820210E2080
:10464000FCF72EF800210F20FCF72AF8002120208B
:10465000FCF726F800212120FCF722F83D212A2032
:10466000FCF71EF8142000F0F0FD2D212920FCF7A6
:1046700017F800215020FCF713F84DF2EF015120FC
:10468000FCF70EF800215220FCF70AF840F23F1127
:104690005320FCF705F800216120FCF701F8002108
:1046A0006A20FBF7FDFF4FF440719220FBF7F8FF03
:1046B00005219320FBF7F4FF4FF480710720FBF7EF
:1046C000EFFF3AE20D48808844F2315188427CD1B4
:1046D00001210020FBF7E4FF0A2000F0B6FD41F2C3
:1046E00028611020FBF7DCFF0E211220FBF7D8FF1A
:1046F00040F639211320FBF7D3FF01E038000020FA
:104700000A2000F0A2FD40211120FBF7C9FF502133
:104710001520FBF7C5FF0A2000F097FD1E2112208F
:10472000FBF7BEFF0A2000F090FD4FF4B1511020BE
:10473000FBF7B6FF42F639211320FBF7B1FF0A2041
:1047400000F083FD4FF480710120FBF7A9FF4FF4C7
:1047500040710220FBF7A4FF41F238010320FBF770
:104760009FFF40F202210820FBF79AFF08210A2050
:10477000FBF796FF00213020FBF792FF40F2024149
:104780003120FBF78DFF4FF483713220FBF788FF58
:1047900040F203513320FBF783FF4FF48271342042
:1047A000FBF77EFF40F201313520FBF779FF40F245
:1047B00007713620FBF774FF40F205313720FBF715
:1047C0006FFF4FF40271382000E040E0FBF768FF14
:1047D00040F60B713920FBF763FF02214120FBF704
:1047E0005FFF4FF41C516020FBF75AFF012161204D
:1047F000FBF756FF4FF404719020FBF751FF4FF485
:1048000085719220FBF74CFF04219320FBF748FFB2
:104810004FF48071A020FBF743FF01210720FBF735
:104820003FFF21210720FBF73BFF23210720FBF758
:1048300037FF33210720FBF733FF40F23311072006
:10484000FBF72EFF0021A020FBF72AFF75E1F848B7
:10485000808844F2355188427ED130211520FBF703
:104860001FFF10219A20FBF71BFF20211120FBF7CF
:1048700017FF43F228411020FBF712FF02211220FC
:10488000FBF70EFF41F238011320FBF709FF282048
:1048900000F0DBFC12210846FBF702FF282000F0A5
:1048A000D4FC43F220411020FBF7FAFE43F238011A
:1048B0001320FBF7F5FE462000F0C7FC0021302056
:1048C000FBF7EEFE40F202413120FBF7E9FE40F239
:1048D00007313220FBF7E4FE4FF441713320FBF740
:1048E000DFFE04213420FBF7DBFE40F201413520DE
:1048F000FBF7D6FE40F207713620FBF7D1FE40F2FF
:1049000005313720FBF7CCFE4FF4C2613820FBF7AE
:10491000C7FE4FF4C2613920FBF7C2FE4FF480712D
:104920000120FBF7BDFE4FF440710220FBF7B8FEFB
:1049300041F230010320FBF7B3FE40F608010820E6
:10494000FBF7AEFE08210A20FBF7AAFE4FF41C512C
:104950006020FBF7A5FE00E031E001216120FBF7BC
:104960009FFE4FF49F719020FBF79AFE4FF48071E9
:104970009220FBF795FE4FF480719320FBF790FE99
:104980004FF44051A020FBF78BFE1021A320FBF732
:1049900087FE01210720FBF783FE21210720FBF77B
:1049A0007FFE23210720FBF77BFE33210720FBF747
:1049B00077FE40F233110720FBF772FEBDE09C4802
:1049C000808841F663118842F8D1E220FBF758FE57
:1049D0001D20FBF759FE0220FBF756FE0420FBF7D3
:1049E00053FE642000F00DFCE020FBF749FE01209F
:1049F000FBF74AFE0A2000F028FCE020FBF740FE0F
:104A00000320FBF741FE0C2000F01FFC0120FBF708
:104A100037FE0A2000F019FCE620FBF731FE2F20BC
:104A2000FBF732FEFF20FBF72FFEFF20FBF72CFEEB
:104A3000B020FBF725FE2020FBF726FE0020FBF729
:104A400023FE0320FBF720FE40F21F30FBF71CFE85
:104A50000120FBF719FE40F2DF10FBF715FE0020E6
:104A6000FBF712FEB420FBF70BFE0420FBF70CFE55
:104A700040F21F40FBF708FE0020FBF705FE2E204A
:104A8000FBF702FE0020FBF7FFFD0020FBF7FCFD1B
:104A90000020FBF7F9FD0020FBF7F6FDB620FBF741
:104AA000EFFD0220FBF7F0FD4FF40370FBF7ECFD88
:104AB0000020FBF7E9FD1720FBF7E6FD1520FBF7CB
:104AC000E3FD0020FBF7E0FD0020FBF7DDFDF0201B
:104AD000FBF7D6FD0320FBF7D7FD2920FBF7D0FD20
:104AE000D020FBF7CDFD0020FBF7CEFDBE20FBF76D
:104AF000C7FD0520FBF7C8FDFE20FBF7C5FD012023
:104B0000FBF7C2FD0020FBF7BFFD0020FBF7BCFD5B
:104B10000020FBF7B9FDB820FBF7B2FD0320FBF73F
:104B2000B3FD0120FBF7B0FDBA20FBF7A9FD012082
:104B3000FBF7AAFD6420FCF706FA0020FCF72BFA2D
:104B400001203C4908604FF6FF70FCF70FFC1FB0D6
:104B500000BD2DE9FC4F05460E4617469846DDF888
:104B60002C90002001903248808846F6040188424B
:104B700029D12F488079012825D1AB4635462C48CC
:104B80000088C01B401E86B2474629480088A0EB1B
:104B90000B00401E1FFA80F80020254988712A204A
:104BA00048812B20888143463A4631462846CDF835
:104BB0000090FFF7CEFF01201D4988712B2048810E
:104BC0002A2088811DE0781B401C80B20190344669
:104BD00015E021462846FBF791FDFBF771FD4FF0EC
:104BE000000A07E04FF0D840A0F802900AF1010057
:104BF0001FFA80FA01988245F4DB601C84B24445B8
:104C0000E7DDBDE8FC8F2DE9F84F07460D469046DD
:104C10009946DDF828B0A8EB0700401C1FFA80FA7F
:104C2000A9EB0500401C80B2009000241AE00000AF
:104C30003800002084012142281981B23846FBF750
:104C40005DFDFBF73DFD002608E004FB0A603BF834
:104C500010004FF0D8414880701C86B25645F4DBF6
:104C6000601C84B200988442E6DBBDE8F88F2DE931
:104C7000FF4F84B081468A46002003900290069838
:104C8000A0EB09050798A0EB0A06CDF80490CDF833
:104C900000A0002D01DD012705E00DB9002702E08D
:104CA0004FF0FF376D42002E02DD4FF0010806E0A5
:104CB00016B94FF0000802E04FF0FF387642B542D7
:104CC00001DD2C4600E034464FF0000B21E0009A55
:104CD00091B2019A90B2FCF768F8039828440390C7
:104CE0000298304402900398A04205DD0398001B0F
:104CF00003900198384401900298A04205DD029883
:104D0000001B02900098404400900BF101001FFA34
:104D100080FB601C8345DADD08B0BDE8F08FF0B59C
:104D200004460D4616461F462B4632462946204667
:104D3000FFF79DFF3B46224629462046FFF797FF97
:104D40003B46324639462046FFF791FF3B46324606
:104D500029463046FFF78BFFF0BD2DE9F0430646AC
:104D60000F469046002445460320A0EB48093CE04E
:104D70007A1B91B2321990B2FCF717F83A1B91B234
:104D8000721990B2FCF711F83A1991B2721990B2F7
:104D9000FCF70BF87A1991B2321990B2FCF705F8CA
:104DA0007A1991B2321B90B2FBF7FFFF3A1991B218
:104DB000721B90B2FBF7F9FF7A1B91B2321B90B2D3
:104DC000FBF7F3FF3A1B91B2721B90B2FBF7EDFFBA
:104DD000641CB9F1000F03DAA000801D814404E0D7
:104DE000601B80000A3081446D1EAC42C0DDBDE80E
:104DF000F0832DE9F84F80460E4617461C46B34611
:104E00002046E31704EB5373DB1021464FEAE47CA2
:104E100004EB5C7C4FEAEC0CA4EBCC0CBCF1000F77
:104E200002D04FF0010C01E04FF0000C6344224629
:104E300004EBD27C4FEA6C0C03FB0CF3DBB2009367
:104E4000A7F12000C7B2002556E00C2C07D107EBD4
:104E500047009F4901EB800010F8059013E0102CEB
:104E600005D19C4800EB071010F805900BE0182CBA
:104E700007D107EBC700984901EB800010F80590B7
:104E800001E0BDE8F88F4FF0000A2FE009F0800044
:104E900030B19248028831464046FBF795FF07E063
:104EA0000A9828B98E48028831464046FBF78CFFA5
:104EB0004FEA49604FEA1069701C86B28948408801
:104EC000B04200DCDDE7A6EB0B00A0420AD15E4653
:104ED00008F101001FFA80F882480088404500DC94
:104EE000CFE706E00AF1010000F0FF0ABAF1080F6F
:104EF000CCDB00BF681CC5B200988542A5DB00BFB3
:104F0000BFE710B50246012000E050430B00A1F1BD
:104F10000104E1B2F9D110BD2DE9FF4F81B0074680
:104F200091461E460E9D4FF0000A002439E0301BCA
:104F3000401EC1B20A20FFF7E4FFB9FBF0F00A21DE
:104F4000B0FBF1F201FB1208BAF1000F16D1701E8E
:104F5000A04213DDB8F1000F0ED10020AB4605EBE7
:104F6000DB71491001FB0471009088B22B462022AE
:104F70000299FFF73EFF12E04FF0010A0020AB4616
:104F800005EBDB71491001FB0471009088B208F158
:104F90003001CAB22B460299FFF72BFF00BF601CFD
:104FA000C4B2B442C3DB05B0BDE8F08F2DE9FF4FBA
:104FB00082B0064692461F46DDE90F480020019068
:104FC00000254DE0781B401EC1B20A20FFF799FF73
:104FD000BAFBF0F00A21B0FBF1F201FB12090198D3
:104FE00050BB781EA84227DDB9F1000F22D108F08E
:104FF000800078B108F00100A34604EBDB71491092
:1050000001FB0561009088B2234630220399FFF727
:10501000F0FE0EE008F00100A34604EBDB7149103E
:1050200001FB0561009088B2234620220399FFF717
:10503000E0FE13E00120019008F00100A34604EB1C
:10504000DB71491001FB0561009088B209F1300164
:10505000CAB223460399FFF7CCFE00BF681CC5B255
:10506000BD42AFDB06B0BDE8F08F2DE9F84704463E
:105070000D4690469946DDE9096704F0FF0A08EB02
:1050800004001FFA80F809EB05001FFA80F916E00A
:10509000444502DB5446A81985B24D4500DB14E0B7
:1050A000002000903A78334629462046FFF7A1FEBB
:1050B000304606EBD07104EB61018CB27F1C38786E
:1050C0007E2802DC38782028E2DA00BFBDE8F887C5
:1050D000B273000826780008167E0008140000202D
:1050E000160000203800002000B587B001214FF4E1
:1050F000047001F04FFA4FF4004001F0AFF90320C3
:10510000ADF8040000208DF8070001A92E4800F03A
:1051100085FF2E4800F0F4F9002002908DF80C0075
:105120008DF80D004FF460200490002005900120C0
:105130008DF8180002A9254800F009FA012123483A
:1051400000F031FA214800F050FA00BF1F4800F08B
:1051500051FA0028FAD11D4800F056FA00BF1B484A
:1051600000F057FA0028FAD107B000BD10B5044688
:10517000072301222146154800F081FA0121134836
:1051800000F051FA00BF0221104800F0BDFB0028DA
:10519000F9D00E4800F0DAFA10BD2DE9F0410746CB
:1051A0000C460025002608E03846FFF7DFFF0544DF
:1051B000052000F04AF8701CC6B2A642F4DBB5FB2D
:1051C000F4F080B2BDE8F0810010014000240140FD
:1051D00010B56FF0040000F074F92E4800682E49F5
:1051E000B0FBF1F02D4908700846007800EB400153
:1051F000C1EBC0104FF6FF7101EAC00028490880DA
:1052000010BD0146254A12784A434FF0E0235A6107
:1052100000229A611A46126942F001021A6100BF27
:105220004FF0E022106900F001021AB100F4803260
:10523000002AF5D04FF0E022126922F001024FF06F
:10524000E0231A6100229A6170470146144A1288CD
:105250004A434FF0E0235A6100229A611A461269CC
:1052600042F001021A6100BF4FF0E022106900F025
:1052700001021AB100F48032002AF5D04FF0E0228A
:10528000126922F001024FF0E0231A6100229A61B4
:10529000704700000000002000127A001800002073
:1052A0001A000020014600BF704700BF494A12881B
:1052B00002F04002002AF9D0C2B2464B1B1D1A80F0
:1052C000704710B586B00446012144F2040001F095
:1052D00061F94FF40070ADF8140003208DF816004A
:1052E00018208DF8170005A93B4800F097FE4FF4F1
:1052F0008060ADF8140004208DF8170005A9364829
:1053000000F08CFE25208DF8000003208DF80100B0
:105310008DF8020001208DF80300684600F087F840
:1053200001940020ADF80800ADF80A00ADF80C00BB
:10533000ADF810000C20ADF80E0001A9254801F0D1
:10534000D0F9012240F22551224801F062FA0121F0
:10535000204801F052FA06B010BD10B540F22551B8
:105360001C4801F03BFB10B31A4801F0B7FAC4B275
:105370001A48008800F40040C8B91848008800F4B2
:10538000804060B10A2C03D000201449088020E03E
:105390001248008840F400401049088019E00D2CA4
:1053A00006D10E48008840F480400C49088010E087
:1053B0000A480088C0F30D0009490C5407480088CA
:1053C000401C0649088008460088C72801DD0020E7
:1053D000088010BD00380140000801402000002076
:1053E000460000200948804709480047FEE7FEE7DD
:1053F000FEE7FEE7FEE7FEE7FEE7FEE7FEE7FEE785
:1054000004480549054A064B704700004705000857
:105410003101000870010020700700207003002097
:105420007003002031490143314A1160704770B563
:10543000002100230F22C47804B32D4C246804F407
:10544000E064C4F5E064210AC1F10403CA40447871
:1054500004FA03F18478144021430901254C0678AD
:10546000A155047804F01F050124AC4005786D11A6
:10547000AD0005F1E025C5F8004109E0047804F02D
:105480001F050124AC401C4D0678761145F82640D6
:1054900070BD1A4A0A400243154B1B1F1A60704721
:1054A00039B1134A121D12680243114B1B1D1A60B9
:1054B00006E00F4A121D126882430D4B1B1D1A6035
:1054C0007047042808D14FF0E021096941F0040138
:1054D0004FF0E022116107E04FF0E021096921F06F
:1054E00004014FF0E0221161704700000000FA054E
:1054F0000CED00E000E400E080E100E080FFFF1F31
:1055000010B50446FA48844208D10121401501F043
:105510005BF80021601501F057F817E0F548844268
:1055200008D10121001501F04FF80021201501F0EC
:105530004BF80BE0F048844208D10121C80301F088
:1055400043F800214FF4004001F03EF810BD30B5A3
:105550000246002000235068E84C20400D790C687A
:1055600044EA0524204350609068E54C2040D1E98E
:1055700002542C434D7944EA450420439060D06A9C
:1055800020F470000C7C641EE4B2234340EA035014
:10559000D06230BD00210160017141718160C16044
:1055A00001210174704721B1826842F001028260DA
:1055B00003E0826822F001028260704721B18268B4
:1055C00042F48072826003E0826822F4807282601A
:1055D000704710B50023CBB21AB144681C43446035
:1055E00002E044689C43446010BD816841F00801BA
:1055F00081607047014600208A6802F008020AB103
:10560000012000E000207047816841F004018160C2
:105610007047014600208A6802F004020AB10120A6
:1056200000E00020704721B1826842F4A00282604D
:1056300003E0826822F4A0028260704701460020E5
:105640008A6802F480020AB1012000E0002070475D
:1056500010B50A4600210023416821F46041531E21
:1056600041EA4331416010BD21B1426842F4006219
:10567000426003E0426822F4006242607047F0B585
:1056800004460D4600200021092D11DDE068A5F13A
:105690000A0606EB4607072606FA07F18843A5F136
:1056A0000A0606EB460603FA06F10843E0600CE042
:1056B000206905EB4507072606FA07F1884305EB45
:1056C000450603FA06F108432061072A0FDA606BEA
:1056D000561E06EB86071F2606FA07F18843561E5C
:1056E00006EB860605FA06F10843606322E00D2A00
:1056F0000FDA206BD61F06EB86071F2606FA07F186
:105700008843D61F06EB860605FA06F10843206398
:1057100010E0E06AA2F10D0606EB86071F2606FAE6
:1057200007F18843A2F10D0606EB860605FA06F19D
:105730000843E062F0BD21B1826842F480128260C9
:1057400003E0826822F48012826070470146C86CD0
:1057500080B2704766484C300068704721B142689B
:1057600042F48062426003E0426822F48062426058
:10577000704721B1426842F48052426003E04268BF
:1057800022F48052426070470A460021816821F469
:10579000E04111438160704721B1826842F40042C8
:1057A000826003E0826822F400428260704721B187
:1057B000826842F40212826003E0826822F40212DC
:1057C00082607047014600208A6802F400120AB124
:1057D000012000E000207047F0B504461546002087
:1057E00000220026092911DDE068A1F10A0707EB74
:1057F000470C072707FA0CF29043A1F10A0707EBC1
:10580000470703FA07F21043E0600CE0206901EB60
:10581000410C072707FA0CF2904301EB410703FA0A
:1058200007F210432061A06BC0F30156EF1C06F194
:10583000010CA7EB0C0707EB870C1F2707FA0CF2EC
:105840009043EF1C06F1010CA7EB0C0707EB870751
:1058500001FA07F21043A063F0BD10B50A4600211B
:105860000023816B21F44011531E41EA03518163EF
:1058700010BD08B5002300930090009B0B440093DB
:10588000009B1A6008BD08B50246002000900092F7
:1058900001F12800009B184400900098006880B235
:1058A00008BD0A4600214168164B1940114341606A
:1058B00070474162826270470A460021416821F0C8
:1058C0001F0111434160704740B10949083109681F
:1058D00041F40001064A0832116007E0044908312A
:1058E000096821F40001024A083211607047000083
:1058F0000024014000280140003C0140FFFEF0FF71
:10590000FDF7F1FFFFFD3FFF0246002013680B404B
:105910000BB1012000E000207047CA4302607047CD
:1059200070B502460020002300240B125568CEB249
:1059300005EA060415681D4015B10CB1012000E010
:10594000002070BD00220A12D3430360704700009C
:1059500030B943F2DB028100A1F1C0410A6005E0E9
:1059600043F2D2028100A1F1C0410A606FF070429F
:10597000411C8900A1F1C0410A608100A1F1C04130
:10598000C1F80421704710280AD118214FF0204295
:105990001166402151664FF0FC319166D16610E0EE
:1059A0001821F74A116040214FF02042C2F88410BC
:1059B0004FF0FC31F24A083211604FF02042C2F839
:1059C0008C1070471820EE4920310860002009062D
:1059D000C1F8A4004FF0FC30E94928310860091DE6
:1059E0000860091D08607047D0E901121143C268C0
:1059F0001143026911434269114382691143C2692B
:105A00001143026A1143426A1143826A1143C26A16
:105A10001143026B114302689200A2F1C04211606F
:105A2000816808290BD101688900A1F1C04109688A
:105A300041F0400201688900A1F1C0410A60416B58
:105A40000968426B526841EA0211426B926841EA6E
:105A50000221426B928941EA0241426B128A41EA79
:105A60000251426B127D41EA0261426B926911431D
:105A70000268521C9200A2F1C0421160C16AB1F5E5
:105A8000804F1BD1816B0968826B526841EA021119
:105A9000826B926841EA0221826B128A41EA0251CA
:105AA000826B127D41EA0261826B92691143026846
:105AB0009200A2F1C042C2F8041107E06FF07042F8
:105AC00001688900A1F1C041C1F80421704730B5D7
:105AD000002100220023446844F0080485682C4318
