:020000040800F2
:10000000C804002045010008AD160008AF1600081E
:10001000B3160008B7160008BB1600080000000061
:10002000000000000000000000000000BF160008F3
:10003000C116000800000000C3160008C51600081D
:100040005F0100085F0100085F0100085F01000810
:100050005F0100085F0100085F0100085F01000800
:100060005F0100085F0100085F0100085F010008F0
:100070005F0100085F0100085F0100085F010008E0
:100080005F0100085F0100085F0100085F010008D0
:100090005F0100085F0100085F0100085F010008C0
:1000A0005F0100085F0100085F0100085F010008B0
:1000B0005F0100085F0100085F0100085F010008A0
:1000C0005F0100085F0100085F0100085F01000890
:1000D0005F010008D71600082D17000887170008D1
:1000E0005F0100085F0100085F0100085F01000870
:1000F0005F0100085F0100085F0100085F01000860
:100100005F0100085F0100085F0100085F0100084F
:100110005F0100085F0100085F0100085F0100083F
:100120005F0100085F0100085F0100085F0100082F
:10013000DFF80CD003F082F9004800479B14000858
:10014000C80400200648804706480047FEE7FEE74F
:10015000FEE7FEE7FEE7FEE7FEE7FEE7FEE7FEE777
:1001600047020008310100080CB500200190009002
:100170006C48006840F480306A49086000BF6948F4
:10018000006800F4003000900198401C0190009835
:1001900018B90198B0F5A06FF1D16248006800F479
:1001A000003010B10120009001E000200090009884
:1001B000012843D15C48006840F010005A490860AB
:1001C0000846006820F0030008600846006840F018
:1001D0000200086053484068524948600846406839
:1001E00048600846406840F48060486008464068BF
:1001F00020F47C1048600846406840F4E8104860ED
:100200000846006840F08070086000BF45480068FC
:1002100000F000700028F9D04248406820F0030048
:10022000404948600846406840F00200486000BF0E
:100230003C48406800F00C000828F9D10CBD10B50E
:10024000FFF792FF10BD10B53648006840F001007E
:1002500034490860084640683449084031494860DC
:1002600008460068324908402E4908600846006880
:1002700020F4802008600846406820F4FE004860B2
:100280004FF41F008860FFF7DAFF4FF00060294944
:10029000086010BD10B5002100200022214B5B68D2
:1002A00003F00C0121B1042906D0082928D107E068
:1002B000214B224C236027E01F4B204C236023E07E
:1002C000184B5B6803F47010164B5B6803F48032C4
:1002D000022303EB904022B9194B4343174C236090
:1002E0000DE0104B5B6803F4003323B1144B434320
:1002F000124C236003E0104B4343104C236003E097
:100300000D4B0E4C236000BF00BF064B5B68C3F370
:1003100003130C4CE15C094B1B68CB40074C23607A
:1003200010BD000000100240002002400000FFF855
:10033000FFFFF6FE08ED00E000127A00000000204A
:1003400000093D000400002031490143314A116099
:10035000704770B5002100230F22C47804B32D4CE0
:10036000246804F4E064C4F5E064210AC1F10403E4
:10037000CA40447804FA03F1847814402143090107
:10038000254C0678A155047804F01F050124AC40E3
:1003900005786D11AD0005F1E025C5F8004109E0D3
:1003A000047804F01F050124AC401C4D067876113A
:1003B00045F8264070BD1A4A0A400243154B1B1FE0
:1003C0001A60704739B1134A121D12680243114B6B
:1003D0001B1D1A6006E00F4A121D126882430D4B66
:1003E0001B1D1A607047042808D14FF0E0210969ED
:1003F00041F004014FF0E022116107E04FF0E021ED
:10040000096921F004014FF0E022116170470000FA
:100410000000FA050CED00E000E400E080E100E0FF
:1004200080FFFF1F10B50446FA48844208D101211D
:10043000401500F055FD0021601500F051FD17E05A
:10044000F548844208D10121001500F049FD002142
:10045000201500F045FD0BE0F048844208D1012151
:10046000C80300F03DFD00214FF4004000F038FDCE
:1004700010BD30B50246002000235068E84C2040F3
:100480000D790C6844EA0524204350609068E54CDF
:100490002040D1E902542C434D7944EA45042043DD
:1004A0009060D06A20F470000C7C641EE4B2234398
:1004B00040EA0350D06230BD0021016001714171FA
:1004C0008160C16001210174704721B1826842F0EE
:1004D0000102826003E0826822F0010282607047BC
:1004E00021B1826842F48072826003E0826822F463
:1004F00080728260704710B50023CBB21AB1446895
:100500001C43446002E044689C43446010BD816821
:1005100041F0080181607047014600208A6802F0BE
:1005200008020AB1012000E000207047816841F014
:10053000040181607047014600208A6802F00402CD
:100540000AB1012000E00020704721B1826842F426
:10055000A002826003E0826822F4A00282607047F9
:10056000014600208A6802F480020AB1012000E0FE
:100570000020704710B50A4600210023416821F48D
:100580006041531E41EA4331416010BD21B14268D0
:1005900042F40062426003E0426822F4006242607A
:1005A0007047F0B504460D4600200021092D11DDED
:1005B000E068A5F10A0606EB4607072606FA07F1EA
:1005C0008843A5F10A0606EB460603FA06F108433E
:1005D000E0600CE0206905EB4507072606FA07F105
:1005E000884305EB450603FA06F108432061072A14
:1005F0000FDA606B561E06EB86071F2606FA07F118
:100600008843561E06EB860605FA06F1084360632A
:1006100022E00D2A0FDA206BD61F06EB86071F2675
:1006200006FA07F18843D61F06EB860605FA06F19F
:100630000843206310E0E06AA2F10D0606EB86078E
:100640001F2606FA07F18843A2F10D0606EB86067F
:1006500005FA06F10843E062F0BD21B1826842F478
:100660008012826003E0826822F480128260704708
:100670000146C86C80B2704766484C3000687047CD
:1006800021B1426842F48062426003E0426822F491
:1006900080624260704721B1426842F480524260F9
:1006A00003E0426822F48052426070470A4600210B
:1006B000816821F4E04111438160704721B1826873
:1006C00042F40042826003E0826822F400428260C9
:1006D000704721B1826842F40212826003E08268AE
:1006E00022F4021282607047014600208A6802F4F8
:1006F00000120AB1012000E000207047F0B5044666
:100700001546002000220026092911DDE068A1F12C
:100710000A0707EB470C072707FA0CF29043A1F1F1
:100720000A0707EB470703FA07F21043E0600CE003
:10073000206901EB410C072707FA0CF2904301EB0B
:10074000410703FA07F210432061A06BC0F3015682
:10075000EF1C06F1010CA7EB0C0707EB870C1F271A
:1007600007FA0CF29043EF1C06F1010CA7EB0C0703
:1007700007EB870701FA07F21043A063F0BD10B53D
:100780000A4600210023816B21F44011531E41EAE7
:100790000351816310BD08B5002300930090009BB6
:1007A0000B440093009B1A6008BD08B50246002068
:1007B0000090009201F12800009B184400900098DE
:1007C000006880B208BD0A4600214168164B1940F6
:1007D0001143416070474162826270470A460021BE
:1007E000416821F01F0111434160704740B1094940
:1007F0000831096841F40001064A0832116007E037
:1008000004490831096821F40001024A08321160E4
:10081000704700000024014000280140003C0140D6
:10082000FFFEF0FFFDF7F1FFFFFD3FFF0246002056
:1008300013680B400BB1012000E000207047CA4351
:100840000260704770B502460020002300240B129E
:100850005568CEB205EA060415681D4015B10CB105
:10086000012000E0002070BD00220A12D343036083
:100870007047000010B50446CC48844208D10121DD
:10088000042000F02DFB0021042000F029FB46E0AD
:10089000C748844208D10121082000F021FB002133
:1008A000082000F01DFB3AE0C248844208D1012133
:1008B000102000F015FB0021102000F011FB2EE0AD
:1008C000BD48844208D10121202000F009FB00210D
:1008D000202000F005FB22E0B848844208D1012125
:1008E000402000F0FDFA0021402000F0F9FA16E067
:1008F000B348844208D10121802000F0F1FA0021A0
:10090000802000F0EDFA0AE0AE48844207D10121D0
:10091000801500F0E5FA0021A01500F0E1FA10BD05
:1009200010B50121084600F0DBFA0021012000F09B
:10093000D7FA10BD2DE9F04102460025002600201F
:1009400000230024002791F803C00CF00F0591F854
:1009500003C00CF0100CBCF1000F03D091F802C0E2
:100960004CEA050591F800C0BCF1000F31D01468C5
:1009700000202BE04FF0010C0CFA00F3B1F800C09E
:100980000CEA03069E4220D183004FF00F0C0CFAB4
:1009900003F7BC4305FA03FC4CEA040491F803C0D6
:1009A000BCF1280F06D14FF0010C0CFA00FCC2F884
:1009B00014C00AE091F803C0BCF1480F05D14FF014
:1009C000010C0CFA00FCC2F810C0401C0828D1D35E
:1009D0001460B1F800C0BCF1FF0F34DD5468002092
:1009E0002EE000F1080C4FF0010808FA0CF3B1F802
:1009F00000C00CEA03069E4221D183004FF00F0C89
:100A00000CFA03F7BC4305FA03FC4CEA040491F822
:100A100003C0BCF1280F05D100F1080C08FA0CF84E
:100A2000C2F8148091F803C0BCF1480F07D100F15F
:100A3000080C4FF0010808FA0CF8C2F81080401CAE
:100A40000828CED35460BDE8F0814FF6FF710180D5
:100A5000022181700421C170704702460020936812
:100A60000B400BB1012000E0002070470146886870
:100A700080B2704702460020D3680B400BB10120C2
:100A800000E0002070470146C86880B270470161ED
:100A90007047416170470AB1016100E041617047F0
:100AA000C16070474FF480320A4382618161826184
:100AB00082698269704702460020434B18684FF6EE
:100AC0008073184040EA021008433F4B186070479B
:100AD0003E49C8617047F0B50A4600230024002152
:100AE000002500F00046B6F1004F02D1364EF16904
:100AF00001E0354E7168C0F3034583B200F440163F
:100B0000B6F5401F08D121F070612F4E766826F0AF
:100B100070662D4F7E6012E000F48016B6F5801FDF
:100B200006D1032606FA05F4A14341F0706106E000
:100B3000460D360103FA06F6B14341F0706122B169
:100B4000460D360103FA06F6314300F00046B6F1D1
:100B5000004F02D11C4EF16101E01B4E7160F0BDEF
:100B600030B500228B071C0F0F2303FA04F2164B3B
:100B700008338C1053F824309343134C08348D10F1
:100B800044F8253023468C1053F824308C07240F6A
:100B900000FA04F423430C4C08348D1044F825303B
:100BA00030BD0A49DC310860704700000008014090
:100BB000000C0140001001400014014000180140E9
:100BC000001C0140002001400000014000002042C4
:100BD000DF48006840F00100DD49086008464068D1
:100BE000DC490840DA49486008460068DA490840AC
:100BF000D74908600846006820F48020086008464D
:100C0000406820F4FE0048604FF41F008860704781
:100C1000CF49096821F48031CD4A11601146096835
:100C200021F480211160B0F5803F03D0B0F5802F12
:100C30000ED106E0C649096841F48031C44A11600A
:100C400007E0C349096841F4A021C14A116000E0EE
:100C500000BF00BF704710B50146002200230020EE
:100C60004A11012A02D1BA4C236806E0022A02D1B5
:100C7000B74C236A01E0B64C636A01F01F020124FD
:100C800094401C400CB1012000E0002010BD38B59C
:100C9000002000900024002500BF3120FFF7DBFF7B
:100CA00005460098401C00900098B0F5A06F01D058
:100CB000002DF2D03120FFF7CEFF08B1012400E073
:100CC0000024204638BD01460020A14A106820F0CB
:100CD000F80040EAC10010607047A0490860704702
:100CE000024600209A4B586820F47C1042EA010327
:100CF0001843974B586070479849086670470146FB
:100D00000020934A506820F0030008435060704769
:100D10008F48406800F00C007047014600208C4A64
:100D2000506820F0F00008435060704701460020F2
:100D3000874A506820F4E0600843506070470146DD
:100D40000020834A506820F4605040EAC10050609F
:100D5000704729B17E4A527A02437D4B5A7204E0B1
:100D60007B4A527A82437A4B5A7270477B49D83118
:100D70000860704701460020754A506820F44040E2
:100D80000843506070470021714A20321170704A48
:100D900082F82010012802D004280AD104E00121A1
:100DA0006B4A2032117005E00521694A203211702A
:100DB00000E000BF00BF70476949086070476449A0
:100DC000096A0143624A1162704765494439086003
:100DD000704730B500210022002400235C4D6D686F
:100DE00005F00C0121B1042905D0082923D105E023
:100DF0005C4D056022E05B4D05601FE0544D6D6861
:100E000005F47012524D6D6805F48034022505EB2F
:100E100092421CB9544D554305600BE04C4D6D6832
:100E200005F400351DB1504D5543056002E04D4DB0
:100E30005543056002E04B4D056000BF00BF444DC7
:100E40006D6805F0F0010909484D6B5C0568DD40EF
:100E500045603F4D6D6805F4E061090A434D6B5CE8
:100E60004568DD4085603A4D6D6805F46051C90AFA
:100E70003E4D6B5C4568DD40C560354D6D6805F4E1
:100E80004041890B3A4D6B5CC568B5FBF3F50561D4
:100E900030BD29B12E4A526902432D4B5A6104E0FC
:100EA0002B4A526982432A4B5A61704729B1284A1A
:100EB00092690243264B9A6104E0254A9269824373
:100EC000234B9A61704729B1214AD2690243204BD2
:100ED000DA6104E01E4AD26982431D4BDA61704731
:100EE00029B11B4AD2680243194BDA6004E0184A60
:100EF000D2688243164BDA60704729B1144A1269EE
:100F00000243134B1A6104E0114A12698243104BE9
:100F10001A61704712494039086070470F49C86428
:100F200070470B49C87170470948406A40F08070AB
:100F300007494862704701460020054A92680A4006
:100F40000AB1012000E00020704701498872704713
:100F5000001002400000FFF8FFFFF6FE00004242D2
:100F60008004424200127A0000093D001400002073
:100F70002400002010B50446FB48844209D1012119
:100F80008803FFF7ADFF00214FF48040FFF7A8FF73
:100F900032E0F648844209D101214804FFF7ADFF51
:100FA00000214FF40030FFF7A8FF25E0F04884420D
:100FB00009D101218804FFF7A0FF00214FF4802010
:100FC000FFF79BFF18E0EB48844209D10121C804D8
:100FD000FFF793FF00214FF40020FFF78EFF0BE097
:100FE000E548844208D101210805FFF786FF00216A
:100FF0004FF48010FFF781FF10BD2DE9F04786B058
:1010000005460E460024A24600BFA1460027B0892F
:1010100000B100BF2F462C8A4CF6FF700440F088C8
:1010200004432C82AC894EF6F3100440B088318919
:101030000843718908430443AC81AC8A4FF6FF40F2
:101040000440B0890443AC8201A8FFF7C2FEC64841
:10105000874202D1DDF810A001E0DDF80CA0A889DC
:1010600000F4004040B10AEBCA0000EB0A103168FE
:101070004900B0FBF1F807E00AEBCA0000EB0A10E8
:1010800031688900B0FBF1F86420B8FBF0F004018E
:101090002009642101FB1089A88900F4004040B1B7
:1010A000322000EBC900B0FBF1F000F00700044370
:1010B00008E0322000EB09106421B0FBF1F000F0F1
:1010C0000F0004432C8106B0BDE8F0874FF41651A1
:1010D000016000218180C18001810C2141810021BA
:1010E0008181704710B502460020108A4FF2FF033D
:1010F00018400B884C8823438C882343CC88234397
:101100001843108210BD0021018041808180C18080
:10111000704721B1828942F40052828104E08289C1
:101120004DF6FF731A4082817047F0B503460024E4
:1011300000260025002040F66A17B94200D100BF02
:101140001846C1F3421401F01F06012707FA06F5FD
:10115000012C01D10C3004E0022C01D1103000E050
:1011600014301AB107682F43076002E00768AF43E5
:101170000760F0BD1AB1838A0B43838202E0838A41
:101180008B4383827047028A4FF6F0731A400282C3
:10119000028A0A430282704782894FF2FF731A4023
:1011A000828182890A438281704721B1828942F01B
:1011B0000202828104E082894FF6FD731A40828127
:1011C0007047028A4FF6DF731A400282028A0A438E
:1011D0000282704721B1028A42F48042028204E016
:1011E000028A4BF6FF731A4002827047C1F308026D
:1011F0008280704701468888C0F308007047818963
:1012000041F0010181817047028BD2B20283028BCF
:1012100042EA012202837047028B02F47F4202837A
:10122000028B0A430283704721B1828A42F0200276
:10123000828204E0828A4FF6DF731A40828270470E
:1012400021B1828A42F01002828204E0828A4FF643
:10125000EF731A408282704721B1828A42F00802FD
:10126000828204E0828A4FF6F7731A4082827047C6
:1012700021B1828942F40042828103E08289C2F373
:101280000E028281704721B1828A42F4006282821A
:1012900004E0828A4FF2FF731A4082827047828A8A
:1012A0004FF6FB731A408282828A0A438282704719
:1012B00021B1828A42F00202828204E0828A4FF6E1
:1012C000FD731A408282704702460020B1F5007F0C
:1012D00000D100BF13880B400BB1012000E00020BB
:1012E000704701F40072B2F5007F00D100BFCA431D
:1012F0000280704770B502460024002300250020BC
:1013000040F66A16B14200D100BFC1F3421501F0A8
:101310001F03012606FA03F3012D02D196893340FB
:1013200006E0022D02D1168A334001E0968A33404E
:101330000C12012606FA04F41688344013B10CB1DD
:10134000012000E0002070BD10B50022002340F60F
:101350006A14A14200D100BF0A1201249440A3B232
:10136000DC43048010BD0000003801400044004010
:1013700000480040004C004000500040FFB593B0D2
:1013800014461D46204601F05FFE02AA23C29DF8C6
:101390004C0000909DF84F309DF84E2095A106A876
:1013A00002F0A0F806A801F0A8FC17B0F0BD10B537
:1013B0009B48007801280CD19A4801F09EFC00BFA0
:1013C00040219948FFF780FF0028F9D00020944978
:1013D000087096480078012846D1924800F0BEFA7D
:1013E000904993A002F06EF800BF40219148FFF7AA
:1013F0006BFF0028F9D090A18A4801F097FC58B102
:1014000020218F48FFF743FB01218D48FFF73FFB69
:1014100002218B48FFF73BFB8AA1824801F086FC42
:1014200058B120218648FFF734FB01218448FFF79B
:1014300030FB02218248FFF72CFB84A1794801F0A0
:1014400075FC20B14FF480518248FFF722FB82A146
:10145000744801F06BFC20B14FF480517D48FFF7D8
:1014600016FB00207149087010BD10B501F0ACFAF0
:1014700000F0C6F900F05CFA01F069F800F005FD33
:1014800001F0ECF901F05CF900F0B8FA01F00EFBA4
:1014900001F048FB01F0BCFB10BD1FB5FFF7E5FFF5
:1014A0006FA002F00FF800BFA94601F095F90546BC
:1014B000284601F0C9FD07463A460B466CA002F0EB
:1014C00001F8264600F0F7FB044621466BA001F028
:1014D000F9FF69A001F0F6FFDDE90001CDE90201A5
:1014E000684601F007FA18B9DDE90201CDE900010B
:1014F0009DF8001064A001F0E5FF9DF803209DF821
:10150000021064A001F0DEFF9DF803109DF80200B8
:1015100000F0B7FE9DF8000000F001FF204600F04B
:101520003CFF284600F092FF9DF80A001E280FDAC3
:101530009DF802001E280BDB062001F04EFB042064
:1015400001F098FA4FF480514248FFF7A0FA0CE0FE
:101550009DF80A001E2808DB9DF802001E2804DA08
:101560004FF480513B48FFF794FA3C2E11DD3C2CA0
:101570000FDC072001F031FB20213148FFF789FA09
:1015800001212F48FFF785FA02212D48FFF781FA44
:101590000FE03C2E0DDC3C2C0BDD20212848FFF712
:1015A00076FA01212648FFF772FA02212448FFF754
:1015B0006EFA484601F048FD07463A4A3A4B01F0B8
:1015C00057FD0BD2284601F03FFD0746354A364B02
:1015D00001F066FD02D8082001F0FFFA032001F0B7
:1015E00049FAFFF7E4FE23462A46DDE90001FFF74A
:1015F000C5FE59E774656D70202532642E25642080
:1016000068756D692025326420736F6D67202532FF
:101610002E3266206C696768742025640000000023
:10162000280000203400002000480040290000204D
:1016300025730A00003801406C656430000000002A
:10164000000C01406C6564310000000066616E3082
:10165000000000000010014066616E3100000000D3
:10166000B3F5CABCBBAFB3C9B9A60D0A00000000F0
:10167000D1CCCEED3A25660D0A000000B9E2D5D5F1
:101680003A25640D0A000000CAAAB6C83A256425A6
:10169000250D0A00CEC2B6C83A25642E25640D0A6F
:1016A00000000000CDCCCCCCCCCCFC3F704700BFC0
:1016B000FEE700BFFEE700BFFEE700BFFEE77047A2
:1016C000704770474548006820B144480068401E94
:1016D00042490860704710B520214148FFF7F4FDEA
:1016E00001280AD13E48FFF785FDC1B23D48047884
:1016F000601C3C4A10703C48015510213848FFF7E7
:10170000E3FD012811D13648FFF774FD3649354A0B
:101710001278885400213448324A127881540020CB
:101720003049087001203149087010BD10B52021E2
:101730002F48FFF7C9FD01280AD12D48FFF75AFDB0
:10174000C1B228480478601C264A1070264801550A
:1017500010212748FFF7B8FD012813D12448FFF7CF
:1017600049FDC1B21F480478601C1E4A10701E4813
:10177000015500211278815400201A490870012077
:101780001C49087010BD10B520211B48FFF79CFDB7
:1017900001280AD11848FFF72DFDC1B2114804787D
:1017A000601C104A10701048015510211248FFF7B4
:1017B0008BFD012811D11048FFF71CFD0A49094A89
:1017C0001278885400210848064A12788154002073
:1017D0000449087001200949087010BD2C00002040
:1017E000003801402B000020340000202800002099
:1017F000004400402A00002000480040290000204A
:1018000008B501210820FFF751FB10208DF80300D7
:101810002020ADF8000003208DF80200694615482D
:10182000FFF788F810208DF803000120ADF80000C4
:1018300003208DF8020069460E48FFF77BF8102060
:101840008DF803000220ADF8000003208DF802009F
:1018500069460848FFF76EF820210648FFF717F998
:1018600001210448FFF713F902210248FFF70FF99D
:1018700008BD0000000C01401FB501218803FFF7DF
:1018800015FB4FF4E13000900020ADF80C000C2067
:10189000ADF80A000020ADF80800ADF80600ADF87C
:1018A000040069464648FFF7A8FB012240F2255193
:1018B0004348FFF73AFC012240F224414048FFF739
:1018C00034FC01213E48FFF724FC1FBD08B54FF44E
:1018D000A060FEF739FD25208DF8000001208DF86D
:1018E000030002208DF801008DF802006846FEF723
:1018F00030FD08BD08B501210420FFF7D7FA042008
:101900008DF803000002ADF8000069462D48FFF78E
:1019100011F818208DF803004FF40070ADF80000A6
:1019200003208DF8020069462648FFF703F808BD3A
:1019300010B5FFF7DFFFFFF7C9FFFFF79DFF10BDF1
:1019400010B5044621461E48FFF750FC00BF802119
:101950001B48FFF7B9FC0028F9D010BD70B504464C
:10196000002504E0605DFFF7EBFF681CC5B2605D19
:101970000028F7D100BF40211148FFF7A5FC00283F
:10198000F9D070BD70B504460D46E1B20C48FFF7C2
:101990002DFC00BF80210A48FFF796FC0028F9D0F3
:1019A000204670BD10B5044600BF20210448FFF753
:1019B0008BFC0028F9D00248FFF71CFC10BD00008A
:1019C0000038014000080140002001E0411EC8B27B
:1019D0000A28FBDB704710B54FF40071C548FFF7CC
:1019E00058F84FF48071C348FFF751F8FFF7ECFF48
:1019F0004FF40071BF48FFF74AF810BD08B5012148
:101A00001020FFF753FA14208DF803004FF4807074
:101A1000ADF8000003208DF802006946B548FEF7D6
:101A200089FF14208DF803004FF40070ADF800001A
:101A300003208DF802006946AE48FEF77BFFFFF7F2
:101A4000CAFF08BD10B54FF48071AA48FFF705F82A
:101A500038B14FF40071A748FEF7FFFF08B101202D
:101A600000E0002008B9002010BD4FF40071A1482B
:101A7000FFF70DF84FF480719E48FFF708F8FFF765
:101A8000A3FF4FF400719B48FFF703F8FFF79CFF9B
:101A90004FF480719748FEF7FCFF0120E4E710B592
:101AA0004FF400719348FEF7F2FFFFF78DFF4FF4FC
:101AB00080719048FEF7EBFFFFF786FF4FF400714F
:101AC0008C48FEF7CAFF40B14FF480718948FEF799
:101AD000E0FFFFF779FF002010BD4FF480718548CB
:101AE000FEF7D7FFFFF770FF0120F5E710B54FF4C1
:101AF00080718048FEF7CDFF4FF400717D48FEF7FE
:101B0000C6FFFFF761FF4FF400717A48FEF7C1FF8F
:101B1000FFF75AFF4FF480717648FEF7B8FFFFF7E2
:101B200053FF4FF480717348FEF7B3FFFFF74CFF8C
:101B30004FF400716F48FEF7AAFF10BD70B5044660
:101B40004FF400716B48FEF7A2FFFFF73DFF07253A
:101B500020E04FF480716748FEF799FF4FF4007161
:101B60006448FEF77AFF28B120780121A940084394
:101B7000207004E021780120A84081432170FFF704
:101B800023FF4FF480715B48FEF783FFFFF71CFFD4
:101B9000681E45B2002DDCDA70BD70B5054607241D
:101BA00020E00120A040284028B14FF400715148A6
:101BB000FEF76DFF04E04FF400714E48FEF769FF39
:101BC000FFF702FF4FF480714A48FEF760FFFFF70E
:101BD000FBFE4FF480714748FEF75BFFFFF7F4FE12
:101BE000601E44B2002CDCDA4FF400714148FEF76D
:101BF0004EFF70BD10B50446FFF724FF38B9C62369
:101C00003D4A3EA143A001F05DFC002010BD4620EE
:101C1000FFF7C3FFFFF743FF48B9CE23364A37A18A
:101C200047A001F04FFCFFF7D6FE0020EEE720466C
:101C3000FFF7B3FFFFF733FF48B9D7232E4A2FA191
:101C40003FA001F03FFCFFF7C6FE0020DEE7FFF7F4
:101C5000C2FE0120DAE71CB50446FFF7F3FE38B9EF
:101C6000ED23424A25A12BA001F02CFC00201CBD35
:101C70004720FFF792FFFFF712FF48B9F5233B4AD1
:101C80001EA12FA001F01EFCFFF7A5FE0020EEE72D
:101C900001A8FFF753FFFFF729FF6846FFF74EFF44
:101CA000FFF799FE9DF800009DF8041040EA01201E
:101CB00020800120DBE72DE9F8430120FFF79AFFA0
:101CC0002020FFF797FF6846FFF7C5FFBDF800002B
:101CD00001F094F905464FF03332254B01F01AF923
:101CE000074601F0F5F90446204601F094F980B268
:101CF000BDE8F88300100140E83D00082E2E5C5539
:101D00007365725C6C696768745C6C696768742E73
:101D10006300000046696C653A3C25733E204675B9
:101D20006E3A5B25737D204C696E653A25640AD74F
:101D3000DCCFDFD2D1B1BBD5BCD3C30A00000000D9
:101D400046696C653A3C25733E2046756E3A5B25C4
:101D5000737D204C696E653A25640AB4D3BBFAC31F
:101D6000BBD3D0CFECD3A60A00000000F63D00089C
:101D70003333F33F10B50446204600F0B7FC00F0C3
:101D800046FC48B91323F84AF8A1FEA001F09AFBDB
:101D900000F0CDFB002010BD0120FCE770B505462A
:101DA0000C462846FFF7E6FF08B9002070BD204624
:101DB000FFF7E0FF08B90020F8E70120F6E770B56B
:101DC00004460D4600F0E5FB012807D03923F84A08
:101DD000E6A1F8A001F076FB002070BD7820FFF7A7
:101DE000C9FF00B909E029462046FFF7D7FF00B92F
:101DF00003E000F09CFB0120EFE700F098FB0020DF
:101E0000EBE770B505460E4600F0C3FB30B9592329
:101E1000F34AD6A1E7A001F055FB28E07820FFF7B0
:101E2000A9FF00B923E005F1B000C1B28020FFF79F
:101E3000B5FF00B91BE000218020FFF7AFFF00B91C
:101E400015E010218020FFF7A9FF00B90FE0002462
:101E500007E0315DC020FFF7A1FF00B907E0601C7B
:101E600004B2802CF5DB00F062FB012070BD002085
:101E7000FCE710B5002405E0DA492046FFF7C1FF72
:101E8000601CC4B2082CF7DB10BD10B500F081FB5C
:101E90007820FFF76FFFAE218020FFF77FFF002142
:101EA0008020FFF77BFF10218020FFF777FF402184
:101EB0008020FFF773FF81218020FFF76FFFCF2184
:101EC0008020FFF76BFFA1218020FFF767FFC8216B
:101ED0008020FFF763FFA6218020FFF75FFFA82186
:101EE0008020FFF75BFF3F218020FFF757FFD321C2
:101EF0008020FFF753FF00218020FFF74FFFD521FF
:101F00008020FFF74BFF80210846FFF747FFD921CC
:101F10008020FFF743FFF1218020FFF73FFFDA2108
:101F20008020FFF73BFF12218020FFF737FFDB21E6
:101F30008020FFF733FF40218020FFF72FFF202173
:101F40008020FFF72BFF02218020FFF727FF8D2144
:101F50008020FFF723FF14218020FFF71FFFA4211B
:101F60008020FFF71BFFA6218020FFF717FFAF217E
:101F70008020FFF713FF00F0DAFAFFF77AFF10BDB9
:101F80002DE9F04107460C4690461E4600F001FB45
:101F90007820FFF7EFFE07F1B000C1B28020FFF715
:101FA000FDFE04F00F018020FFF7F8FE102040EA4C
:101FB00024118020FFF7F2FE002507E008EB461011
:101FC000415DC020FFF7EAFE681CC5B2102DF5DBAD
:101FD00007F1B100C1B28020FFF7E0FE04F00F016D
:101FE0008020FFF7DBFE102040EA24118020FFF75D
:101FF000D5FE002508E008EB46101030415DC020FA
:10200000FFF7CCFE681CC5B2102DF4DB00F08FFA90
:10201000BDE8F0812DE9F04107460D4690461E4689
:1020200000240AE0102000FB0450C1B223464246BF
:102030003846FFF7A5FF601CC4B2B442F2DBBDE82E
:10204000F0812DE9FF4F81B081460C460E9F20465E
:10205000E11704EB5171C910B03101F0FF0A049887
:102060007843039901EB400600F093FA7820FFF7DC
:1020700081FE4FF0000876E0B8F1020F07D1E117BA
:1020800004EB5171C910A4EBC10101B9B0E0514694
:102090004A1C02F0FF0A8020FFF780FEAAF101002F
:1020A000B72801D14FF0B00A09F00F018020FFF7E7
:1020B00075FE102040EA29118020FFF76FFE0020F6
:1020C000009049E0B8F1000F06D0B8F1010F11D02F
:1020D000B8F1020F3AD128E02546E01704EB507022
:1020E000C010A4EBC00230789040C1B2C020FFF70E
:1020F00055FE2BE02546E01704EB5070C010A4EB12
:10210000C000C0F10802F01B00781041A346E2179E
:1021100004EB5272D210A4EBC20332789A401043FF
:10212000C1B2C020FFF73AFE10E02546E01704EBED
:102130005070C010A4EBC000C0F10802F01B007882
:1021400040FA02F1C020FFF729FE00BF00BF761C55
:102150000098401CC0B200900098B842B2DB08F171
:10216000010000F0FF083FE0D54500082E2E5C5529
:102170007365725C6F6C65645C6932635F6F6C651C
:10218000642E630046696C653A3C25733E204675B3
:102190006E3A5B25737D204C696E653A25640AB4FE
:1021A000D3C9E8B1B8C3BBD3D0D3A6B4F00A0000FA
:1021B000E545000846696C653A3C25733E20467546
:1021C0006E3A5B25737D204C696E653A25640AD7AB
:1021D000DCCFDFD2D1B1BBD5BCD3C30A0000000035
:1021E000F445000848000020B8F1030FFFF644AFA3
:1021F00000BF00F09CF905B0BDE8F08F2DE9F84371
:102200000546884691461E46089F00240AE007FBC3
:102210000451C8B223464A4641460097FFF711FFD2
:10222000601CC4B2B442F2DBBDE8F88310B500F024
:10223000B0F97820FFF79EFD29218020FFF7AEFD41
:1022400000218020FFF7AAFD00218020FFF7A6FDD6
:1022500000218020FFF7A2FD07218020FFF79EFDCF
:1022600000218020FFF79AFD2F218020FFF796FDA7
:1022700000F05DF910BD10B52E210020FFF79FFD85
:1022800010BDF8B504460D4610200023A14A19469A
:1022900000901846FFF7D5FE102002239D4A00212A
:1022A0000090FFF7CEFE08201A239B4A00210090E1
:1022B0002020FFF7C6FE0A2094FBF0F01030C6B2D3
:1022C00008203346944A002100902820FFF7B9FEE9
:1022D0000A2094FBF0F100FB11401030C6B2082038
:1022E00033468D4A002100903020FFF7AAFE0820D7
:1022F0000E23894A002100903820FFF7A2FE0A2011
:1023000095FBF0F100FB11501030C6B208203346A7
:10231000814A002100904020FFF793FEF8BD38B5B8
:102320000446102001237B4A014600900020FFF75D
:1023300088FE10200223774A01460090FFF781FEB5
:1023400008201A23744A102100902020FFF779FEFC
:102350000A2094FBF0F01030C5B208202B466E4ADC
:10236000102100903020FFF76CFE0A2094FBF0F162
:1023700000FB11401030C5B208202B46664A1021E0
:1023800000903820FFF75DFE08200523624A1021E7
:1023900000904020FFF755FE38BDF8B5064635469B
:1023A000102003235B4A202100900020FFF749FE04
:1023B00010200423574A20210090FFF742FE0820F6
:1023C0001A23554A202100900846FFF73AFE0024C0
:1023D0000BE00820E10028310090C8B200234E4AEB
:1023E0002021FFF72EFE601CC4B2042CF1DB0A2072
:1023F00095FBF0F100FB11501030C7B208203B46AE
:10240000454A202100904020FFF71BFE012417E0E1
:102410000A2095FBF0F085B20A2095FBF0F100FB55
:1024200011501030C7B20820E100C1F14001009006
:10243000C8B23B46384A2021FFF703FE601CC4B2F5
:102440000A2095FBF0F00028E2D1F8BDF8B504466B
:102450002546102005232F4A302100900020FFF749
:10246000F0FD102006232B4A30210090FFF7E9FDF4
:1024700008201A23284A302100902020FFF7E1FD90
:10248000284600F0C8FD0A2190FBF1F201FB120082
:102490001030C6B2082033461F4A30210090282051
:1024A000FFF7CFFD08200E231B4A3021009008467D
:1024B000FFF7C7FD1949284600F04AFC05462846A3
:1024C00000F0A9FD0A2190FBF1F201FB120010308F
:1024D000C6B208203346104A302100903820FFF75A
:1024E000B0FD0E49284600F033FC0546284600F0B2
:1024F00092FD0A2190FBF1F201FB12001030C6B2EE
:1025000008203346044A302100904020FFF799FD0F
:10251000F8BD0000F5440008053F00080000204118
:10252000002001E0411EC8B20A28FBDB704710B54D
:1025300080218248FEF7ADFA40218048FEF7A7FAD5
:10254000FFF7EEFF80217D48FEF7A1FA10BD08B528
:1025500001210820FEF7AAFC14208DF8030040207A
:10256000ADF8000003208DF8020069467348FEF7BD
:10257000E1F914208DF803008020ADF8000003205D
:102580008DF8020069466D48FEF7D4F9FFF7CFFFDA
:1025900008BD10B540216948FEF75FFA30B18021CF
:1025A0006648FEF75AFA08B1012000E0002008B999
:1025B000002010BD80216148FEF769FA40215F4884
:1025C000FEF765FAFFF7ACFF80215C48FEF761FA81
:1025D000FFF7A6FF40215948FEF75BFA0120E8E724
:1025E00010B580215548FEF752FA40215348FEF7B6
:1025F0004EFAFFF795FF80215048FEF74AFAFFF7A1
:102600008FFF40214D48FEF744FA012010BD10B560
:1026100080214A48FEF73BFAFFF782FF40214748F6
:10262000FEF735FAFFF77CFF80214448FEF715FAE4
:1026300038B140214148FEF72CFAFFF771FF002026
:1026400010BD40213D48FEF724FAFFF769FF012045
:10265000F6E710B540213948FEF71BFA80213748CC
:10266000FEF715FAFFF75CFF80213448FEF711FAF8
:10267000FFF756FF40213148FEF709FAFFF750FFF8
:1026800040212E48FEF705FAFFF74AFF80212B482C
:10269000FEF7FDF910BD70B5044680212748FEF70E
:1026A000F6F9FFF73DFF07251DE040212348FEF71F
:1026B000EEF980212148FEF7D0F928B120780121D8
:1026C000A9400843207004E021780120A8408143FC
:1026D0002170FFF725FF40211848FEF7DAF9FFF7D0
:1026E0001FFF681E45B2002DDFDA70BD70B50546CC
:1026F00007241CE00120A040284020B180210F4881
:10270000FEF7C5F903E080210C48FEF7C2F9FFF798
:1027100007FF40210948FEF7BAF9FFF701FF402102
:102720000648FEF7B6F9FFF7FBFE601E44B2002C28
:10273000E0DA80210148FEF7AAF970BD000C0140E3
:1027400000B587B001211020FEF7B0FB012148023F
:10275000FEF7ACFB00208DF81B000220ADF818003E
:1027600003208DF81A0006A93948FEF7E3F8002087
:102770008DF8090004904FF4602003900020019030
:1027800001208DF8140000208DF8080001A93148BF
:10279000FDF76FFE4FF40040FEF7ECFA052301222F
:1027A0000B212C48FDF7FDFE01212A48FDF78DFE87
:1027B0002848FDF7ACFE00BF2648FDF7ADFE012816
:1027C000FAD02448FDF7B2FE00BF2248FDF7B3FE61
:1027D0000128FAD007B000BD2DE9F84F0024A1462A
:1027E00018E001211B48FDF7B0FE00BF1948FDF7B6
:1027F000B7FE0128FAD000BF02211648FEF716F8EE
:102800000028F9D01348FDF733FF044409F1010013
:1028100000F0FF09B9F10A0FE3DB0A20B4FBF0F482
:10282000204600F0E6FB4FF08B41009000F0C2FA2A
:10283000834600F009FC07464FF06632064B00F075
:10284000F7FA054600F044FC82465046BDE8F88F92
:10285000001001400024014066660A4008B50121CD
:102860004020FEF723FB14208DF803004020ADF834
:10287000000003208DF8020069465248FEF75AF81E
:1028800008BD70B50025002630E04FF6FF7406E065
:1028900040214C48FEF7E1F8012800D104E0201E59
:1028A000A4F101018CB2F3D100BF0CB9002070BDBE
:1028B000282000F0BBF86806050E40214148FEF7CD
:1028C000CCF805434FF6FF7405E040213D48FEF784
:1028D000C4F800B904E0201EA4F101018CB2F4D1C7
:1028E00000BF0CB90020E2E7701CC6B2082ECCDB9A
:1028F0002846DCE770B5044640213248FEF7C9F8A7
:10290000142000F0ABF840212E48FEF7C0F84FF637
:10291000FF7505E040212B48FEF79FF800B904E061
:10292000281EA5F101018DB2F4D100BF0DB9002020
:1029300070BD4FF6FF7506E040212248FEF78DF886
:10294000012800D104E0281EA5F101018DB2F3D1C8
:1029500000BF0DB90020EBE74FF6FF7505E0402101
:102960001848FEF77AF800B904E0281EA5F1010125
:102970008DB2F4D100BF0DB90020D9E7FFF781FF78
:102980002070FFF77EFF6070FFF77BFFA070FFF7FE
:1029900078FFE070FFF775FF20713C2000F046F8EB
:1029A00040210848FEF773F8207861780844A17840
:1029B0000844E17808442179884201D00020B7E733
:1029C0000120B5E70018014070B54821B1F1807FC2
:1029D00001D301201DE021F07F40401E4FF0E02296
:1029E000506150170F22002807DA13071D0E274BDE
:1029F00000F00F04241F1D5503E013071C0E244B89
:102A00001C5400BF00204FF0E022906107201061AD
:102A1000002010B11FA000F055FD4FF0E02000692C
:102A200020F001004FF0E021086170BD1E490860F0
:102A30004FF0E021096941F001014FF0E0221161FE
:102A400000BF194909680029FBD14FF0E02109694D
:102A500021F001014FF0E0221161704710B50346EB
:102A6000002404E04FF47A70FFF7E0FF641C9C42FE
:102A7000F8D310BD30B50446002504E04FF47A7059
:102A8000FFF7ECFF6D1CA542F8D330BD18ED00E058
:102A900000E400E0B5CEB4F0B6A8CAB1C6F7C9E804
:102AA000D6C3B4EDCEF30A002C00002008B50121F6
:102AB0001020FEF7FBF910208DF803000002ADF89E
:102AC000000003208DF8020069460448FDF732FF3C
:102AD0004FF480510148FDF7DCFF08BD00100140B4
:102AE00010B5044621464848FEF780FB00BF802110
:102AF0004548FEF7E9FB0028F9D010BD10B50446A3
:102B0000AA20FFF7EDFF1320FFF7EAFF0120FFF7F0
:102B1000E7FF2046FFF7E4FF04F1BE0188B2FFF7AC
:102B2000DFFF10BD00B587B001210420FEF7BEF91C
:102B300001214804FEF7C7F94FF4A060FDF704FC3B
:102B400026208DF8040001208DF807008DF805007F
:102B50008DF8060001A8FDF7FCFB04208DF81B0092
:102B60000820ADF8180006A92848FDF7E3FE182054
:102B70008DF81B000420ADF8180003208DF81A0012
:102B800006A92248FDF7D6FE4FF416500290002009
:102B9000ADF814000C20ADF812000020ADF81000C4
:102BA000ADF80E00ADF80C0002A91748FEF725FAA3
:102BB000012240F225511448FEF7B7FA012240F2F3
:102BC00024411148FEF7B1FA01210F48FEF7A1FA9E
:102BD0000F20FFF793FF07B000BD70B5044604F166
:102BE000B305AA20FFF77CFF0720FFF779FF02203B
:102BF000FFF776FF0020FFF773FF2046FFF770FF17
:102C00002846FFF76DFF70BD0044004000080140FA
:102C100000B587B001210820FEF748F9012188049A
:102C2000FEF751F94FF4A060FDF78EFB27208DF8D9
:102C3000040001208DF8070000208DF805008DF8B4
:102C4000060001A8FDF785FB04208DF81B0040025B
:102C5000ADF8180006A93348FDF76CFE18208DF872
:102C60001B004FF48060ADF8180003208DF81A00A7
:102C700006A92C48FDF75EFE10208DF81B00000110
:102C8000ADF8180003208DF81A0006A92548FDF7B5
:102C900051FE4FF4E13002900020ADF814000C20FA
:102CA000ADF812000020ADF81000ADF80E00ADF840
:102CB0000C0002A91C48FEF7A0F9012240F22551A0
:102CC0001948FEF732FA012240F224411648FEF775
:102CD0002CFA01211448FEF71CFA07B000BD10B50C
:102CE000044621461048FEF781FA00BF80210E48B5
:102CF000FEF7EAFA0028F9D010BD70B504460025A9
:102D000004E0605DFFF7EBFF681CC5B2605D002862
:102D1000F7D100BF40210448FEF7D6FA0028F9D0C9
:102D200070BD0000000C01400048004030B5054671
:102D30002A460B4612F8010B13F8014B08B1A042CA
:102D4000F8D01CB1002802D06D1CF1E7284630BD38
:102D500080EA010210B502F00043400022D04A0090
:102D60001FD0010E01EB1261C0F35600C2F35602F0
:102D700040F4000042F40002A0FB022000047F396E
:102D8000140400D0401C50EA124001D44000491EF7
:102D9000C2B20C0604EBD010401C4008802A02D0BE
:102DA00003E0002010BD20F00100002900DA00201F
:102DB000184310BD30B480EA010202F0004530F043
:102DC000004221F0004013D090B1C30DD40DC2F3E6
:102DD0001601C0F31600E41A41F4000140F40002A9
:102DE0007D34914201D3641C00E04900002C02DADA
:102DF00030BC002070474FF400000023914201D303
:102E0000891A034340084FEA4101F7D151B1914279
:102E100002D14FF0004105E002D24FF0010101E084
:102E20006FF0010103EBC450284430BC00F0B3B98B
:102E30002DE9FE4F81EA030404F0004421F0004133
:102E400000944FF0000B23F0004350EA01045ED0E1
:102E500052EA03045BD0C3F30A54C1F30A552C446D
:102E6000A4F2F3340194A0FB0254C1F3130141F422
:102E70008011C3F3130343F4801301FB024400FBEE
:102E8000034E840A970A44EA815447EA8357A4FB15
:102E9000076802958D0A05FB07854FEA932C04FB12
:102EA0000C542705029D4FEA065847EA1637B5EB42
:102EB00008056EEB070C870E920E47EA811742EA6F
:102EC0008312A7FB0201B6EB0B0164EB00042B0D90
:102ED00043EA0C335E1844EB1C50DA465146E7FBDC
:102EE0000201C5F313044FEA0B3343EA14534FEACC
:102EF0000432019C43EA0603A4F10C040294009CF2
:102F0000CDE900B400F08DF903B0BDE8F08F0020EA
:102F10000146F9E72DE9F04D81EA030404F0004B86
:102F200021F0004514464FF0000A23F0004150EA1A
:102F3000050220D054EA01021DD0C5F30A5702460B
:102F4000C5F31303C1F31300C1F30A5640F480150F
:102F500043F48013A7EB0608101BD64608F2FD3891
:102F600073EB050002D308F1010801E092185B4100
:102F7000B8F1000F03DA00200146BDE8F08D002013
:102F80004FF48011064684460EE0171B73EB0507CD
:102F900005D3121B63EB050306434CEA010C4908F9
:102FA0004FEA300092185B4150EA0107EDD152EA36
:102FB000030012D082EA040083EA0501084305D029
:102FC000101BAB4106D20122002306E000224FF085
:102FD000004302E06FF0010253101AEB06004CEBC5
:102FE000085110EB0A0041EB0B01BDE8F04D00F079
:102FF00009B996230022114600F0D6B80EB540F26A
:10300000334102910021CDE900110A460B4600F040
:1030100008F903B000BD00F0004220F00040C10DEF
:10302000C0F3160040F400007F2901DA0020704749
:10303000962903DCC1F19601C84001E09639884029
:10304000002AF4D04042704700F0004230F00040C7
:103050000AD0C10D01F56071C0F3160042EA0151BA
:10306000C208400711437047002001467047000026
:1030700030B5041E71F1000404DB4FF000444042FF
:1030800064EB0101141E73F1000405DB1C464FF0D4
:103090000043524263EB04038B4208BF824230BDBF
:1030A00030B5041E71F1000404DB4FF000444042CF
:1030B00064EB0101141E73F1000405DB1C464FF0A4
:1030C0000043524263EB0403994208BF904230BD73
:1030D00001F0004330B421F0004150EA010206D073
:1030E0000A0DA2F56072C1F31301002A02DC30BCA4
:1030F00000207047440F44EAC104C100E01830BC0E
:1031000000EBC25000F047B830B50B460146002036
:103110002022012409E021FA02F59D4205D303FA99
:1031200002F5491B04FA02F52844151EA2F101021A
:10313000F1DC30BD2DE9F05F0546002092469B464C
:1031400088460646814640241BE0284641464746BD
:10315000224600F094F953465A46C01A914110D3C2
:1031600011461846224600F07BF92D1A67EB01083C
:103170004F4622460120002100F072F917EB0009AA
:103180004E41201EA4F10104DFDC484631462A46A8
:103190004346BDE8F09F0029A8BF7047401C490086
:1031A00008BF20F00100704710B4B0FA80FC00FAAC
:1031B0000CF050EA010404BF10BC704749B1CCF1D7
:1031C000200421FA04F411FA0CF118BF0121214363
:1031D0000843A3EB0C01CB1D4FEA00614FEA10201E
:1031E00042BF002010BC704700EBC35010440029C0
:1031F000A4BF10BC7047401C490008BF20F001006C
:1032000010BC704710B5141E73F1000408DA401C9E
:1032100041F1000192185B411A4301D120F00100F5
:1032200010BD2DE9F04D92469B4611B1B1FA81F2E5
:1032300002E0B0FA80F22032904600F011F9044624
:103240000F4640EA0A0041EA0B0153465A4608433A
:1032500013D0114653EA010019D0C8F1400250467C
:1032600000F00DF905460E4650465946424600F01C
:10327000F7F8084305D0012004E020463946BDE8B0
:10328000F08D0020054346EAE0762C4337430A9848
:103290006305E40AA0EB08000022FD0A44EA475453
:1032A0000A3002D500200146E9E7010510196941FD
:1032B000DDE9084500196941BDE8F04DA2E72DE9B7
:1032C000FE4F804681EA0300C00F0C46009021F0BB
:1032D000004123F00045B8EB0200A94105D2404669
:1032E000214690461C460B46024623F00040104300
:1032F00047D0270DC7F30A00C3F30A510290401AC2
:10330000019040286BDAC3F3130040F4801B00984F
:10331000924620B10023D2EB030A63EB0B0B01981A
:103320005946C0F14002504600F09AF806460D4654
:1033300050465946019A00F0B2F810EB080061417E
:10334000002487EA115284EAE7731A4340D0009AB6
:1033500062B3019A012A4FEA075215DC001B61EBA8
:1033600002014FF0004202EA0752CDE90042001C80
:1033700041F5801132462B46FFF753FF03B0BDE8FD
:10338000F08F40462146F9E7001B61EB0201001C6B
:1033900041F5801300185B412018A2F5001747EB98
:1033A000030140EAD570B6196D4111E06D084FEA8E
:1033B000360645EAC0754FEA0752001B61EB020171
:1033C000001C41F5801149084FEA300000195141B5
:1033D00032462B4603B0BDE8F04FFFF713BF00980D
:1033E000012240000023D0EB020263EBE07300985F
:1033F00021464FEAE074B8EB000061EB0401E9E715
:1034000083F000435BE781F0004158E7C1F30A52C3
:10341000C1F3130140F2FF3341F480119A4202DA02
:1034200000200146704740F233439A42A2F23342F1
:1034300002DC524200F023B800F012B8064C074DEF
:1034400006E0E06840F0010394E807009847103474
:10345000AC42F6D3FCF770FE044600082446000890
:10346000202A04DB203A00FA02F100207047914044
:10347000C2F1200320FA03F3194390407047202A39
:1034800004DB203A21FA02F00021704721FA02F30E
:10349000D040C2F120029140084319467047202ACB
:1034A00006DBCB17203A41FA02F043EAE07306E06C
:1034B00041FA02F3D040C2F120029140084319467C
:1034C000704700000FB4054B10B503A9044A0298D9
:1034D00000F0EEF810BC5DF814FB00008519000840
:1034E000300000200FB4084B10B504A902AA0398BD
:1034F00000F0DEF8044602A9002000F070FC20462F
:1035000010BC5DF814FB0000DF3D000802E008C8B5
:10351000121F08C1002AFAD170477047002001E04D
:1035200001C1121F002AFBD1704700002DE9FF5F87
:1035300082B00021DDE90430020DDDF840B0034324
:1035400018D044F61050A2F2FF32424315141198DD
:1035500001281FD0A5EB0B00401C5FEA000A4FF0CA
:1035600000064E4FDFF83891B046504615D5CAF1E7
:10357000000413E0119801244AA3012801D16FEA45
:103580000B010298119AC0E90031C0E9024206B06D
:10359000BDE8F09FCBF10000DFE704460021404A80
:1035A000491842EB0450CDE9001012E0E00707D0C3
:1035B00032463B4640464946FFF73AFC804689463C
:1035C00032463B4610461946FFF732FC06460F4688
:1035D0006410002CEAD1DDE90401DDE90023BAF131
:1035E000000F06DAFFF724FC42464B46FFF720FCAB
:1035F00005E0FFF78FFC42464B46FFF78BFC044685
:103600000E460022284BFFF74BFD03D84FF0FF304A
:10361000014607E00022254B20463146FFF74FFECA
:10362000FFF7F4FE102409E0002C0ADB0A22002335
:10363000FFF780FD039B30321A55641E50EA0102E9
:10364000F2D1641C039AC4F111031444119A012AA3
:1036500003D0012208430DD10AE0084304D0002022
:103660004FF0110B119072E7A3EB0B056D1E0DE0EF
:103670005B4504DD4FF0000205F1010504E003DACB
:103680004FF00002A5F10105002AECD00298119933
:10369000C0E90231C0E9004579E7000000001440AC
:1036A0000000F03F300000000000F0430000E03F69
:1036B0002DE9FF4F95B09B468946064600250FE24F
:1036C000252877D100242746F84A0121059400E0F7
:1036D000044316F8013F203B01FA03F01042F7D1F2
:1036E00030782A2811D06FF02F033078A0F1300203
:1036F000092A16D8059A44F0020402EB820203EB71
:1037000042021044761C0590EFE759F8042B05920D
:10371000002A03DA504244F40054059044F00204B5
:10372000761C30782E2816D116F8010F44F00404C8
:103730002A280DD06FF02F023078A0F13003092B2A
:1037400009D807EB870302EB4303C718761CF3E79E
:1037500059F8047B761C30786C280FD006DC4C2896
:1037600017D068280DD06A2814D104E0742810D02E
:103770007A280FD10DE044F400140AE044F48014D8
:1037800001E044F440147278824202D104F58014BE
:10379000761C761C307866280BD013DC582877D03E
:1037A00009DC002875D04528F6D04628F4D04728F3
:1037B0001AD19DE118E0632835D0642879D06528B6
:1037C00012D195E1702873D008DC6728F1D0692800
:1037D0006FD06E280DD06F2806D1B5E073282CD09D
:1037E000752875D0782874D05A46179990476D1C63
:1037F00075E1C4F30250022809D003280DD0D9F88E
:10380000001004280DD00D6009F1040967E1D9F812
:103810000010EA17C1E90052F6E7D9F800100D8050
:10382000F2E70D70F0E719F8041B8DF80010002086
:103830008DF80100EA46012003E059F804AB4FF08F
:10384000FF3061074FF0000102D40DE008F10101E3
:103850008846B9420FDA8045F8DB1AF808100029CB
:10386000F4D108E008F1010188468142FADB1AF838
:1038700008100029F6D105985B46A0EB0807214601
:103880003846179A00F094FA284400EB080507E040
:103890004DE029E10DE01AF8010B5A4617999047BF
:1038A000B8F10108F7D25B4621463846179A13E172
:1038B00042E00A220092C4F302524FF0000A022AA8
:1038C00008D059F804CB032A4FEAEC710AD00DE076
:1038D00029E02AE009F1070121F00702F2E802C11C
:1038E000914609E00FFA8CFC4FEAEC71042A03D1EF
:1038F0004FFA8CFC4FEAEC71002907DA0A460021E6
:10390000DCF1000C61EB02012D2202E0220504D55E
:103910002B228DF80420012203E0E20701D02022AF
:10392000F7E7904659E00A2102E010220DE010214D
:103930004FF0000A00910BE010224FF0000A44F013
:1039400004040827009203E008224FF0000A0092C6
:10395000C4F30252022A05D059F804CB0021032AED
:1039600008D009E009F1070121F00702F2E802C1DD
:10397000914605E01FFA8CFC042A01D10CF0FF0CE3
:103980004FF00008220728D5702806D0009B83F04E
:10399000100353EA0A0305D00EE040228DF80420FC
:1039A000012208E05CEA010206D030228DF80420F2
:1039B0008DF8050002229046009B83F0080353EA2D
:1039C0000A030AD15CEA010201D1620705D530225F
:1039D0008DF804204FF001087F1E582804D034A031
:1039E00003900EA802900DE036A0F9E7534660461A
:1039F000009AFFF79FFB84460398825C0298401E62
:103A0000029002705CEA0100F0D1029806A9081A3F
:103A100000F1200A600702D524F4803400E0012779
:103A2000574502DDA7EB0A0000E0002000EB0A0189
:103A3000009005984144401A0590E00306D45B4687
:103A40002146179A059800F0B3F90544002706E0CF
:103A500001A85A46C05D179990476D1C7F1C4745C9
:103A6000F6DBE0030CD55B462146179A059800F07B
:103A70009FF9054404E030205A46179990476D1C81
:103A80000099481E00900029F5DC08E00298029990
:103A90005A460078491C0291179990476D1CBAF15B
:103AA0000001AAF1010AF1DC65E10000092801002A
:103AB00030313233343536373839616263646566A4
:103AC0000000000030313233343536373839414266
:103AD000434445460000000000F058F90544761CB8
:103AE000307800287FF4ECAD19B02846BDE8F08F9F
:103AF000620700D4062709F1070222F0070CFCE850
:103B00000223E14603F000485FEA080C02D00FF2FE
:103B1000702C0DE05FEA045C02D50FF2682C07E020
:103B20005FEAC47C02D00FF2602C01E0AFF2700CAF
:103B30004FF0FF3823F00043CDF850C065280CD07B
:103B400006DC452809D046281DD047283DD13DE058
:103B5000662818D067287ED138E00021112F01DBBC
:103B6000112000E0781CCDE9000106A90EA8FFF79E
:103B7000DDFCDDE90F010E9A03910021009207F1AF
:103B8000010A04914DE04FF000400097CDE901108B
:103B900006A90EA8FFF7CAFCDDE90F0203920E9BEF
:103BA00011990022DDF80CA00093049211B9791C40
:103BB00000EB010AB7EB0A0004D4C0F1FF3007F1B3
:103BC000010A0490AAEB0700019044E0012F00DAFB
:103BD00001270021112F01DD112000E03846CDE939
:103BE000000106A90EA8FFF7A1FCDDE90F010E9A5E
:103BF0000391002104910092BA4621070CD4039945
:103C0000514500DA8A46BAF1010F05DD009AAAF1A2
:103C10000101515C302908D0B84202DA10F1040FDA
:103C200006DA0121CDE9011015E0AAF10101E9E769
:103C3000002805DC049901440491AAEB000102E08C
:103C4000411C514500DD8A460499401A401C0190F0
:103C50004FF000400290200704D40198504501DB4A
:103C6000CDF8048000208DF84F0002980DF14F0729
:103C7000B0F1004F25D02B200E9002984FF0020893
:103C800000280CDA404202902D200E9007E00A2115
:103C90000298FFF739FA3031029007F8011DB8F1A8
:103CA0000001A8F10108F2DC02980028EFD1791E8A
:103CB0000E980870307800F0200040F0450007F8BA
:103CC000020D12A8C01B00F107081498007800B17B
:103CD000012000EB0A01019801EBE07105984144D5
:103CE000401A401E0590E00306D45B462146179A11
:103CF000059800F05DF805441498007818B15A460C
:103D0000179990476D1CE00324D55B462146179A0E
:103D1000059800F04DF805441CE00498002807DBE6
:103D2000DDE90301884203DD0098405C179901E05A
:103D3000179930205A469047049805F10105401C18
:103D400004900198401E019004D12E205A461799E4
:103D500090476D1CBAF10001AAF1010ADDDC05E013
:103D600017F8010B5A46179990476D1CB8F10001DE
:103D7000A8F10108F4DC5B462146179A0598ABE6EA
:103D80002D0000002B000000200000002DE9F04174
:103D9000044600251E461746880404D405E039462B
:103DA0002020B0476D1C641EF9D52846BDE8F0817F
:103DB0002DE9F041044600251E469046C80301D572
:103DC000302700E02027880404D505E04146384626
:103DD000B0476D1C641EF9D52846BDE8F0810A681D
:103DE000531C0B60107070474C696768745F5365B3
:103DF0006E64436D64004C696768745F526561640A
:103E000044617461001060028C00FE02F202FE0048
:103E1000F800FF000004047E018047300F102700E7
:103E200047807F0000404042CC009090909090FFEF
:103E300010111610000000003F1028603F10100104
:103E40000E3040F0000000F8888888880808FF08D5
:103E5000090AC8080080601F0010201F804021163A
:103E6000182641F800080808F80808081010FF1084
:103E70001010F000001030101F088848300E01406C
:103E800080403F00001060028C00FE02F202FE0043
:103E9000F800FF000004047E018047300F10270067
:103EA00047807F0000404042CC009090909090FF6F
:103EB00010111610000000003F1028603F10100184
:103EC0000E3040F0000000F8888888880808FF0855
:103ED000090AC8080080601F0010201F80402116BA
:103EE000182641F800080808F80808081010FF1004
:103EF0001010F000001030101F088848300E0140EC
:103F000080403F00000000000000000000000000B2
:103F10000000000000000000F800000000000000A9
:103F2000333000000000100C06100C0600000000EA
:103F3000000000000040C07840C0784000043F040A
:103F4000043F040400007088FC08300000001820C2
:103F5000FF211E0000F008F000E018000000211C06
:103F6000031E211E0000F00888700000001E21239F
:103F7000241927211010160E000000000000000078
:103F80000000000000000000E01804020000000033
:103F9000071820400000020418E000000000402044
:103FA0001807000000404080F080404000020201FD
:103FB0000F01020200000000F000000000010101FA
:103FC0001F01010100000000000000000080B0702F
:103FD00000000000000000000000000000000101DF
:103FE000010101010100000000000000000030306C
:103FF000000000000000000000806018040060184D
:10400000060100000000E010080810E000000F109A
:104010002020100F00001010F800000000002020E9
:104020003F20200000007008080888700000302839
:1040300024222130000030088888483000001820F1
:104040002020110E000000C02010F800000007041E
:1040500024243F240000F80888880808000019215B
:104060002020110E0000E0108888180000000F11B9
:104070002020110E0000380808C838080000000091
:104080003F000000000070880808887000001C22B3
:104090002121221C0000E010080810E0000000317F
:1040A0002222110F00000000C0C00000000000002C
:1040B00030300000000000008000000000000080A0
:1040C0006000000000000080402010080000010295
:1040D00004081020004040404040404000040404D8
:1040E0000404040400000810204080000000201098
:1040F0000804020100007048080808F000000000F1
:104100003036010000C030C828E810E0000718274A
:104110002423140B000000C038E0000000203C23E2
:10412000020227382008F8888888700000203F2085
:104130002020110E00C03008080808380007182099
:10414000202010080008F808080810E000203F2090
:104150002020100F0008F88888E8081000203F2071
:10416000202320180008F88888E8081000203F2045
:104170000003000000C030080808380000071820BD
:1041800020221E020008F808000008F808203F213D
:104190000101213F20000808F80808000000202045
:1041A0003F2020000000000808F8080800C08080B8
:1041B000807F00000008F888C028180800203F20F1
:1041C000012638200008F8080000000000203F20E9
:1041D000202020300008F8F800F8F80800203F0000
:1041E0003F003F200008F830C00008F808203F20BA
:1041F0000007183F00E01008080810E0000F10202A
:104200002020100F0008F808080808F000203F21BF
:104210000101010000E01008080810E0000F182458
:104220002438504F0008F8888888887000203F2084
:1042300000030C302000708808080838000038207F
:104240002121221C00180808F80808180000002086
:104250003F2000000008F808000008F808001F20B0
:104260002020201F000878880000C83808000007B8
:10427000380E010000F80800F80008F800033C07B9
:1042800000073C0300081868808068180820302C5C
:1042900003032C30200838C800C83808000000206C
:1042A0003F2000000010080808C838080020382601
:1042B0002120201800000000FE0202020000000081
:1042C0007F40404000000C30C000000000000000B3
:1042D000010638C00000020202FE0000000040405B
:1042E000407F000000000004020202040000000001
:1042F000000000000000000000000000008080803E
:104300008080808080000202040000000000000025
:104310000000000000000080808080000000192460
:104320002222223F2008F8008080000000003F1178
:104330002020110E000000008080800000000E117F
:104340002020201100000000808088F800000E115D
:104350002020103F200000808080800000001F226D
:104360002222221300008080F088888818002020F4
:104370003F202000000000808080808000006B943F
:10438000949493600008F8008080800000203F2112
:104390000000203F200080989800000000002020AE
:1043A0003F20200000000000809898000000C0809E
:1043B00080807F000008F8000080808000203F247B
:1043C000022D302000000808F80000000000202026
:1043D0003F202000008080808080808000203F205F
:1043E000003F20003F8080008080800000203F212F
:1043F0000000203F200000808080800000001F20FF
:104400002020201F00808000808000000080FFA10D
:104410002020110E000000008080808000000E111E
:104420002020A0FF80808080008080800020203FAE
:104430002120000100000080808080800000332463
:104440002424241900008080E08080000000000007
:104450001F202000008080000000808000001F20BE
:104460002020103F20808080000080808000010E8E
:10447000300806010080800080008080800F300CB2
:10448000030C300F0000808000808080000020310D
:104490002E0E312000808080000080808080818E00
:1044A000701806010000808080808080000021302C
:1044B0002C2221300000000000807C02020000005D
:1044C00000003F404000000000FF0000000000002E
:1044D00000FF0000000002027C800000000040405D
:1044E0003F00000000000601010202040400000079
:1044F00000000000001060028C0000FE9292929278
:1045000092FE00000004047E01407E42427E427E14
:1045100042427E40001060028C00FE929292929283
:1045200092FE00000004047E014448507F40407F1A
:1045300050484440000000FC242424FC252624FC90
:10454000242424040040308F80844C552525255593
:104550004C808080004040424458C0407F40C05062
:1045600048464040008080402018070000003F403F
:10457000404040780000FE424242FE0042A29E823D
:10458000A2C2BE0000806F080828CF00002FC80814
:104590000828CF0000807000FF1008FE424242FA57
:1045A000424242FE00806018070810FF5048464112
:1045B000424C40FF00100C055555D5057F0555555B
:1045C0005505140C001010108AA96B352525ABE990
:1045D000081010100053656E645F53696E676C6558
:1045E00044617461004F4C45445F42797465577271
:1045F000697465004F4C45445F5061676557726947
:10460000746500002446000800000020340000000B
:104610000C350008584600083400002094040000BF
:104620001C35000800A24A04000000000000000041
:104630000102030406070809000000000102030448
:10464000010203040607080902040608000000002E
:08465000000000000000000062
:0400000508000131BD
:00000001FF
