:020000040800F2
:10000000C804002045010008E1160008E3160008B6
:10001000E7160008EB160008EF16000800000000C5
:10002000000000000000000000000000F3160008BF
:10003000F516000800000000F7160008F916000881
:100040005F0100085F0100085F0100085F01000810
:100050005F0100085F0100085F0100085F01000800
:100060005F0100085F0100085F0100085F010008F0
:100070005F0100085F0100085F0100085F010008E0
:100080005F0100085F0100085F0100085F010008D0
:100090005F0100085F0100085F0100085F010008C0
:1000A0005F0100085F0100085F0100085F010008B0
:1000B0005F0100085F0100085F0100085F010008A0
:1000C0005F0100085F0100085F0100085F01000890
:1000D0005F0100080B17000861170008BB17000834
:1000E0005F0100085F0100085F0100085F01000870
:1000F0005F0100085F0100085F0100085F01000860
:100100005F0100085F0100085F0100085F0100084F
:100110005F0100085F0100085F0100085F0100083F
:100120005F0100085F0100085F0100085F0100082F
:10013000DFF80CD003F0ACF9004800479314000836
:10014000C80400200648804706480047FEE7FEE74F
:10015000FEE7FEE7FEE7FEE7FEE7FEE7FEE7FEE777
:1001600047020008310100080CB500200190009002
:100170006C48006840F480306A49086000BF6948F4
:10018000006800F4003000900198401C0190009835
:1001900018B90198B0F5A06FF1D16248006800F479
:1001A000003010B10120009001E000200090009884
:1001B000012843D15C48006840F010005A490860AB
:1001C0000846006820F0030008600846006840F018
:1001D0000200086053484068524948600846406839
:1001E00048600846406840F48060486008464068BF
:1001F00020F47C1048600846406840F4E8104860ED
:100200000846006840F08070086000BF45480068FC
:1002100000F000700028F9D04248406820F0030048
:10022000404948600846406840F00200486000BF0E
:100230003C48406800F00C000828F9D10CBD10B50E
:10024000FFF792FF10BD10B53648006840F001007E
:1002500034490860084640683449084031494860DC
:1002600008460068324908402E4908600846006880
:1002700020F4802008600846406820F4FE004860B2
:100280004FF41F008860FFF7DAFF4FF00060294944
:10029000086010BD10B5002100200022214B5B68D2
:1002A00003F00C0121B1042906D0082928D107E068
:1002B000214B224C236027E01F4B204C236023E07E
:1002C000184B5B6803F47010164B5B6803F48032C4
:1002D000022303EB904022B9194B4343174C236090
:1002E0000DE0104B5B6803F4003323B1144B434320
:1002F000124C236003E0104B4343104C236003E097
:100300000D4B0E4C236000BF00BF064B5B68C3F370
:1003100003130C4CE15C094B1B68CB40074C23607A
:1003200010BD000000100240002002400000FFF855
:10033000FFFFF6FE08ED00E000127A00000000204A
:1003400000093D000400002031490143314A116099
:10035000704770B5002100230F22C47804B32D4CE0
:10036000246804F4E064C4F5E064210AC1F10403E4
:10037000CA40447804FA03F1847814402143090107
:10038000254C0678A155047804F01F050124AC40E3
:1003900005786D11AD0005F1E025C5F8004109E0D3
:1003A000047804F01F050124AC401C4D067876113A
:1003B00045F8264070BD1A4A0A400243154B1B1FE0
:1003C0001A60704739B1134A121D12680243114B6B
:1003D0001B1D1A6006E00F4A121D126882430D4B66
:1003E0001B1D1A607047042808D14FF0E0210969ED
:1003F00041F004014FF0E022116107E04FF0E021ED
:10040000096921F004014FF0E022116170470000FA
:100410000000FA050CED00E000E400E080E100E0FF
:1004200080FFFF1F10B50446FA48844208D101211D
:10043000401500F055FD0021601500F051FD17E05A
:10044000F548844208D10121001500F049FD002142
:10045000201500F045FD0BE0F048844208D1012151
:10046000C80300F03DFD00214FF4004000F038FDCE
:1004700010BD30B50246002000235068E84C2040F3
:100480000D790C6844EA0524204350609068E54CDF
:100490002040D1E902542C434D7944EA45042043DD
:1004A0009060D06A20F470000C7C641EE4B2234398
:1004B00040EA0350D06230BD0021016001714171FA
:1004C0008160C16001210174704721B1826842F0EE
:1004D0000102826003E0826822F0010282607047BC
:1004E00021B1826842F48072826003E0826822F463
:1004F00080728260704710B50023CBB21AB1446895
:100500001C43446002E044689C43446010BD816821
:1005100041F0080181607047014600208A6802F0BE
:1005200008020AB1012000E000207047816841F014
:10053000040181607047014600208A6802F00402CD
:100540000AB1012000E00020704721B1826842F426
:10055000A002826003E0826822F4A00282607047F9
:10056000014600208A6802F480020AB1012000E0FE
:100570000020704710B50A4600210023416821F48D
:100580006041531E41EA4331416010BD21B14268D0
:1005900042F40062426003E0426822F4006242607A
:1005A0007047F0B504460D4600200021092D11DDED
:1005B000E068A5F10A0606EB4607072606FA07F1EA
:1005C0008843A5F10A0606EB460603FA06F108433E
:1005D000E0600CE0206905EB4507072606FA07F105
:1005E000884305EB450603FA06F108432061072A14
:1005F0000FDA606B561E06EB86071F2606FA07F118
:100600008843561E06EB860605FA06F1084360632A
:1006100022E00D2A0FDA206BD61F06EB86071F2675
:1006200006FA07F18843D61F06EB860605FA06F19F
:100630000843206310E0E06AA2F10D0606EB86078E
:100640001F2606FA07F18843A2F10D0606EB86067F
:1006500005FA06F10843E062F0BD21B1826842F478
:100660008012826003E0826822F480128260704708
:100670000146C86C80B2704766484C3000687047CD
:1006800021B1426842F48062426003E0426822F491
:1006900080624260704721B1426842F480524260F9
:1006A00003E0426822F48052426070470A4600210B
:1006B000816821F4E04111438160704721B1826873
:1006C00042F40042826003E0826822F400428260C9
:1006D000704721B1826842F40212826003E08268AE
:1006E00022F4021282607047014600208A6802F4F8
:1006F00000120AB1012000E000207047F0B5044666
:100700001546002000220026092911DDE068A1F12C
:100710000A0707EB470C072707FA0CF29043A1F1F1
:100720000A0707EB470703FA07F21043E0600CE003
:10073000206901EB410C072707FA0CF2904301EB0B
:10074000410703FA07F210432061A06BC0F3015682
:10075000EF1C06F1010CA7EB0C0707EB870C1F271A
:1007600007FA0CF29043EF1C06F1010CA7EB0C0703
:1007700007EB870701FA07F21043A063F0BD10B53D
:100780000A4600210023816B21F44011531E41EAE7
:100790000351816310BD08B5002300930090009BB6
:1007A0000B440093009B1A6008BD08B50246002068
:1007B0000090009201F12800009B184400900098DE
:1007C000006880B208BD0A4600214168164B1940F6
:1007D0001143416070474162826270470A460021BE
:1007E000416821F01F0111434160704740B1094940
:1007F0000831096841F40001064A0832116007E037
:1008000004490831096821F40001024A08321160E4
:10081000704700000024014000280140003C0140D6
:10082000FFFEF0FFFDF7F1FFFFFD3FFF0246002056
:1008300013680B400BB1012000E000207047CA4351
:100840000260704770B502460020002300240B129E
:100850005568CEB205EA060415681D4015B10CB105
:10086000012000E0002070BD00220A12D343036083
:100870007047000010B50446CC48844208D10121DD
:10088000042000F02DFB0021042000F029FB46E0AD
:10089000C748844208D10121082000F021FB002133
:1008A000082000F01DFB3AE0C248844208D1012133
:1008B000102000F015FB0021102000F011FB2EE0AD
:1008C000BD48844208D10121202000F009FB00210D
:1008D000202000F005FB22E0B848844208D1012125
:1008E000402000F0FDFA0021402000F0F9FA16E067
:1008F000B348844208D10121802000F0F1FA0021A0
:10090000802000F0EDFA0AE0AE48844207D10121D0
:10091000801500F0E5FA0021A01500F0E1FA10BD05
:1009200010B50121084600F0DBFA0021012000F09B
:10093000D7FA10BD2DE9F04102460025002600201F
:1009400000230024002791F803C00CF00F0591F854
:1009500003C00CF0100CBCF1000F03D091F802C0E2
:100960004CEA050591F800C0BCF1000F31D01468C5
:1009700000202BE04FF0010C0CFA00F3B1F800C09E
:100980000CEA03069E4220D183004FF00F0C0CFAB4
:1009900003F7BC4305FA03FC4CEA040491F803C0D6
:1009A000BCF1280F06D14FF0010C0CFA00FCC2F884
:1009B00014C00AE091F803C0BCF1480F05D14FF014
:1009C000010C0CFA00FCC2F810C0401C0828D1D35E
:1009D0001460B1F800C0BCF1FF0F34DD5468002092
:1009E0002EE000F1080C4FF0010808FA0CF3B1F802
:1009F00000C00CEA03069E4221D183004FF00F0C89
:100A00000CFA03F7BC4305FA03FC4CEA040491F822
:100A100003C0BCF1280F05D100F1080C08FA0CF84E
:100A2000C2F8148091F803C0BCF1480F07D100F15F
:100A3000080C4FF0010808FA0CF8C2F81080401CAE
:100A40000828CED35460BDE8F0814FF6FF710180D5
:100A5000022181700421C170704702460020936812
:100A60000B400BB1012000E0002070470146886870
:100A700080B2704702460020D3680B400BB10120C2
:100A800000E0002070470146C86880B270470161ED
:100A90007047416170470AB1016100E041617047F0
:100AA000C16070474FF480320A4382618161826184
:100AB00082698269704702460020434B18684FF6EE
:100AC0008073184040EA021008433F4B186070479B
:100AD0003E49C8617047F0B50A4600230024002152
:100AE000002500F00046B6F1004F02D1364EF16904
:100AF00001E0354E7168C0F3034583B200F440163F
:100B0000B6F5401F08D121F070612F4E766826F0AF
:100B100070662D4F7E6012E000F48016B6F5801FDF
:100B200006D1032606FA05F4A14341F0706106E000
:100B3000460D360103FA06F6B14341F0706122B169
:100B4000460D360103FA06F6314300F00046B6F1D1
:100B5000004F02D11C4EF16101E01B4E7160F0BDEF
:100B600030B500228B071C0F0F2303FA04F2164B3B
:100B700008338C1053F824309343134C08348D10F1
:100B800044F8253023468C1053F824308C07240F6A
:100B900000FA04F423430C4C08348D1044F825303B
:100BA00030BD0A49DC310860704700000008014090
:100BB000000C0140001001400014014000180140E9
:100BC000001C0140002001400000014000002042C4
:100BD000DF48006840F00100DD49086008464068D1
:100BE000DC490840DA49486008460068DA490840AC
:100BF000D74908600846006820F48020086008464D
:100C0000406820F4FE0048604FF41F008860704781
:100C1000CF49096821F48031CD4A11601146096835
:100C200021F480211160B0F5803F03D0B0F5802F12
:100C30000ED106E0C649096841F48031C44A11600A
:100C400007E0C349096841F4A021C14A116000E0EE
:100C500000BF00BF704710B50146002200230020EE
:100C60004A11012A02D1BA4C236806E0022A02D1B5
:100C7000B74C236A01E0B64C636A01F01F020124FD
:100C800094401C400CB1012000E0002010BD38B59C
:100C9000002000900024002500BF3120FFF7DBFF7B
:100CA00005460098401C00900098B0F5A06F01D058
:100CB000002DF2D03120FFF7CEFF08B1012400E073
:100CC0000024204638BD01460020A14A106820F0CB
:100CD000F80040EAC10010607047A0490860704702
:100CE000024600209A4B586820F47C1042EA010327
:100CF0001843974B586070479849086670470146FB
:100D00000020934A506820F0030008435060704769
:100D10008F48406800F00C007047014600208C4A64
:100D2000506820F0F00008435060704701460020F2
:100D3000874A506820F4E0600843506070470146DD
:100D40000020834A506820F4605040EAC10050609F
:100D5000704729B17E4A527A02437D4B5A7204E0B1
:100D60007B4A527A82437A4B5A7270477B49D83118
:100D70000860704701460020754A506820F44040E2
:100D80000843506070470021714A20321170704A48
:100D900082F82010012802D004280AD104E00121A1
:100DA0006B4A2032117005E00521694A203211702A
:100DB00000E000BF00BF70476949086070476449A0
:100DC000096A0143624A1162704765494439086003
:100DD000704730B500210022002400235C4D6D686F
:100DE00005F00C0121B1042905D0082923D105E023
:100DF0005C4D056022E05B4D05601FE0544D6D6861
:100E000005F47012524D6D6805F48034022505EB2F
:100E100092421CB9544D554305600BE04C4D6D6832
:100E200005F400351DB1504D5543056002E04D4DB0
:100E30005543056002E04B4D056000BF00BF444DC7
:100E40006D6805F0F0010909484D6B5C0568DD40EF
:100E500045603F4D6D6805F4E061090A434D6B5CE8
:100E60004568DD4085603A4D6D6805F46051C90AFA
:100E70003E4D6B5C4568DD40C560354D6D6805F4E1
:100E80004041890B3A4D6B5CC568B5FBF3F50561D4
:100E900030BD29B12E4A526902432D4B5A6104E0FC
:100EA0002B4A526982432A4B5A61704729B1284A1A
:100EB00092690243264B9A6104E0254A9269824373
:100EC000234B9A61704729B1214AD2690243204BD2
:100ED000DA6104E01E4AD26982431D4BDA61704731
:100EE00029B11B4AD2680243194BDA6004E0184A60
:100EF000D2688243164BDA60704729B1144A1269EE
:100F00000243134B1A6104E0114A12698243104BE9
:100F10001A61704712494039086070470F49C86428
:100F200070470B49C87170470948406A40F08070AB
:100F300007494862704701460020054A92680A4006
:100F40000AB1012000E00020704701498872704713
:100F5000001002400000FFF8FFFFF6FE00004242D2
:100F60008004424200127A0000093D001400002073
:100F70002400002010B50446FB48844209D1012119
:100F80008803FFF7ADFF00214FF48040FFF7A8FF73
:100F900032E0F648844209D101214804FFF7ADFF51
:100FA00000214FF40030FFF7A8FF25E0F04884420D
:100FB00009D101218804FFF7A0FF00214FF4802010
:100FC000FFF79BFF18E0EB48844209D10121C804D8
:100FD000FFF793FF00214FF40020FFF78EFF0BE097
:100FE000E548844208D101210805FFF786FF00216A
:100FF0004FF48010FFF781FF10BD2DE9F04786B058
:1010000005460E460024A24600BFA1460027B0892F
:1010100000B100BF2F462C8A4CF6FF700440F088C8
:1010200004432C82AC894EF6F3100440B088318919
:101030000843718908430443AC81AC8A4FF6FF40F2
:101040000440B0890443AC8201A8FFF7C2FEC64841
:10105000874202D1DDF810A001E0DDF80CA0A889DC
:1010600000F4004040B10AEBCA0000EB0A103168FE
:101070004900B0FBF1F807E00AEBCA0000EB0A10E8
:1010800031688900B0FBF1F86420B8FBF0F004018E
:101090002009642101FB1089A88900F4004040B1B7
:1010A000322000EBC900B0FBF1F000F00700044370
:1010B00008E0322000EB09106421B0FBF1F000F0F1
:1010C0000F0004432C8106B0BDE8F0874FF41651A1
:1010D000016000218180C18001810C2141810021BA
:1010E0008181704710B502460020108A4FF2FF033D
:1010F00018400B884C8823438C882343CC88234397
:101100001843108210BD0021018041808180C18080
:10111000704721B1828942F40052828104E08289C1
:101120004DF6FF731A4082817047F0B503460024E4
:1011300000260025002040F66A17B94200D100BF02
:101140001846C1F3421401F01F06012707FA06F5FD
:10115000012C01D10C3004E0022C01D1103000E050
:1011600014301AB107682F43076002E00768AF43E5
:101170000760F0BD1AB1838A0B43838202E0838A41
:101180008B4383827047028A4FF6F0731A400282C3
:10119000028A0A430282704782894FF2FF731A4023
:1011A000828182890A438281704721B1828942F01B
:1011B0000202828104E082894FF6FD731A40828127
:1011C0007047028A4FF6DF731A400282028A0A438E
:1011D0000282704721B1028A42F48042028204E016
:1011E000028A4BF6FF731A4002827047C1F308026D
:1011F0008280704701468888C0F308007047818963
:1012000041F0010181817047028BD2B20283028BCF
:1012100042EA012202837047028B02F47F4202837A
:10122000028B0A430283704721B1828A42F0200276
:10123000828204E0828A4FF6DF731A40828270470E
:1012400021B1828A42F01002828204E0828A4FF643
:10125000EF731A408282704721B1828A42F00802FD
:10126000828204E0828A4FF6F7731A4082827047C6
:1012700021B1828942F40042828103E08289C2F373
:101280000E028281704721B1828A42F4006282821A
:1012900004E0828A4FF2FF731A4082827047828A8A
:1012A0004FF6FB731A408282828A0A438282704719
:1012B00021B1828A42F00202828204E0828A4FF6E1
:1012C000FD731A408282704702460020B1F5007F0C
:1012D00000D100BF13880B400BB1012000E00020BB
:1012E000704701F40072B2F5007F00D100BFCA431D
:1012F0000280704770B502460024002300250020BC
:1013000040F66A16B14200D100BFC1F3421501F0A8
:101310001F03012606FA03F3012D02D196893340FB
:1013200006E0022D02D1168A334001E0968A33404E
:101330000C12012606FA04F41688344013B10CB1DD
:10134000012000E0002070BD10B50022002340F60F
:101350006A14A14200D100BF0A1201249440A3B232
:10136000DC43048010BD0000003801400044004010
:1013700000480040004C004000500040FFB593B0D2
:1013800014461D46204601F089FE02AA23C29DF89C
:101390004C0000909DF84F309DF84E2093A106A878
:1013A00002F0CAF806A801F0D2FC17B0F0BD10B5E3
:1013B0009948007801280CD1984801F0C8FC00BF7A
:1013C00040219748FFF780FF0028F9D0002092497C
:1013D000087094480078012842D1904800F0D8FA6B
:1013E00000BF40219048FFF76FFF0028F9D08FA180
:1013F0008A4801F0C5FC58B120218E48FFF747FB11
:1014000001218C48FFF743FB02218A48FFF73FFB8D
:1014100089A1824801F0B4FC58B120218548FFF72A
:1014200038FB01218348FFF734FB02218148FFF795
:1014300030FB83A1794801F0A3FC20B14FF4805127
:101440008148FFF726FB81A1744801F099FC20B187
:101450004FF480517C48FFF71AFB00207149087057
:1014600010BD10B501F0DAFA00F0E4F900F07AFAF4
:1014700001F087F800F023FD01F00AFA01F07AF993
:1014800000F0D6FA01F03CFB01F076FB01F0EAFB3C
:1014900010BD1FB5FFF7E5FF6EA002F03DF800BFDD
:1014A000A94601F0B3F90546284601F0F7FD0746C5
:1014B0003A460B466BA002F02FF8264600F015FCCA
:1014C000044621466AA002F027F868A002F024F83A
:1014D000DDE90001CDE90201684601F00EFA28B904
:1014E0003F23664A66A16AA002F016F89DF8001034
:1014F00072A002F011F89DF803209DF8021072A06E
:1015000002F00AF89DF803109DF8020000F0D3FEE7
:101510009DF8000000F01DFF204600F058FF28460F
:1015200000F0AEFF9DF80A0017280CDA9DF80200C3
:10153000172808DB062001F07AFB4FF4805142485F
:10154000FFF7A5FA0CE09DF80A00172808DB9DF8C4
:101550000200172804DA4FF480513B48FFF799FA4C
:10156000C82E11DDC82C0FDC072001F060FB202104
:101570003048FFF78EFA01212E48FFF78AFA022140
:101580002C48FFF786FA0FE0C82E0DDCC82C0BDDC7
:1015900020212848FFF77BFA01212648FFF777FA38
:1015A00002212448FFF773FA484601F077FD074609
:1015B000494A4A4B01F086FD0BD2284601F06EFDE8
:1015C0000746454A454B01F095FD02D8082001F039
:1015D0002EFBFFF7ECFE23462A46DDE90001FFF76C
:1015E000CDFE032001F070FA5AE7000074656D70BB
:1015F000202532642E2532642068756D69202532DD
:101600006420736F6D672025322E3266206C696707
:1016100068742025640000002800002034000020A9
:101620000048004029000020003801406C6564300B
:1016300000000000000C01406C65643100000000F7
:1016400066616E30000000000010014066616E317E
:1016500000000000B3F5CABCBBAFB3C9B9A60D0A00
:1016600000000000D1CCCEED3A25660D0A00000046
:10167000B9E2D5D53A25640D0A0000003C3E0008C9
:101680002E2E5C557365725C6D61696E2E63000071
:1016900046696C653A3C25733E2046756E3A5B257B
:1016A000737D204C696E653A25640AB2C9BCAFCE21
:1016B000C2CAAAB6C8CAA7B0DC0A0000CAAAB6C87D
:1016C0003A256425250D0A00CEC2B6C83A25642EF7
:1016D00025640D0A00000000CDCCCCCCCCCCFC3F66
:1016E000704700BFFEE700BFFEE700BFFEE700BF98
:1016F000FEE77047704770474548006820B144488E
:101700000068401E42490860704710B520214148DA
:10171000FFF7DAFD01280AD13E48FFF76BFDC1B2A1
:101720003D480478601C3C4A10703C48015510212B
:101730003848FFF7C9FD012811D13648FFF75AFD97
:101740003649354A1278885400213448324A127892
:10175000815400203049087001203149087010BDC3
:1017600010B520212F48FFF7AFFD01280AD12D48E1
:10177000FFF740FDC1B228480478601C264A10706B
:101780002648015510212748FFF79EFD012813D157
:101790002448FFF72FFDC1B21F480478601C1E4A81
:1017A00010701E48015500211278815400201A49FA
:1017B000087001201C49087010BD10B520211B487D
:1017C000FFF782FD01280AD11848FFF713FDC1B2C7
:1017D00011480478601C104A1070104801551021FF
:1017E0001248FFF771FD012811D11048FFF702FDE3
:1017F0000A49094A1278885400210848064A127892
:10180000815400200449087001200949087010BD66
:101810002C000020003801402B0000203400002064
:1018200028000020004400402A000020004800401A
:101830002900002008B501210820FFF737FB102000
:101840008DF803002020ADF8000003208DF8020081
:1018500069461548FFF76EF810208DF80300012047
:10186000ADF8000003208DF8020069460E48FFF72E
:1018700061F810208DF803000220ADF8000003206D
:101880008DF8020069460848FFF754F82021064801
:10189000FFF7FDF801210448FFF7F9F8022102489B
:1018A000FFF7F5F808BD0000000C01401FB501214D
:1018B0008803FFF7FBFA4FF4E13000900020ADF809
:1018C0000C000C20ADF80A000020ADF80800ADF8BF
:1018D0000600ADF8040069464648FFF78EFB01227A
:1018E00040F225514348FFF720FC012240F22441F9
:1018F0004048FFF71AFC01213E48FFF70AFC1FBDD4
:1019000008B54FF4A060FEF71FFD25208DF80000FC
:1019100001208DF8030002208DF801008DF80200EF
:101920006846FEF716FD08BD08B501210420FFF743
:10193000BDFA04208DF803000002ADF800006946EE
:101940002D48FEF7F7FF18208DF803004FF40070C4
:10195000ADF8000003208DF8020069462648FEF726
:10196000E9FF08BD10B5FFF7DFFFFFF7C9FFFFF77D
:101970009DFF10BD10B5044621461E48FFF736FCFA
:1019800000BF80211B48FFF79FFC0028F9D010BD45
:1019900070B50446002504E0605DFFF7EBFF681CAE
:1019A000C5B2605D0028F7D100BF40211148FFF7A4
:1019B0008BFC0028F9D070BD70B504460D46E1B22D
:1019C0000C48FFF713FC00BF80210A48FFF77CFC9E
:1019D0000028F9D0204670BD10B5044600BF202174
:1019E0000448FFF771FC0028F9D00248FFF702FC19
:1019F00010BD00000038014000080140002001E057
:101A0000411EC8B20A28FBDB704710B54FF40071C5
:101A1000C548FFF73EF84FF48071C348FFF737F829
:101A2000FFF7ECFF4FF40071BF48FFF730F810BD2F
:101A300008B501211020FFF739FA14208DF80300B2
:101A40004FF48070ADF8000003208DF80200694665
:101A5000B548FEF76FFF14208DF803004FF40070B7
:101A6000ADF8000003208DF802006946AE48FEF78D
:101A700061FFFFF7CAFF08BD10B54FF48071AA4897
:101A8000FEF7EBFF38B14FF40071A748FEF7E5FF12
:101A900008B1012000E0002008B9002010BD4FF47B
:101AA0000071A148FEF7F3FF4FF480719E48FEF7E6
:101AB000EEFFFFF7A3FF4FF400719B48FEF7E9FF2D
:101AC000FFF79CFF4FF480719748FEF7E2FF01207B
:101AD000E4E710B54FF400719348FEF7D8FFFFF725
:101AE0008DFF4FF480719048FEF7D1FFFFF786FF1E
:101AF0004FF400718C48FEF7B0FF40B14FF4807195
:101B00008948FEF7C6FFFFF779FF002010BD4FF4AC
:101B100080718548FEF7BDFFFFF770FF0120F5E7F4
:101B200010B54FF480718048FEF7B3FF4FF4007199
:101B30007D48FEF7ACFFFFF761FF4FF400717A4874
:101B4000FEF7A7FFFFF75AFF4FF480717648FEF7C4
:101B50009EFFFFF753FF4FF480717348FEF799FF24
:101B6000FFF74CFF4FF400716F48FEF790FF10BD78
:101B700070B504464FF400716B48FEF788FFFFF71D
:101B80003DFF072520E04FF480716748FEF77FFF97
:101B90004FF400716448FEF760FF28B120780121FE
:101BA000A9400843207004E021780120A840814327
:101BB0002170FFF723FF4FF480715B48FEF769FF48
:101BC000FFF71CFF681E45B2002DDCDA70BD70B552
:101BD0000546072420E00120A040284028B14FF40A
:101BE00000715148FEF753FF04E04FF400714E4876
:101BF000FEF74FFFFFF702FF4FF480714A48FEF7F0
:101C000046FFFFF7FBFE4FF480714748FEF741FFA8
:101C1000FFF7F4FE601E44B2002CDCDA4FF40071D2
:101C20004148FEF734FF70BD10B50446FFF724FFAE
:101C300038B9C6233D4A3EA143A001F06DFC002007
:101C400010BD4620FFF7C3FFFFF743FF48B9CE237F
:101C5000364A37A147A001F05FFCFFF7D6FE00200F
:101C6000EEE72046FFF7B3FFFFF733FF48B9D7236E
:101C70002E4A2FA13FA001F04FFCFFF7C6FE002027
:101C8000DEE7FFF7C2FE0120DAE71CB50446FFF7E6
:101C9000F3FE38B9ED23424A25A12BA001F03CFC0C
:101CA00000201CBD4720FFF792FFFFF712FF48B945
:101CB000F5233B4A1EA12FA001F02EFCFFF7A5FE45
:101CC0000020EEE701A8FFF753FFFFF729FF684662
:101CD000FFF74EFFFFF799FE9DF800009DF80410F6
:101CE00040EA012020800120DBE72DE9F8430120B4
:101CF000FFF79AFF2020FFF797FF6846FFF7C5FF21
:101D0000BDF8000001F0A4F905464FF03332254B31
:101D100001F02AF9074601F005FA0446204601F0D1
:101D2000A4F980B2BDE8F88300100140413E0008EC
:101D30002E2E5C557365725C6C696768745C6C69A7
:101D40006768742E6300000046696C653A3C257331
:101D50003E2046756E3A5B25737D204C696E653A70
:101D600025640AD7DCCFDFD2D1B1BBD5BCD3C30A3F
:101D70000000000046696C653A3C25733E204675BC
:101D80006E3A5B25737D204C696E653A25640AB412
:101D9000D3BBFAC3BBD3D0CFECD3A60A000000005C
:101DA0004F3E00083333F33F10B50446204600F0A1
:101DB000B7FC00F046FC48B91323F84AF8A1FEA08E
:101DC00001F0AAFB00F0CDFB002010BD0120FCE7D4
:101DD00070B505460C462846FFF7E6FF08B9002017
:101DE00070BD2046FFF7E0FF08B90020F8E70120AA
:101DF000F6E770B504460D4600F0E5FB012807D074
:101E00003923F84AE6A1F8A001F086FB002070BD56
:101E10007820FFF7C9FF00B909E029462046FFF7FF
:101E2000D7FF00B903E000F09CFB0120EFE700F0D2
:101E300098FB0020EBE770B505460E4600F0C3FBAB
:101E400030B95923F34AD6A1E7A001F065FB28E099
:101E50007820FFF7A9FF00B923E005F1B000C1B277
:101E60008020FFF7B5FF00B91BE000218020FFF7BD
:101E7000AFFF00B915E010218020FFF7A9FF00B9DE
:101E80000FE0002407E0315DC020FFF7A1FF00B99B
:101E900007E0601C04B2802CF5DB00F062FB01203F
:101EA00070BD0020FCE710B5002405E0DA492046AB
:101EB000FFF7C1FF601CC4B2082CF7DB10BD10B5E2
:101EC00000F081FB7820FFF76FFFAE218020FFF745
:101ED0007FFF00218020FFF77BFF10218020FFF78C
:101EE00077FF40218020FFF773FF81218020FFF7DB
:101EF0006FFFCF218020FFF76BFFA1218020FFF72C
:101F000067FFC8218020FFF763FFA6218020FFF72D
:101F10005FFFA8218020FFF75BFF3F218020FFF7B4
:101F200057FFD3218020FFF753FF00218020FFF7C8
:101F30004FFFD5218020FFF74BFF80210846FFF798
:101F400047FFD9218020FFF743FFF1218020FFF7D1
:101F50003FFFDA218020FFF73BFF12218020FFF7AF
:101F600037FFDB218020FFF733FF40218020FFF780
:101F70002FFF20218020FFF72BFF02218020FFF779
:101F800027FF8D218020FFF723FF14218020FFF7FA
:101F90001FFFA4218020FFF71BFFA6218020FFF751
:101FA00017FFAF218020FFF713FF00F0DAFAFFF7E9
:101FB0007AFF10BD2DE9F04107460C4690461E46BB
:101FC00000F001FB7820FFF7EFFE07F1B000C1B28F
:101FD0008020FFF7FDFE04F00F018020FFF7F8FEE0
:101FE000102040EA24118020FFF7F2FE002507E0D0
:101FF00008EB4610415DC020FFF7EAFE681CC5B241
:10200000102DF5DB07F1B100C1B28020FFF7E0FE33
:1020100004F00F018020FFF7DBFE102040EA2411BE
:102020008020FFF7D5FE002508E008EB46101030B1
:10203000415DC020FFF7CCFE681CC5B2102DF4DB5B
:1020400000F08FFABDE8F0812DE9F04107460D461A
:1020500090461E4600240AE0102000FB0450C1B246
:10206000234642463846FFF7A5FF601CC4B2B4427F
:10207000F2DBBDE8F0812DE9FF4F81B081460C46CF
:102080000E9F2046E11704EB5171C910B03101F0E9
:10209000FF0A04987843039901EB400600F093FA95
:1020A0007820FFF781FE4FF0000876E0B8F1020FCC
:1020B00007D1E11704EB5171C910A4EBC10101B9BB
:1020C000B0E051464A1C02F0FF0A8020FFF780FE74
:1020D000AAF10100B72801D14FF0B00A09F00F01B1
:1020E0008020FFF775FE102040EA29118020FFF7BD
:1020F0006FFE0020009049E0B8F1000F06D0B8F163
:10210000010F11D0B8F1020F3AD128E02546E017AF
:1021100004EB5070C010A4EBC00230789040C1B204
:10212000C020FFF755FE2BE02546E01704EB50706A
:10213000C010A4EBC000C0F10802F01B00781041F1
:10214000A346E21704EB5272D210A4EBC20332781A
:102150009A401043C1B2C020FFF73AFE10E0254676
:10216000E01704EB5070C010A4EBC000C0F10802EF
:10217000F01B007840FA02F1C020FFF729FE00BFF3
:1021800000BF761C0098401CC0B200900098B84276
:10219000B2DB08F1010000F0FF083FE02E46000826
:1021A0002E2E5C557365725C6F6C65645C6932637E
:1021B0005F6F6C65642E630046696C653A3C2573FD
:1021C0003E2046756E3A5B25737D204C696E653AFC
:1021D00025640AB4D3C9E8B1B8C3BBD3D0D3A6B47D
:1021E000F00A00003E46000846696C653A3C2573DB
:1021F0003E2046756E3A5B25737D204C696E653ACC
:1022000025640AD7DCCFDFD2D1B1BBD5BCD3C30A9A
:10221000000000004D46000848000020B8F1030F00
:10222000FFF644AF00BF00F09CF905B0BDE8F08FA9
:102230002DE9F8430546884691461E46089F00242E
:102240000AE007FB0451C8B223464A4641460097BC
:10225000FFF711FF601CC4B2B442F2DBBDE8F883A3
:1022600010B500F0B0F97820FFF79EFD29218020FD
:10227000FFF7AEFD00218020FFF7AAFD002180209E
:10228000FFF7A6FD00218020FFF7A2FD0721802097
:10229000FFF79EFD00218020FFF79AFD2F2180206F
:1022A000FFF796FD00F05DF910BD10B52E2100205E
:1022B000FFF79FFD10BDF8B504460D461020002322
:1022C000A14A194600901846FFF7D5FE10200223B8
:1022D0009D4A00210090FFF7CEFE08201A239B4A5A
:1022E000002100902020FFF7C6FE0A2094FBF0F0AA
:1022F0001030C6B208203346944A002100902820AE
:10230000FFF7B9FE0A2094FBF0F100FB11401030FA
:10231000C6B2082033468D4A002100903020FFF7D6
:10232000AAFE08200E23894A002100903820FFF7DA
:10233000A2FE0A2095FBF0F100FB11501030C6B24E
:1023400008203346814A002100904020FFF793FE89
:10235000F8BD38B50446102001237B4A01460090A1
:102360000020FFF788FE10200223774A01460090E4
:10237000FFF781FE08201A23744A102100902020C4
:10238000FFF779FE0A2094FBF0F01030C5B2082068
:102390002B466E4A102100903020FFF76CFE0A2079
:1023A00094FBF0F100FB11401030C5B208202B4621
:1023B000664A102100903820FFF75DFE08200523B3
:1023C000624A102100904020FFF755FE38BDF8B555
:1023D00006463546102003235B4A2021009000204A
:1023E000FFF749FE10200423574A20210090FFF7F1
:1023F00042FE08201A23554A202100900846FFF784
:102400003AFE00240BE00820E10028310090C8B219
:1024100000234E4A2021FFF72EFE601CC4B2042C7C
:10242000F1DB0A2095FBF0F100FB11501030C7B230
:1024300008203B46454A202100904020FFF71BFE24
:10244000012417E00A2095FBF0F085B20A2095FBE5
:10245000F0F100FB11501030C7B20820E100C1F1CB
:1024600040010090C8B23B46384A2021FFF703FEE6
:10247000601CC4B20A2095FBF0F00028E2D1F8BD40
:10248000F8B504462546102005232F4A3021009038
:102490000020FFF7F0FD102006232B4A302100908A
:1024A000FFF7E9FD08201A23284A30210090202058
:1024B000FFF7E1FD284600F0D8FD0A2190FBF1F27C
:1024C00001FB12001030C6B2082033461F4A3021EB
:1024D00000902820FFF7CFFD08200E231B4A302153
:1024E00000900846FFF7C7FD1949284600F05AFC3E
:1024F0000546284600F0B9FD0A2190FBF1F201FBE8
:1025000012001030C6B208203346104A3021009025
:102510003820FFF7B0FD0E49284600F043FC054681
:10252000284600F0A2FD0A2190FBF1F201FB120007
:102530001030C6B208203346044A302100904020B3
:10254000FFF799FDF8BD00004E4500085E3F00080A
:1025500000002041002001E0411EC8B20A28FBDB38
:10256000704710B580218248FEF793FA40218048D9
:10257000FEF78DFAFFF7EEFF80217D48FEF787FA20
:1025800010BD08B501210820FEF790FC14208DF83D
:1025900003004020ADF8000003208DF802006946DA
:1025A0007348FEF7C7F914208DF803008020ADF8BA
:1025B000000003208DF8020069466D48FEF7BAF965
:1025C000FFF7CFFF08BD10B540216948FEF745FA77
:1025D00030B180216648FEF740FA08B1012000E0E2
:1025E000002008B9002010BD80216148FEF74FFA95
:1025F00040215F48FEF74BFAFFF7ACFF80215C48B3
:10260000FEF747FAFFF7A6FF40215948FEF741FAC7
:102610000120E8E710B580215548FEF738FA40213F
:102620005348FEF734FAFFF795FF80215048FEF734
:1026300030FAFFF78FFF40214D48FEF72AFA0120BC
:1026400010BD10B580214A48FEF721FAFFF782FF3E
:1026500040214748FEF71BFAFFF77CFF80214448E2
:10266000FEF7FBF938B140214148FEF712FAFFF7B7
:1026700071FF002010BD40213D48FEF70AFAFFF728
:1026800069FF0120F6E710B540213948FEF701FA4D
:1026900080213748FEF7FBF9FFF75CFF80213448C3
:1026A000FEF7F7F9FFF756FF40213148FEF7EFF943
:1026B000FFF750FF40212E48FEF7EBF9FFF74AFFE6
:1026C00080212B48FEF7E3F910BD70B50446802148
:1026D0002748FEF7DCF9FFF73DFF07251DE0402105
:1026E0002348FEF7D4F980212148FEF7B6F928B136
:1026F00020780121A9400843207004E021780120BE
:10270000A84081432170FFF725FF40211848FEF7BC
:10271000C0F9FFF71FFF681E45B2002DDFDA70BD5C
:1027200070B5054607241CE00120A040284020B1D8
:1027300080210F48FEF7ABF903E080210C48FEF73B
:10274000A8F9FFF707FF40210948FEF7A0F9FFF7B6
:1027500001FF40210648FEF79CF9FFF7FBFE601ED3
:1027600044B2002CE0DA80210148FEF790F970BDF8
:10277000000C014000B587B001211020FEF796FB48
:1027800001214802FEF792FB00208DF81B00022079
:10279000ADF8180003208DF81A0006A93948FEF795
:1027A000C9F800208DF8090004904FF460200390D0
:1027B0000020019001208DF8140000208DF8080001
:1027C00001A93148FDF755FE4FF40040FEF7D2FA5B
:1027D000052301220B212C48FDF7E3FE01212A48A5
:1027E000FDF773FE2848FDF792FE00BF2648FDF76F
:1027F00093FE0128FAD02448FDF798FE00BF224836
:10280000FDF799FE0128FAD007B000BD2DE9F84F79
:102810000024A14618E001211B48FDF796FE00BFE9
:102820001948FDF79DFE0128FAD000BF0221164885
:10283000FDF7FCFF0028F9D01348FDF719FF044409
:1028400009F1010000F0FF09B9F10A0FE3DB0A20EA
:10285000B4FBF0F4204600F0F6FB4FF08B41009003
:1028600000F0D2FA834600F019FC07464FF06632BA
:10287000064B00F007FB054600F054FC824650462C
:10288000BDE8F88F001001400024014066660A4050
:1028900008B501214020FEF709FB14208DF8030044
:1028A0004020ADF8000003208DF802006946494839
:1028B000FEF740F808BD70B50024002519E000BF00
:1028C00040214448FEF7C9F80128F9D1282000F03A
:1028D000D7F86006040E40213E48FEF7BEF80443D8
:1028E00000BF40213B48FEF7B8F80028F9D1681C2A
:1028F000C5B2082DE3DB204670BD70B5044640210B
:102900003448FEF7C6F8142000F0D2F840213148D0
:10291000FEF7BDF84FF6FF7505E040212D48FEF7A4
:102920009CF800B904E0281EA5F101018DB2F4D194
:1029300000BF0DB9002070BD4FF6FF7506E04021C5
:102940002448FEF78AF8012800D104E0281EA5F1EA
:1029500001018DB2F3D100BF0DB90020EBE74FF6B6
:10296000FF7505E040211B48FEF777F800B904E049
:10297000281EA5F101018DB2F4D100BF0DB90020D0
:10298000D9E7FFF798FF2070FFF795FF6070FFF71A
:1029900092FFA070FFF78FFFE070FFF78CFF2071B0
:1029A0003C2000F06DF840210A48FEF770F82078CE
:1029B00061780844A1780844E17808442179884284
:1029C00005D05B23044A05A109A000F0A5FD012064
:1029D000B1E70000001801405C4600082E2E5C554F
:1029E0007365725C74656D705C74656D702E6300E8
:1029F00046696C653A3C25733E2046756E3A5B2508
:102A0000737D204C696E653A25640AD0A3D1E9BA7A
:102A1000CDB2BBB6D40D0A0A0000000070B5482143
:102A2000B1F1807F01D301201DE021F07F40401EE5
:102A30004FF0E022506150170F22002807DA1307E9
:102A40001D0E274B00F00F04241F1D5503E0130734
:102A50001C0E244B1C5400BF00204FF0E02290615C
:102A600007201061002010B11FA000F055FD4FF0AD
:102A7000E020006920F001004FF0E021086170BD06
:102A80001E4908604FF0E021096941F001014FF053
:102A9000E022116100BF194909680029FBD14FF0FC
:102AA000E021096921F001014FF0E0221161704736
:102AB00010B50346002404E04FF47A70FFF7E0FFFE
:102AC000641C9C42F8D310BD30B50446002504E0D8
:102AD0004FF47A70FFF7ECFF6D1CA542F8D330BDC0
:102AE00018ED00E000E400E0B5CEB4F0B6A8CAB13D
:102AF000C6F7C9E8D6C3B4EDCEF30A002C00002017
:102B000008B501211020FEF7D1F910208DF803003F
:102B10000002ADF8000003208DF802006946044869
:102B2000FDF708FF4FF480510148FDF7B2FF08BDE3
:102B30000010014010B5044621464848FEF756FBF8
:102B400000BF80214548FEF7BFFB0028F9D010BD2B
:102B500010B50446AA20FFF7EDFF1320FFF7EAFFA8
:102B60000120FFF7E7FF2046FFF7E4FF04F1BE0175
:102B700088B2FFF7DFFF10BD00B587B00121042048
:102B8000FEF794F901214804FEF79DF94FF4A06087
:102B9000FDF7DAFB26208DF8040001208DF80700F0
:102BA0008DF805008DF8060001A8FDF7D2FB042082
:102BB0008DF81B000820ADF8180006A92848FDF77D
:102BC000B9FE18208DF81B000420ADF81800032072
:102BD0008DF81A0006A92248FDF7ACFE4FF41650F6
:102BE00002900020ADF814000C20ADF81200002077
:102BF000ADF81000ADF80E00ADF80C0002A91748B2
:102C0000FEF7FBF9012240F225511448FEF78DFA38
:102C1000012240F224411148FEF787FA01210F48B2
:102C2000FEF777FA0F20FFF793FF07B000BD70B5EE
:102C3000044604F1B305AA20FFF77CFF0720FFF745
:102C400079FF0220FFF776FF0020FFF773FF204691
:102C5000FFF770FF2846FFF76DFF70BD004400408E
:102C60000008014000B587B001210820FEF71EF9D9
:102C700001218804FEF727F94FF4A060FDF764FBFB
:102C800027208DF8040001208DF8070000208DF822
:102C900005008DF8060001A8FDF75BFB04208DF808
:102CA0001B004002ADF8180006A93348FDF742FEAC
:102CB00018208DF81B004FF48060ADF81800032039
:102CC0008DF81A0006A92C48FDF734FE10208DF867
:102CD0001B000001ADF8180003208DF81A0006A9AA
:102CE0002548FDF727FE4FF4E13002900020ADF8B3
:102CF00014000C20ADF812000020ADF81000ADF863
:102D00000E00ADF80C0002A91C48FEF776F901226E
:102D100040F225511948FEF708FA012240F22441F9
:102D20001648FEF702FA01211448FEF7F2F907B03F
:102D300000BD10B5044621461048FEF757FA00BF03
:102D400080210E48FEF7C0FA0028F9D010BD70B5FA
:102D50000446002504E0605DFFF7EBFF681CC5B288
:102D6000605D0028F7D100BF40210448FEF7ACFAAF
:102D70000028F9D070BD0000000C01400048004060
:102D800030B505462A460B4612F8010B13F8014BE5
:102D900008B1A042F8D01CB1002802D06D1CF1E7A8
:102DA000284630BD80EA010210B502F00043400021
:102DB00022D04A001FD0010E01EB1261C0F3560071
:102DC000C2F3560240F4000042F40002A0FB0220CD
:102DD00000047F39140400D0401C50EA124001D492
:102DE0004000491EC2B20C0604EBD010401C400843
:102DF000802A02D003E0002010BD20F0010000294D
:102E000000DA0020184310BD30B480EA010202F05D
:102E1000004530F0004221F0004013D090B1C30DC6
:102E2000D40DC2F31601C0F31600E41A41F40001F8
:102E300040F400027D34914201D3641C00E049005B
:102E4000002C02DA30BC002070474FF40000002351
:102E5000914201D3891A034340084FEA4101F7D157
:102E600051B1914202D14FF0004105E002D24FF042
:102E7000010101E06FF0010103EBC450284430BCB4
:102E800000F0B3B92DE9FE4F81EA030404F00044D9
:102E900021F0004100944FF0000B23F0004350EA72
:102EA00001045ED052EA03045BD0C3F30A54C1F3B9
:102EB0000A552C44A4F2F3340194A0FB0254C1F34C
:102EC000130141F48011C3F3130343F4801301FB96
:102ED000024400FB034E840A970A44EA815447EAFD
:102EE0008357A4FB076802958D0A05FB07854FEA07
:102EF000932C04FB0C542705029D4FEA065847EA21
:102F00001637B5EB08056EEB070C870E920E47EAF5
:102F1000811742EA8312A7FB0201B6EB0B0164EBB7
:102F200000042B0D43EA0C335E1844EB1C50DA46C8
:102F30005146E7FB0201C5F313044FEA0B3343EAA2
:102F400014534FEA0432019C43EA0603A4F10C0433
:102F50000294009CCDE900B400F08DF903B0BDE807
:102F6000F08F00200146F9E72DE9F04D81EA0304D6
:102F700004F0004B21F0004514464FF0000A23F006
:102F8000004150EA050220D054EA01021DD0C5F3E9
:102F90000A570246C5F31303C1F31300C1F30A56DF
:102FA00040F4801543F48013A7EB0608101BD646A7
:102FB00008F2FD3873EB050002D308F1010801E0C7
:102FC00092185B41B8F1000F03DA00200146BDE81A
:102FD000F08D00204FF48011064684460EE0171B4A
:102FE00073EB050705D3121B63EB050306434CEA9D
:102FF000010C49084FEA300092185B4150EA010782
:10300000EDD152EA030012D082EA040083EA0501FE
:10301000084305D0101BAB4106D20122002306E075
:1030200000224FF0004302E06FF0010253101AEB50
:1030300006004CEB085110EB0A0041EB0B01BDE818
:10304000F04D00F009B996230022114600F0D6B8E1
:103050000EB540F2334102910021CDE900110A463C
:103060000B4600F008F903B000BD00F0004220F06C
:103070000040C10DC0F3160040F400007F2901DAC2
:1030800000207047962903DCC1F19601C84001E099
:1030900096398840002AF4D04042704700F0004240
:1030A00030F000400AD0C10D01F56071C0F3160088
:1030B00042EA0151C208400711437047002001460F
:1030C0007047000030B5041E71F1000404DB4FF0BE
:1030D0000044404264EB0101141E73F1000405DB5F
:1030E0001C464FF00043524263EB04038B4208BF7F
:1030F000824230BD30B5041E71F1000404DB4FF094
:103100000044404264EB0101141E73F1000405DB2E
:103110001C464FF00043524263EB0403994208BF40
:10312000904230BD01F0004330B421F0004150EA3C
:10313000010206D00A0DA2F56072C1F31301002A44
:1031400002DC30BC00207047440F44EAC104C100D7
:10315000E01830BC00EBC25000F047B830B50B4669
:10316000014600202022012409E021FA02F59D42B7
:1031700005D303FA02F5491B04FA02F52844151E8B
:10318000A2F10102F1DC30BD2DE9F05F054600201F
:1031900092469B4688460646814640241BE02846C8
:1031A00041464746224600F094F953465A46C01A13
:1031B000914110D311461846224600F07BF92D1A92
:1031C00067EB01084F4622460120002100F072F90A
:1031D00017EB00094E41201EA4F10104DFDC484634
:1031E00031462A464346BDE8F09F0029A8BF7047F4
:1031F000401C490008BF20F00100704710B4B0FA2D
:1032000080FC00FA0CF050EA010404BF10BC7047C7
:1032100049B1CCF1200421FA04F411FA0CF118BFE1
:10322000012121430843A3EB0C01CB1D4FEA0061B0
:103230004FEA102042BF002010BC704700EBC35083
:1032400010440029A4BF10BC7047401C490008BFAF
:1032500020F0010010BC704710B5141E73F100047B
:1032600008DA401C41F1000192185B411A4301D178
:1032700020F0010010BD2DE9F04D92469B4611B1A2
:10328000B1FA81F202E0B0FA80F22032904600F00A
:1032900011F904460F4640EA0A0041EA0B01534681
:1032A0005A46084313D0114653EA010019D0C8F119
:1032B0004002504600F00DF905460E46504659466C
:1032C000424600F0F7F8084305D0012004E020460C
:1032D0003946BDE8F08D0020054346EAE0762C43F0
:1032E00037430A986305E40AA0EB08000022FD0AB0
:1032F00044EA47540A3002D500200146E9E70105B7
:1033000010196941DDE9084500196941BDE8F04D32
:10331000A2E72DE9FE4F804681EA0300C00F0C466C
:10332000009021F0004123F00045B8EB0200A941D4
:1033300005D24046214690461C460B46024623F0E5
:103340000040104347D0270DC7F30A00C3F30A51CA
:103350000290401A019040286BDAC3F3130040F446
:10336000801B0098924620B10023D2EB030A63EB46
:103370000B0B01985946C0F14002504600F09AF8F4
:1033800006460D4650465946019A00F0B2F810EB39
:1033900008006141002487EA115284EAE7731A4366
:1033A00040D0009A62B3019A012A4FEA075215DC15
:1033B000001B61EB02014FF0004202EA0752CDE927
:1033C0000042001C41F5801132462B46FFF753FFA7
:1033D00003B0BDE8F08F40462146F9E7001B61EBE2
:1033E0000201001C41F5801300185B412018A2F572
:1033F000001747EB030140EAD570B6196D4111E0A3
:103400006D084FEA360645EAC0754FEA0752001BC1
:1034100061EB0201001C41F5801149084FEA3000C0
:103420000019514132462B4603B0BDE8F04FFFF77B
:1034300013BF0098012240000023D0EB020263EB8F
:10344000E073009821464FEAE074B8EB000061EBAE
:103450000401E9E783F000435BE781F0004158E7AE
:10346000C1F30A52C1F3130140F2FF3341F480115A
:103470009A4202DA00200146704740F233439A42F2
:10348000A2F2334202DC524200F023B800F012B83C
:10349000064C074D06E0E06840F0010394E80700A1
:1034A00098471034AC42F6D3FCF746FE6C46000851
:1034B0008C460008202A04DB203A00FA02F10020A2
:1034C00070479140C2F1200320FA03F31943904062
:1034D0007047202A04DB203A21FA02F000217047CD
:1034E00021FA02F3D040C2F120029140084319466C
:1034F0007047202A06DBCB17203A41FA02F043EA54
:10350000E07306E041FA02F3D040C2F1200291409C
:1035100008431946704700000FB4054B10B503A9C6
:10352000044A029800F0EEF810BC5DF814FB0000AD
:10353000B9190008300000200FB4084B10B504A9D9
:1035400002AA039800F0DEF8044602A9002000F069
:1035500070FC204610BC5DF814FB0000333E0008F0
:1035600002E008C8121F08C1002AFAD1704770474C
:10357000002001E001C1121F002AFBD170470000AA
:103580002DE9FF5F82B00021DDE90430020DDDF896
:1035900040B0034318D044F61050A2F2FF32424329
:1035A0001514119801281FD0A5EB0B00401C5FEAF1
:1035B000000A4FF000064E4FDFF83891B0465046F3
:1035C00015D5CAF1000413E0119801244AA301287B
:1035D00001D16FEA0B010298119AC0E90031C0E9EC
:1035E000024206B0BDE8F09FCBF10000DFE70446E1
:1035F0000021404A491842EB0450CDE9001012E086
:10360000E00707D032463B4640464946FFF73AFCC2
:103610008046894632463B4610461946FFF732FC43
:1036200006460F466410002CEAD1DDE90401DDE90D
:103630000023BAF1000F06DAFFF724FC42464B469E
:10364000FFF720FC05E0FFF78FFC42464B46FFF7F3
:103650008BFC04460E460022284BFFF74BFD03D897
:103660004FF0FF30014607E00022254B204631464F
:10367000FFF74FFEFFF7F4FE102409E0002C0ADBF1
:103680000A220023FFF780FD039B30321A55641E87
:1036900050EA0102F2D1641C039AC4F111031444EC
:1036A000119A012A03D0012208430DD10AE00843F0
:1036B00004D000204FF0110B119072E7A3EB0B0523
:1036C0006D1E0DE05B4504DD4FF0000205F10105C4
:1036D00004E003DA4FF00002A5F10105002AECD066
:1036E00002981199C0E90231C0E9004579E700006C
:1036F000000014400000F03F300000000000F043E4
:103700000000E03F2DE9FF4F95B09B4689460646F5
:1037100000250FE2252877D100242746F84A012109
:10372000059400E0044316F8013F203B01FA03F042
:103730001042F7D130782A2811D06FF02F0330785B
:10374000A0F13002092A16D8059A44F0020402EBCF
:10375000820203EB42021044761C0590EFE759F811
:10376000042B0592002A03DA504244F400540590D9
:1037700044F00204761C30782E2816D116F8010F7A
:1037800044F004042A280DD06FF02F023078A0F105
:103790003003092B09D807EB870302EB4303C71853
:1037A000761CF3E759F8047B761C30786C280FD030
:1037B00006DC4C2817D068280DD06A2814D104E004
:1037C000742810D07A280FD10DE044F400140AE0D8
:1037D00044F4801401E044F440147278824202D12F
:1037E00004F58014761C761C307866280BD013DC28
:1037F000582877D009DC002875D04528F6D046280F
:10380000F4D047281AD19DE118E0632835D0642808
:1038100079D0652812D195E1702873D008DC67282B
:10382000F1D069286FD06E280DD06F2806D1B5E091
:1038300073282CD0752875D0782874D05A461799DB
:1038400090476D1C75E1C4F30250022809D003288B
:103850000DD0D9F8001004280DD00D6009F104092D
:1038600067E1D9F80010EA17C1E90052F6E7D9F884
:1038700000100D80F2E70D70F0E719F8041B8DF8C9
:10388000001000208DF80100EA46012003E059F8FD
:1038900004AB4FF0FF3061074FF0000102D40DE0A0
:1038A00008F101018846B9420FDA8045F8DB1AF8C1
:1038B00008100029F4D108E008F10101884681428E
:1038C000FADB1AF808100029F6D105985B46A0EB40
:1038D000080721463846179A00F094FA284400EB6E
:1038E000080507E04DE029E10DE01AF8010B5A4602
:1038F00017999047B8F10108F7D25B462146384640
:10390000179A13E142E00A220092C4F302524FF0E8
:10391000000A022A08D059F804CB032A4FEAEC71B6
:103920000AD00DE029E02AE009F1070121F00702A1
:10393000F2E802C1914609E00FFA8CFC4FEAEC7103
:10394000042A03D14FFA8CFC4FEAEC71002907DA04
:103950000A460021DCF1000C61EB02012D2202E09D
:10396000220504D52B228DF80420012203E0E20772
:1039700001D02022F7E7904659E00A2102E0102208
:103980000DE010214FF0000A00910BE010224FF0E3
:10399000000A44F004040827009203E008224FF0D4
:1039A000000A0092C4F30252022A05D059F804CB4F
:1039B0000021032A08D009E009F1070121F00702DC
:1039C000F2E802C1914605E01FFA8CFC042A01D1FD
:1039D0000CF0FF0C4FF00008220728D5702806D005
:1039E000009B83F0100353EA0A0305D00EE0402247
:1039F0008DF80420012208E05CEA010206D03022A2
:103A00008DF804208DF8050002229046009B83F07B
:103A1000080353EA0A030AD15CEA010201D16207F2
:103A200005D530228DF804204FF001087F1E58285C
:103A300004D034A003900EA802900DE036A0F9E760
:103A400053466046009AFFF79FFB84460398825CCA
:103A50000298401E029002705CEA0100F0D10298C8
:103A600006A9081A00F1200A600702D524F4803460
:103A700000E00127574502DDA7EB0A0000E0002027
:103A800000EB0A01009005984144401A0590E003BC
:103A900006D45B462146179A059800F0B3F9054411
:103AA000002706E001A85A46C05D179990476D1C93
:103AB0007F1C4745F6DBE0030CD55B462146179A91
:103AC000059800F09FF9054404E030205A46179904
:103AD00090476D1C0099481E00900029F5DC08E015
:103AE000029802995A460078491C0291179990470A
:103AF0006D1CBAF10001AAF1010AF1DC65E10000D8
:103B000009280100303132333435363738396162B3
:103B10006364656600000000303132333435363777
:103B200038394142434445460000000000F058F94E
:103B30000544761C307800287FF4ECAD19B0284697
:103B4000BDE8F08F620700D4062709F1070222F0D2
:103B5000070CFCE80223E14603F000485FEA080C8A
:103B600002D00FF2702C0DE05FEA045C02D50FF278
:103B7000682C07E05FEAC47C02D00FF2602C01E001
:103B8000AFF2700C4FF0FF3823F00043CDF850C077
:103B900065280CD006DC452809D046281DD04728CA
:103BA0003DD13DE0662818D067287ED138E000215D
:103BB000112F01DB112000E0781CCDE9000106A9DE
:103BC0000EA8FFF7DDFCDDE90F010E9A039100213D
:103BD000009207F1010A04914DE04FF00040009778
:103BE000CDE9011006A90EA8FFF7CAFCDDE90F0216
:103BF00003920E9B11990022DDF80CA00093049211
:103C000011B9791C00EB010AB7EB0A0004D4C0F12A
:103C1000FF3007F1010A0490AAEB0700019044E08D
:103C2000012F00DA01270021112F01DD112000E012
:103C30003846CDE9000106A90EA8FFF7A1FCDDE991
:103C40000F010E9A0391002104910092BA462107B8
:103C50000CD40399514500DA8A46BAF1010F05DD0B
:103C6000009AAAF10101515C302908D0B84202DA69
:103C700010F1040F06DA0121CDE9011015E0AAF1D7
:103C80000101E9E7002805DC049901440491AAEB4D
:103C9000000102E0411C514500DD8A460499401AAA
:103CA000401C01904FF000400290200704D401987E
:103CB000504501DBCDF8048000208DF84F000298BC
:103CC0000DF14F07B0F1004F25D02B200E90029838
:103CD0004FF0020800280CDA404202902D200E908E
:103CE00007E00A210298FFF739FA3031029007F80D
:103CF000011DB8F10001A8F10108F2DC02980028CA
:103D0000EFD1791E0E980870307800F0200040F056
:103D1000450007F8020D12A8C01B00F1070814980F
:103D2000007800B1012000EB0A01019801EBE0717D
:103D300005984144401A401E0590E00306D45B46B6
:103D40002146179A059800F05DF80544149800780C
:103D500018B15A46179990476D1CE00324D55B466D
:103D60002146179A059800F04DF805441CE0049888
:103D7000002807DBDDE90301884203DD0098405C91
:103D8000179901E0179930205A469047049805F199
:103D90000105401C04900198401E019004D12E2082
:103DA0005A46179990476D1CBAF10001AAF1010A11
:103DB000DDDC05E017F8010B5A46179990476D1C9A
:103DC000B8F10001A8F10108F4DC5B462146179A1E
:103DD0000598ABE62D0000002B000000200000003D
:103DE0002DE9F041044600251E461746880404D4F8
:103DF00005E039462020B0476D1C641EF9D52846E1
:103E0000BDE8F0812DE9F041044600251E469046AC
:103E1000C80301D5302700E02027880404D505E039
:103E200041463846B0476D1C641EF9D52846BDE8AA
:103E3000F0810A68531C0B60107070476D61696EE9
:103E4000004C696768745F53656E64436D64004C31
:103E5000696768745F5265616444617461001060F1
:103E6000028C00FE02F202FE00F800FF00000404D3
:103E70007E018047300F10270047807F00004040C0
:103E800042CC009090909090FF101116100000000E
:103E9000003F1028603F1010010E3040F00000007D
:103EA000F8888888880808FF08090AC80800806020
:103EB0001F0010201F80402116182641F800080816
:103EC00008F80808081010FF101010F0000010305B
:103ED000101F088848300E014080403F00001060ED
:103EE000028C00FE02F202FE00F800FF0000040453
:103EF0007E018047300F10270047807F0000404040
:103F000042CC009090909090FF101116100000008D
:103F1000003F1028603F1010010E3040F0000000FC
:103F2000F8888888880808FF08090AC8080080609F
:103F30001F0010201F80402116182641F800080895
:103F400008F80808081010FF101010F000001030DA
:103F5000101F088848300E014080403F00000000DC
:103F60000000000000000000000000000000000051
:103F700000F80000000000000033300000000010D6
:103F80000C06100C0600000000000000000040C0FD
:103F90007840C0784000043F04043F0404000070EF
:103FA00088FC08300000001820FF211E0000F008E7
:103FB000F000E018000000211C031E211E0000F08C
:103FC0000888700000001E212324192721101016D4
:103FD0000E000000000000000000000000000000D3
:103FE00000E0180402000000000718204000000252
:103FF0000418E000000000402018070000004040C6
:1040000080F0804040000202010F01020200000027
:1040100000F0000000000101011F0101010000008B
:1040200000000000000080B07000000000000000F0
:104030000000000000000001010101010101000079
:104040000000000000000030300000000000000010
:10405000000080601804006018060100000000E005
:1040600010080810E000000F102020100F000010B2
:1040700010F8000000000020203F20200000007009
:104080000808088870000030282422213000003001
:104090000888884830000018202020110E000000F9
:1040A000C02010F8000000070424243F240000F87A
:1040B0000888880808000019212020110E0000E05F
:1040C000108888180000000F112020110E00003801
:1040D0000808C83808000000003F00000000007019
:1040E000880808887000001C222121221C0000E0A2
:1040F00010080810E0000000312222110F0000001B
:1041000000C0C000000000000030300000000000CF
:10411000008000000000000080600000000000003F
:1041200080402010080000010204081020004040D8
:10413000404040404000040404040404040000081B
:1041400010204080000000201008040201000070D0
:1041500048080808F0000000003036010000C030B8
:10416000C828E810E0000718272423140B000000DB
:10417000C038E0000000203C23020227382008F865
:10418000888888700000203F202020110E00C03059
:10419000080808083800071820202010080008F830
:1041A00008080810E000203F202020100F0008F829
:1041B0008888E8081000203F20202320180008F8F5
:1041C0008888E8081000203F200003000000C0306D
:1041D00008080838000007182020221E020008F8EE
:1041E00008000008F808203F210101213F200008B5
:1041F00008F8080800000020203F202000000000F0
:104200000808F8080800C08080807F00000008F8D7
:1042100088C028180800203F20012638200008F810
:10422000080000000000203F20202020300008F877
:10423000F800F8F80800203F003F003F200008F891
:1042400030C00008F808203F200007183F00E010A9
:1042500008080810E0000F10202020100F0008F8B8
:1042600008080808F000203F210101010000E010CB
:1042700008080810E0000F18242438504F0008F8F0
:10428000888888887000203F2000030C3020007050
:104290008808080838000038202121221C0018084E
:1042A00008F8080818000000203F2000000008F867
:1042B00008000008F808001F202020201F000878B0
:1042C000880000C83808000007380E010000F80810
:1042D00000F80008F800033C0700073C030008183A
:1042E00068808068180820302C03032C30200838A0
:1042F000C800C83808000000203F20000000100857
:104300000808C8380800203826212020180000009E
:1043100000FE020202000000007F40404000000C4E
:1043200030C000000000000000010638C00000029C
:104330000202FE000000004040407F00000000003C
:10434000040202020400000000000000000000005F
:10435000000000000000808080808080808000025B
:104360000204000000000000000000000000000047
:104370008080808000000019242222223F2008F83B
:10438000008080000000003F112020110E0000007E
:10439000008080800000000E11202020110000000D
:1043A00000808088F800000E112020103F200000BF
:1043B000808080800000001F2222222213000080C3
:1043C00080F0888888180020203F2020000000000E
:1043D000808080808000006B94949493600008F843
:1043E000008080800000203F210000203F200080CE
:1043F0009898000000000020203F202000000000CE
:1044000000809898000000C08080807F000008F83D
:10441000000080808000203F24022D302000000812
:1044200008F8000000000020203F202000008080CD
:10443000808080808000203F20003F20003F8080DF
:10444000008080800000203F210000203F200000ED
:10445000808080800000001F202020201F0080809E
:1044600000808000000080FFA12020110E000000CD
:10447000008080808000000E112020A0FF808080BE
:1044800080008080800020203F212000010000006B
:104490008080808080000033242424241900008040
:1044A00080E0808000000000001F2020000080804D
:1044B000000000808000001F202020103F2080800E
:1044C00080000080808000010E300806010080809E
:1044D0000080008080800F300C030C300F000080C3
:1044E0008000808080000020312E0E3120008080EE
:1044F00080000080808080818E701806010000801E
:104500008080808080000021302C2221300000003B
:104510000000807C020200000000003F40400000DC
:104520000000FF00000000000000FF00000000028B
:10453000027C800000000040403F000000000006B8
:1045400001010202040400000000000000001060ED
:10455000028C0000FE9292929292FE0000000404EF
:104560007E01407E42427E427E42427E400010609A
:10457000028C00FE929292929292FE00000004043D
:104580007E014448507F40407F5048444000000036
:10459000FC242424FC252624FC242424040040306C
:1045A0008F80844C55252525554C808080004040C7
:1045B000424458C0407F40C0504846404000808040
:1045C000402018070000003F40404040780000FEB7
:1045D000424242FE0042A29E82A2C2BE0000806F02
:1045E000080828CF00002FC8080828CF00008070D6
:1045F00000FF1008FE424242FA424242FE00806042
:1046000018070810FF50484641424C40FF00100C6C
:10461000055555D5057F0555555505140C00101049
:10462000108AA96B352525ABE908101010005365D9
:104630006E645F53696E676C6544617461004F4CD2
:1046400045445F427974655772697465004F4C4503
:10465000445F5061676557726974650054656D7099
:104660005F47657456616C75650000008C460008F4
:10467000000000203400000060350008C04600083B
:1046800034000020940400007035000800A24A04A1
:1046900000000000000000000102030406070809F2
:1046A00000000000010203040102030406070809D8
:1046B00002040608000000000000000000000000E6
:0400000508000131BD
:00000001FF
